:020000040800F2
:100000000010002015161508B9C11508BBC1150848
:10001000BDC11508BFC11508C1C115080000000009
:1000200000000000000000000000000025AA1608E3
:10003000C3C1150800000000C9A91608C5C11508EC
:1000400025161508291615082D1615083116150838
:1000500035161508391615083D16150841161508E8
:1000600045161508491615084D1615085116150898
:1000700055161508591615085D1615086116150848
:1000800065161508691615086D16150871161508F8
:1000900075161508791615087D161508C9C11508B5
:1000A0008116150885161508891615088D16150868
:1000B0009116150895161508991615089D16150818
:1000C000A1161508A5161508A9161508AD161508C8
:1000D000B1161508B5161508B9161508BD16150878
:1000E000CFC11508C1161508C5161508C91615087B
:1000F000CD161508D1161508D5161508D9161508E8
:10010000DD16150817C21508E1161508E5161508BD
:10011000E9161508ED1615089DC11508F116150804
:10012000F5161508F9161508FD1615080117150816
:100130000517150800000000000000000917150849
:100140000D17150811171508151715081917150893
:100150001D17150843C2150821171508251715087E
:10016000291715082D171508311715083517150803
:10017000391715083D1715084117150845171508B3
:10018000491715084D171508511715085517150863
:10019000591715085D171508611715086517150813
:1001A000E1C11508E7C11508DBC115086917150875
:1001B000D5C115086D17150871171508751715089D
:1001C000791715087D1715080000000000000000D1
:1001D000000000000000000081171508000000006A
:1001E000000000000000000000000000000000000F
:1001F0000000000000000000851715088917150889
:100200008D1715089117150800000000951715089F
:10021000991715089D171508A1171508A517150892
:10022000A9171508FDC1150803C215080000000034
:10023000AD171508B117150800000000B51715080F
:10024000B91715083DC21508BD171508C1171508BF
:10025000C5171508C9171508CD171508D1171508A2
:10026000D5171508D9171508DD171508E117150852
:10027000E5171508E9171508ED1715080000000027
:10028000F1171508F517150800000000F9171508F3
:1002900000000000FD1715080118150805181508BD
:0C02A000091815080D181508111815088C
:020000040814DE
:10000000A5AA020000E001000020002080120000EC
:1000100000000024280002001C16002400F40B003D
:10002000E01702240020000000000038000000005B
:10003000AFAA020018AC02000002000080120024E7
:1000400069A902000000000000000000000000009C
:100050000000000000000000417564696F506C6191
:100060007954687264000000000000000000000085
:100070000000000000000000000000000000000080
:100080000000000000000000000000000000000070
:1000900000000000F5481408000000000000000007
:1000A0000000000000000000000000000000000050
:1000B0000000000019491408294914080000000034
:1000C00000000000000000000149140800000000CA
:1000D0000000000000000000000000000000000020
:1000E00000000000000000001D49140831491408F8
:1000F0000000000000000000000000000D4914088E
:1001000000000000000000000000000000000000EF
:100110000000000000000000000000002549140855
:100120004149140800000000000000000000000029
:1001300099491408000000000000000000000000C1
:10014000000000004902160833041608430416088C
:10015000850916088D681408176914080000000046
:100160000000000000000000000000005B02160814
:1001700083021608E50516080000000000000000D4
:10018000A368140800000000A5681408A7681408F4
:10019000A9681408AB681408000000000000000003
:1001A0004902160833041608430416088509160880
:1001B000530416081769140800000000000000002E
:1001C00000000000000000005B0216088302160811
:1001D000E505160800000000000000000000000017
:1001E00000000000E5681408FD6814080000000025
:1001F00000000000490216083304160843041608DC
:100200008509160853041608176914080000000031
:100210000000000000000000000000005B02160863
:1002200083021608E5051608000000000000000023
:10023000596B1408000000005B6B1408A7681408D1
:10024000A9681408AB68140873697A656F66285347
:10025000637265656E5479706529203C3D20686540
:1002600061702E73637265656E53746F726167653A
:100270002E656C656D656E745F73697A65282920DB
:10028000262620225669657720616C6C6F63617445
:10029000696F6E206572726F723A20436865636B96
:1002A000207468617420616C6C20766965777320B6
:1002B00061726520616464656420746F2046726FAA
:1002C0006E74656E64486561703A3A566965775434
:1002D0007970657322000000433A5C6769745C576B
:1002E0006F726B73706163655C52656C6561736599
:1002F000735C53544D3332437562655F46575F48B4
:10030000375F56312E382E305243335C50726F6A4D
:10031000656374735C53544D333248374233492D0F
:10032000444B5C44656D6F6E7374726174696F6E7B
:10033000735C566964656F506C617965725C455792
:1003400041524D5C2E2E5C2E2E5C2E2E5C2E2E5C91
:100350002E2E5C4D6964646C6577617265735C53C5
:10036000545C546F7563684746585C746F75636876
:100370006766785C6672616D65776F726B5C696EDB
:10038000636C7564655C6D76702F4D56504170706E
:100390006C69636174696F6E2E6870700000000094
:1003A00073697A656F662850726573656E746572DD
:1003B0005479706529203C3D20686561702E70720B
:1003C0006573656E74657253746F726167652E65CF
:1003D0006C656D656E745F73697A652829202626C1
:1003E000202250726573656E74657220616C6C6F4B
:1003F000636174696F6E206572726F723A20436830
:1004000065636B207468617420616C6C2070726528
:1004100073656E74657273206172652061646465D2
:100420006420746F2046726F6E74656E64486561F7
:10043000703A3A50726573656E746572547970657E
:100440007322000073697A656F66285472616E7357
:100450005479706529203C3D20686561702E747266
:10046000616E736974696F6E53746F726167652E24
:10047000656C656D656E745F73697A6528292026E1
:100480002620225472616E736974696F6E20616CEC
:100490006C6F636174696F6E206572726F723A205F
:1004A000436865636B207468617420616C6C2074B0
:1004B00072616E736974696F6E7320617265206119
:1004C0006464656420746F2046726F6E74656E6438
:1004D000486561703A3A5472616E736974696F6EFF
:1004E00054797065732200000000000000000000D5
:1004F00000000000000000000000000000000000FC
:100500002B291608EF6D1408056E1408096E1408DF
:100510000000000035281608000000000000000060
:10052000000000000D6E1408116E14081B6E1408F4
:10053000236E1408956E140800000000D36E140892
:10054000856E140881011D5A0E02862510031411B0
:1005500012040B081405D8031706DA011907E50081
:100560001C086F001E093600210A1A00230B0D001B
:10057000090C06000A0D03000C0D01008F0F7F5AB5
:100580002410253F2611F22C27127C202813B9179E
:100590002A1482112B15EF0C2D16A1092E172F07E7
:1005A00030185C0531190604331A0303341B40026A
:1005B000361CB101381D4401391EF5003B1FB70040
:1005C0003C208A003E2168003F224E0020233B0051
:1005D00021092C00A525E15A40264C4841270D3A17
:1005E0004328F12E44291F26452A331F462BA819DC
:1005F000482C1815492D77114A2E740E4B2FFB0BE2
:100600004D30F8094E3161084F3206073033CD05C1
:100610003234DE0432350F04333663033437D40208
:1006200035385C023639F801373AA401383B6001AD
:10063000393C25013A3DF6003B3ECB003D3FAB0047
:100640003D208F00C141125B5042044D51432C416B
:100650005244D8375345E82F54463C29564779230E
:100660005748DF1E5749A91A484A4E17484B2414C9
:100670004A4C9C114A4D6B0F4B4E510D4D4FB60BD2
:100680004D30400AD051325858521C4D59538E4368
:100690005A54DD3B5B55EE345C56AE2E5D579A29BD
:1006A00056471625D85970555F5AA94C605BD944F6
:1006B000615C223E635D2438635EB4325D56172E62
:1006C000DF60A8566561464F6662E5476763CF41C4
:1006D00068643D3C635D5E37696631526A670F4C02
:1006E0006B68394667635E41E96A27566C6BE75071
:1006F0006D67854B6E6D97556F6B4F50EE6F105A4F
:10070000706D2255F06FEB5971711D5A426F67750C
:1007100073206D65737361676520636F6465202561
:1007200064000000414C49474E5F545950452069D0
:10073000732077726F6E672C20706C656173652013
:10074000666978004D41585F414C4C4F435F4348C8
:10075000554E4B2069732077726F6E672C20706C3A
:10076000656173652066697800000000426F6775F7
:10077000732062756666657220636F6E74726F6C4B
:10078000206D6F6465000000496E76616C696420BD
:10079000636F6D706F6E656E742049442025642010
:1007A000696E20534F530000496E76616C69642076
:1007B00063726F702072657175657374000000005C
:1007C00044435420636F656666696369656E74208F
:1007D0006F7574206F662072616E6765000000009F
:1007E000444354207363616C656420626C6F636B77
:1007F0002073697A65202564782564206E6F7420E3
:10080000737570706F72746564000000436F6D7073
:100810006F6E656E7420696E6465782025643A2079
:100820006D69736D61746368696E672073616D7063
:100830006C696E6720726174696F2025643A256463
:100840002C2025643A25642C20256300426F6775AF
:100850007320487566666D616E207461626C6520F8
:10086000646566696E6974696F6E0000426F6775D2
:100870007320696E70757420636F6C6F7273706132
:1008800063650000426F677573204A5045472063D7
:100890006F6C6F727370616365000000426F677503
:1008A00073206D61726B6572206C656E6774680091
:1008B00057726F6E67204A504547206C69627261BB
:1008C00072792076657273696F6E3A206C69627214
:1008D0006172792069732025642C2063616C6C65DA
:1008E00072206578706563747320256400000000D1
:1008F00053616D706C696E6720666163746F7273AB
:1009000020746F6F206C6172676520666F7220695A
:100910006E7465726C6561766564207363616E00E8
:10092000496E76616C6964206D656D6F72792070B7
:100930006F6F6C20636F646520256400556E73755E
:1009400070706F72746564204A504547206461740A
:100950006120707265636973696F6E2025640000A1
:10096000496E76616C69642070726F67726573732B
:1009700069766520706172616D657465727320536C
:10098000733D25642053653D25642041683D256401
:1009900020416C3D25640000496E76616C696420DD
:1009A00070726F67726573736976652070617261CA
:1009B0006D6574657273206174207363616E20735A
:1009C000637269707420656E74727920256400000A
:1009D000426F6775732073616D706C696E67206616
:1009E0006163746F72730000496E76616C69642094
:1009F0007363616E20736372697074206174206523
:100A00006E74727920256400496D70726F70657222
:100A10002063616C6C20746F204A504547206C69DC
:100A2000627261727920696E207374617465202529
:100A3000640000004A50454720706172616D657422
:100A4000657220737472756374206D69736D61745F
:100A500063683A206C696272617279207468696EA9
:100A60006B732073697A652069732025752C206368
:100A7000616C6C6572206578706563747320257590
:100A800000000000426F67757320766972747561AB
:100A90006C20617272617920616363657373000019
:100AA0004275666665722070617373656420746F49
:100AB000204A504547206C696272617279206973DF
:100AC00020746F6F20736D616C6C000053757370D0
:100AD000656E73696F6E206E6F7420616C6C6F77DA
:100AE00065642068657265004343495236303120A1
:100AF00073616D706C696E67206E6F7420696D70C4
:100B00006C656D656E746564207965740000000025
:100B1000546F6F206D616E7920636F6C6F7220630C
:100B20006F6D706F6E656E74733A2025642C206D46
:100B30006178202564000000556E737570706F72C7
:100B400074656420636F6C6F7220636F6E7665727C
:100B500073696F6E207265717565737400000000B3
:100B6000426F6775732044414320696E6465782045
:100B700025640000426F677573204441432076610D
:100B80006C7565203078257800000000426F67752D
:100B9000732044485420696E646578202564000001
:100BA000426F6775732044515420696E64657820E4
:100BB00025640000456D707479204A5045472069CE
:100BC0006D6167652028444E4C206E6F74207375EC
:100BD00070706F7274656429000000005265616472
:100BE0002066726F6D20454D53206661696C6564A7
:100BF00000000000577269746520746F20454D53E2
:100C0000206661696C6564004469646E27742065C0
:100C10007870656374206D6F7265207468616E20F2
:100C20006F6E65207363616E00000000496E707521
:100C3000742066696C652072656164206572726FEC
:100C4000720000004F75747075742066696C6520C1
:100C50007772697465206572726F72202D2D2D2058
:100C60006F7574206F66206469736B2073706163A5
:100C7000653F00004672616374696F6E616C20733A
:100C8000616D706C696E67206E6F7420696D706C39
:100C9000656D656E74656420796574004875666677
:100CA0006D616E20636F64652073697A652074617D
:100CB000626C65206F766572666C6F77000000006D
:100CC0004D697373696E6720487566666D616E2045
:100CD000636F6465207461626C6520656E747279FF
:100CE000000000004D6178696D756D20737570703E
:100CF0006F7274656420696D6167652064696D65F4
:100D00006E73696F6E206973202575207069786530
:100D10006C730000456D70747920696E7075742075
:100D200066696C65000000005072656D61747572D3
:100D30006520656E64206F6620696E70757420662C
:100D4000696C650043616E6E6F74207472616E73BE
:100D5000636F64652064756520746F206D756C74B5
:100D600069706C6520757365206F66207175616EA2
:100D700074697A6174696F6E207461626C65202594
:100D8000640000005363616E2073637269707420A5
:100D9000646F6573206E6F74207472616E736D6919
:100DA0007420616C6C20646174610000496E76612E
:100DB0006C696420636F6C6F72207175616E746909
:100DC0007A6174696F6E206D6F6465206368616E0F
:100DD000676500004E6F7420696D706C656D656E9F
:100DE0007465642079657400526571756573746506
:100DF00064206665617475726520776173206F6D1C
:100E0000697474656420617420636F6D70696C65CA
:100E10002074696D6500000041726974686D6574C5
:100E20006963207461626C652030782530327820E7
:100E3000776173206E6F7420646566696E65640007
:100E40004261636B696E672073746F7265206E6FA9
:100E50007420737570706F7274656400487566668F
:100E60006D616E207461626C652030782530327857
:100E700020776173206E6F7420646566696E6564A7
:100E8000000000004A504547206461746173747229
:100E900065616D20636F6E7461696E73206E6F2083
:100EA000696D6167650000005175616E74697A61F2
:100EB00074696F6E207461626C6520307825303201
:100EC0007820776173206E6F7420646566696E6543
:100ED000640000004E6F742061204A504547206630
:100EE000696C653A207374617274732077697468F1
:100EF0002030782530327820307825303278000064
:100F0000496E73756666696369656E74206D656D9B
:100F10006F727920286361736520256429000000C1
:100F200043616E6E6F74207175616E74697A6520AD
:100F30006D6F7265207468616E20256420636F6C2C
:100F40006F7220636F6D706F6E656E74730000005A
:100F500043616E6E6F74207175616E74697A65207D
:100F6000746F206665776572207468616E202564F1
:100F700020636F6C6F72730043616E6E6F742071CB
:100F800075616E74697A6520746F206D6F7265206B
:100F90007468616E20256420636F6C6F727300004B
:100FA000496E76616C6964204A5045472066696CD9
:100FB00065207374727563747572653A2074776F07
:100FC00020534F46206D61726B6572730000000004
:100FD000496E76616C6964204A5045472066696CA9
:100FE00065207374727563747572653A206D6973E8
:100FF00073696E6720534F53206D61726B65720089
:10100000556E737570706F72746564204A504547F1
:101010002070726F636573733A20534F4620747962
:10102000706520307825303278000000496E766196
:101030006C6964204A5045472066696C652073746A
:10104000727563747572653A2074776F20534F49D7
:10105000206D61726B65727300000000496E7661ED
:101060006C6964204A5045472066696C652073743A
:10107000727563747572653A20534F5320626566CA
:101080006F726520534F46004661696C6564207439
:101090006F206372656174652074656D706F726135
:1010A00072792066696C6520257300005265616461
:1010B000206661696C6564206F6E2074656D706F69
:1010C000726172792066696C650000005365656B1A
:1010D000206661696C6564206F6E2074656D706F49
:1010E000726172792066696C6500000057726974DC
:1010F00065206661696C6564206F6E2074656D7033
:101100006F726172792066696C65202D2D2D206FBC
:101110007574206F66206469736B207370616365FA
:101120003F0000004170706C69636174696F6E20EC
:101130007472616E7366657272656420746F6F207D
:10114000666577207363616E6C696E65730000007D
:10115000556E737570706F72746564206D61726B1B
:1011600065722074797065203078253032780000FF
:101170005669727475616C20617272617920636F57
:101180006E74726F6C6C6572206D6573736564202C
:1011900075700000496D61676520746F6F20776915
:1011A000646520666F72207468697320696D706C65
:1011B000656D656E746174696F6E0000526561647F
:1011C0002066726F6D20584D53206661696C6564AE
:1011D00000000000577269746520746F20584D53E9
:1011E000206661696C656400436F70797269676835
:1011F000742028432920323031322C2054686F6DFE
:10120000617320472E204C616E652C204775696400
:101210006F20566F6C6C626564696E670000000039
:101220003864202031352D4A616E2D323031320044
:1012300043617574696F6E3A207175616E74697A75
:101240006174696F6E207461626C65732061726590
:1012500020746F6F20636F6172736520666F7220F8
:10126000626173656C696E65204A504547000000F5
:1012700041646F6265204150503134206D61726B62
:1012800065723A2076657273696F6E2025642C2032
:10129000666C61677320307825303478203078258B
:1012A0003034782C207472616E73666F726D2025F5
:1012B00064000000556E6B6E6F776E2041505030A9
:1012C000206D61726B657220286E6F74204A4649EA
:1012D00046292C206C656E67746820257500000017
:1012E000556E6B6E6F776E204150503134206D61BA
:1012F000726B657220286E6F742041646F6265297D
:101300002C206C656E6774682025750044656669DD
:101310006E652041726974686D65746963205461FB
:10132000626C65203078253032783A20307825306C
:1013300032780000446566696E6520487566666DA2
:10134000616E205461626C652030782530327800FF
:10135000446566696E65205175616E74697A617461
:10136000696F6E205461626C652025642020707264
:1013700065636973696F6E20256400004465666962
:101380006E65205265737461727420496E74657263
:1013900076616C2025750000467265656420454DB8
:1013A000532068616E646C65202575004F6274611E
:1013B000696E656420454D532068616E646C6520DC
:1013C00025750000456E64204F6620496D61676594
:1013D0000000000020202020202020202533642031
:1013E000253364202533642025336420253364208D
:1013F0002533642025336420253364004A4649465A
:101400002041505030206D61726B65723A207665D4
:101410007273696F6E2025642E253032642C20642F
:10142000656E7369747920256478256420202564AD
:10143000000000005761726E696E673A207468752B
:101440006D626E61696C20696D6167652073697A90
:101450006520646F6573206E6F74206D61746368BE
:101460002064617461206C656E6774682025750066
:101470004A46494620657874656E73696F6E206DC3
:1014800061726B65723A207479706520307825300E
:1014900032782C206C656E6774682025750000001A
:1014A0002020202077697468202564207820256416
:1014B000207468756D626E61696C20696D61676525
:1014C000000000004D697363656C6C616E656F753B
:1014D00073206D61726B6572203078253032782C04
:1014E000206C656E6774682025750000556E657800
:1014F000706563746564206D61726B65722030780D
:1015000025303278000000002020202020202020DC
:101510002534752025347520253475202534752013
:101520002534752025347520253475202534750023
:101530005175616E74697A696E6720746F202564D5
:10154000203D2025642A25642A256420636F6C6F62
:10155000727300005175616E74697A696E672074E8
:101560006F20256420636F6C6F72730053656C6528
:101570006374656420256420636F6C6F72732066EA
:101580006F72207175616E74697A6174696F6E0033
:101590004174206D61726B6572203078253032782D
:1015A0002C207265636F7665727920616374696F50
:1015B0006E20256400000000525354256400000092
:1015C000536D6F6F7468696E67206E6F74207375EA
:1015D00070706F727465642077697468206E6F6EC6
:1015E0007374616E646172642073616D706C696E96
:1015F0006720726174696F73000000005374617238
:1016000074204F66204672616D6520307825303237
:10161000783A2077696474683D25752C206865697F
:101620006768743D25752C20636F6D706F6E656EF5
:1016300074733D256400000020202020436F6D70EE
:101640006F6E656E742025643A2025646878256481
:101650007620713D256400005374617274206F66BA
:1016600020496D61676500005374617274204F6694
:10167000205363616E3A20256420636F6D706F6E36
:10168000656E74730000000020202020436F6D7091
:101690006F6E656E742025643A2064633D25642076
:1016A00061633D2564000000202053733D25642CB8
:1016B0002053653D25642C2041683D25642C204144
:1016C0006C3D256400000000436C6F7365642074FA
:1016D000656D706F726172792066696C6520257323
:1016E000000000004F70656E65642074656D706F5A
:1016F000726172792066696C6520257300000000B4
:101700004A46494620657874656E73696F6E206D30
:1017100061726B65723A204A5045472D636F6D7058
:10172000726573736564207468756D626E61696C4F
:1017300020696D6167652C206C656E677468202573
:10174000750000004A46494620657874656E7369E5
:101750006F6E206D61726B65723A2070616C65749A
:101760007465207468756D626E61696C20696D6165
:1017700067652C206C656E67746820257500000015
:101780004A46494620657874656E73696F6E206DB0
:1017900061726B65723A20524742207468756D62BF
:1017A0006E61696C20696D6167652C206C656E6780
:1017B0007468202575000000556E7265636F676E52
:1017C000697A656420636F6D706F6E656E74204911
:1017D00044732025642025642025642C20617373C4
:1017E000756D696E67205943624372004672656584
:1017F0006420584D532068616E646C652025750027
:101800004F627461696E656420584D532068616E43
:10181000646C652025750000556E6B6E6F776E20C9
:1018200041646F626520636F6C6F72207472616EC9
:1018300073666F726D20636F64652025640000001D
:10184000436F7272757074204A504547206461740A
:10185000613A206261642061726974686D657469BF
:101860006320636F64650000496E636F6E73697314
:1018700074656E742070726F6772657373696F6ED2
:101880002073657175656E636520666F7220636F86
:101890006D706F6E656E7420256420636F6566667B
:1018A000696369656E74202564000000436F72727D
:1018B000757074204A50454720646174613A202550
:1018C000752065787472616E656F757320627974C6
:1018D0006573206265666F7265206D61726B6572FB
:1018E0002030782530327800436F72727570742022
:1018F0004A50454720646174613A207072656D6199
:101900007475726520656E64206F66206461746111
:10191000207365676D656E7400000000436F72721E
:10192000757074204A50454720646174613A2062A2
:10193000616420487566666D616E20636F64650042
:101940005761726E696E673A20756E6B6E6F776E57
:10195000204A464946207265766973696F6E206E2B
:10196000756D6265722025642E253032640000009A
:101970005072656D617475726520656E64206F6666
:10198000204A5045472066696C650000436F7272BB
:10199000757074204A50454720646174613A20662E
:1019A0006F756E64206D61726B65722030782530C2
:1019B000327820696E7374656164206F66205253BB
:1019C00054256400496E76616C696420534F53203E
:1019D000706172616D657465727320666F722073D9
:1019E000657175656E7469616C204A5045470000E9
:1019F0004170706C69636174696F6E207472616E9E
:101A00007366657272656420746F6F206D616E79A4
:101A1000207363616E6C696E657300000C071408B7
:101A200024071408440714086C07140888071408CE
:101A3000A8071408C0071408E00714080C081408C5
:101A40004C0814086C081408840814089C0814082E
:101A5000B0081408F0081408200914083C091408F8
:101A60006009140898091408D0091408E809140832
:101A7000080A1408340A1408840A1408A00A14086E
:101A8000CC0A1408E80A1408100B1408380B1408C0
:101A9000600B1408740B14088C0B1408A00B1408AA
:101AA000B40B1408DC0B1408F40B1408080C14080D
:101AB0002C0C1408440C1408740C14089C0C140806
:101AC000C00C1408E40C1408140D1408280D140894
:101AD000440D1408840D1408AC0D1408D40D14081A
:101AE000E80D1408180E1408400E14085C0E1408B3
:101AF000840E1408A80E1408D40E1408000F14083D
:101B0000200F1408500F1408780F1408A00F1408A1
:101B1000D00F1408001014082C1014085C101408BE
:101B200088101408AC101408CC101408EC10140819
:101B30002411140850111408701114089411140879
:101B4000BC111408D4111408E81114082012140848
:101B50003012140870121408B4121408E012140899
:101B60000C13140834131408501314087C131408AD
:101B700098131408AC131408C4131408D4131408CD
:101B8000FC1314083414140870141408A014140856
:101B9000C4141408EC14140808151408301514089B
:101BA000541514086C15140890151408B815140869
:101BB000C0151408FC151408381614085816140813
:101BC0006816140888161408A8161408C8161408ED
:101BD000E416140800171408441714088017140892
:101BE000B8171408EC17140800181408181814086B
:101BF0004018140868181408AC181408E8181408D9
:101C00001C19140840191408701914088C191408A8
:101C1000C4191408F01914080000000000000000A6
:101C20000100000008000000100000000900000092
:101C300002000000030000000A0000001100000084
:101C40001800000020000000190000001200000031
:101C50000B00000004000000050000000C00000064
:101C6000130000001A0000002100000028000000FE
:101C70003000000029000000220000001B000000CE
:101C8000140000000D000000060000000700000026
:101C90000E000000150000001C00000023000000E2
:101CA0002A00000031000000380000003900000068
:101CB000320000002B000000240000001D00000086
:101CC000160000000F000000170000001E000000BA
:101CD000250000002C000000330000003A00000046
:101CE0003B000000340000002D0000002600000032
:101CF0001F000000270000002E000000350000003B
:101D00003C0000003D000000360000002F000000F5
:101D1000370000003E0000003F0000003F000000D0
:101D20003F0000003F0000003F0000003F000000B7
:101D30003F0000003F0000003F0000003F000000A7
:101D40003F0000003F0000003F0000003F00000097
:101D50003F0000003F0000003F00000000000000C6
:101D60000100000008000000100000000900000051
:101D700002000000030000000A0000001100000043
:101D800018000000200000001900000012000000F0
:101D90000B00000004000000050000000C00000023
:101DA000130000001A0000002100000028000000BD
:101DB0003000000029000000220000001B0000008D
:101DC000140000000D000000060000000E000000DE
:101DD000150000001C000000230000002A00000085
:101DE00031000000320000002B0000002400000041
:101DF0001D000000160000001E000000250000006D
:101E00002C00000033000000340000002D00000012
:101E1000260000002E000000350000003600000003
:101E20003F0000003F0000003F0000003F000000B6
:101E30003F0000003F0000003F0000003F000000A6
:101E40003F0000003F0000003F0000003F00000096
:101E50003F0000003F0000003F0000003F00000086
:101E60000000000001000000080000001000000059
:101E70000900000002000000030000000A0000004A
:101E800011000000180000002000000019000000F0
:101E9000120000000B00000004000000050000001C
:101EA0000C000000130000001A00000021000000D8
:101EB0002800000029000000220000001B00000094
:101EC000140000000D000000150000001C000000C0
:101ED000230000002A0000002B0000002400000066
:101EE0001D000000250000002C0000002D00000057
:101EF0003F0000003F0000003F0000003F000000E6
:101F00003F0000003F0000003F0000003F000000D5
:101F10003F0000003F0000003F0000003F000000C5
:101F20003F0000003F0000003F0000003F000000B5
:101F30000000000001000000080000001000000088
:101F40000900000002000000030000000A00000079
:101F5000110000001800000020000000190000001F
:101F6000120000000B000000040000000C00000044
:101F7000130000001A0000002100000022000000F1
:101F80001B000000140000001C00000023000000E3
:101F9000240000003F0000003F0000003F00000060
:101FA0003F0000003F0000003F0000003F00000035
:101FB0003F0000003F0000003F0000003F00000025
:101FC0003F0000003F0000003F0000003F00000015
:101FD0003F000000000000000100000008000000B9
:101FE00010000000090000000200000003000000D3
:101FF0000A00000011000000180000001900000095
:10200000120000000B000000130000001A00000086
:102010001B0000003F0000003F0000003F000000E8
:102020003F0000003F0000003F0000003F000000B4
:102030003F0000003F0000003F0000003F000000A4
:102040003F0000003F0000003F0000003F00000094
:102050003F00000000000000010000000800000038
:102060001000000009000000020000000A0000004B
:1020700011000000120000003F0000003F000000BF
:102080003F0000003F0000003F0000003F00000054
:102090003F0000003F0000003F0000003F00000044
:1020A0003F0000003F0000003F0000003F00000034
:1020B0003F0000003F0000000000000001000000A1
:1020C00008000000090000003F0000003F00000081
:1020D0003F0000003F0000003F0000003F00000004
:1020E0003F0000003F0000003F0000003F000000F4
:1020F0003F0000003F0000003F0000003F000000E4
:102100003F0000003F000000000000000000000051
:102110000000000000000000D5F11408E9F11408E7
:10212000000000006269746D61707320213D2030F1
:1021300020262620224269746D61702064617461DA
:102140006261736520686173206E6F7420626565DB
:102150006E20696E697469616C697A65642E22000B
:10216000433A5C6769745C576F726B737061636547
:102170005C52656C65617365735C53544D333243D7
:102180007562655F46575F48375F56312E382E308F
:102190005243335C50726F6A656374735C53544D81
:1021A000333248374233492D444B5C44656D6F6E82
:1021B0007374726174696F6E735C566964656F5095
:1021C0006C617965725C455741524D5C2E2E5C2ED8
:1021D0002E5C2E2E5C2E2E5C2E2E5C4D6964646C63
:1021E0006577617265735C53545C546F75636847BF
:1021F00046585C746F7563686766785C6672616D7B
:1022000065776F726B5C696E636C7564655C746F27
:102210007563686766782F4269746D61702E6870A7
:10222000700000000000000000000000000000003E
:1022300000000000E1361608393716086D37160819
:10224000CB37160800000000CFF21508EB37160850
:102250005B38160825F215084BF215084FF21508E1
:1022600053F215086DF2150871F215080000000010
:1022700075F2150877F2150879F215087BF2150842
:102280007D3816087DF215080000000093F215084D
:1022900017151508291515084F1515088F15150858
:1022A000C51515080000000000000000653715087E
:1022B0009F391608373A15084D371508C1391508E2
:1022C000413A15083D3A15080000000000000000E2
:1022D000F3391608833A1608993916087537150820
:1022E000D5381508D53A1608D73A16080000000068
:1022F000E5391608302026262022556E7375707039
:102300006F727465642062697420646570746822F9
:1023100000000000433A5C6769745C576F726B732E
:10232000706163655C52656C65617365735C535481
:102330004D3332437562655F46575F48375F5631AC
:102340002E382E305243335C50726F6A656374735B
:102350005C53544D333248374233492D444B5C442F
:10236000656D6F6E7374726174696F6E735C5669BC
:1023700064656F506C617965725C455741524D5C84
:102380002E2E5C2E2E5C2E2E5C2E2E5C2E2E5C4D68
:102390006964646C6577617265735C53545C546FF7
:1023A0007563684746585C746F7563686766785CE8
:1023B0006672616D65776F726B5C696E636C756474
:1023C000655C746F7563686766782F68616C2F4809
:1023D000414C2E68707000006672616D65427566D2
:1023E00066657220213D203020262620224120666D
:1023F00072616D656275666665722061646472659E
:102400007373206D75737420626520736574220088
:10241000433A5C6769745C576F726B737061636594
:102420005C52656C65617365735C53544D33324324
:102430007562655F46575F48375F56312E382E30DC
:102440005243335C50726F6A656374735C53544DCE
:10245000333248374233492D444B5C44656D6F6ECF
:102460007374726174696F6E735C566964656F50E2
:102470006C617965725C455741524D5C2E2E5C2E25
:102480002E5C2E2E5C2E2E5C2E2E5C4D6964646CB0
:102490006577617265735C53545C546F756368470C
:1024A00046585C746F7563686766785C6672616DC8
:1024B00065776F726B5C696E636C7564655C746F75
:1024C0007563686766782F68616C2F48414C2E6889
:1024D000707000000000000000000000000000001C
:1024E00000000000253C1508190A1608000000002D
:1024F0005D3B1508B90B1608C70B1608CF0B16085D
:10250000F90B1608973A1508000000007B0C160816
:102510007F0C16082F3C150800000000000000008A
:10252000910D1608750E1608F50D1608FF0E160803
:10253000810F1608D50F16080000000000000000EB
:10254000373C1508C73A1508213B15080B3B150801
:10255000DB3A1508000000004D3C1508D53C150875
:10256000FD0B1608213D1508A93A15082D3D150843
:102570000000000000000000390A1608373B15086B
:102580003B3B15089D3A1508BB1016081911160893
:10259000353D15080000000000000000953D1508BD
:1025A000000000000000000000000000FD3D1508D4
:1025B0001D3E15088D3D1508913D150800000000D1
:1025C0000000000000000000000000003F3E150871
:1025D0005F3E150853544F524147455F546872653A
:1025E0006164000000000000000000000000000026
:1025F0000000000097451608814616086D3716083A
:10260000CB3716080000000017461608EB371608EF
:102610005B38160825F215084BF215084FF215081D
:1026200053F215086DF2150871F21508000000004C
:1026300075F2150877F2150879F215087BF215087E
:102640007D3816087DF21508000000009546160832
:10265000454516085F451608000000000000000010
:10266000000000000000000000000000000000006A
:10267000000000000000000077D7150879DB15087E
:102680009FDB1508000000000000000000000000B3
:102690000000000097451608814616086D37160899
:1026A000CB3716080000000017461608EB3716084F
:1026B0005B38160825F215084BF215084FF215087D
:1026C00053F215086DF2150871F2150800000000AC
:1026D00075F2150877F2150879F215087BF21508DE
:1026E0007D3816087DF21508000000009546160892
:1026F000454516085F451608000000000000000070
:1027000000000000000000000000000000000000C9
:102710000000000031D81508000000000000000093
:1027200000000000000000000000000097451608AF
:10273000814616086D371608CB37160800000000D2
:1027400017461608EB3716085B38160825F21508E9
:102750004BF215084FF2150853F215086DF21508E3
:1027600071F215080000000033D8150877F215083B
:1027700079F215087BF215087D3816087DF21508E8
:102780000000000095461608454516085F451608E6
:102790000000000000000000000000000000000039
:1027A00000000000000000000000000031D8150803
:1027B0000000000000000000000000000000000019
:1027C0000000000097451608814616086D37160868
:1027D000CB3716080000000017461608EB3716081E
:1027E0005B38160825F215084BF215084FF215084C
:1027F00053F215086DF2150871F21508000000007B
:1028000033D8150877F2150879F215087BF2150808
:102810007D3816087DF21508000000009546160860
:10282000454516085F45160800000000000000003E
:102830000000000000000000000000000000000098
:102840000000000003DA150800000000D1D91508C7
:102850000000000000000000000000000000000078
:1028600097451608814616086D371608CB371608A7
:102870000000000017461608EB3716085B381608EC
:1028800025F215084BF215084FF2150853F21508FA
:102890006DF2150871F215080000000033D8150814
:1028A00077F2150879F215087BF215087D381608BD
:1028B0007DF21508000000009546160845451608EB
:1028C0005F45160800000000000000000000000046
:1028D00000000000000000000000000000000000F8
:1028E0003DD9150800000000D1D91508DDD815081C
:1028F00000000000000000000000000000000000D8
:10290000C1D71508FDD71508000000000000000021
:102910000000000000000000DFD7150817D81508D8
:1029200000000000000000000000000000000000A7
:1029300097451608814616086D371608CB371608D6
:102940000000000017461608EB3716085B3816081B
:1029500025F215084BF215084FF2150853F2150829
:102960006DF2150871F215080000000075F21508E7
:1029700077F2150879F215087BF215087D381608EC
:102980007DF215080000000095461608454516081A
:102990005F45160800000000000000000000000075
:1029A0000000000000000000000000000000000027
:1029B0000000000039DB150879DB15089FDB1508DE
:1029C0000000000000000000000000000000000007
:1029D00005DC150841DC15080000000000000000BF
:1029E000000000000000000023DC15085BDC150877
:1029F00000000000000000000000000000000000D7
:102A000097451608814616086D371608CB37160805
:102A10000000000017461608EB3716085B3816084A
:102A200025F215084BF215084FF2150853F2150858
:102A30006DF2150871F215080000000075F2150816
:102A400077F2150879F215087BF215087D3816081B
:102A50007DF2150800000000954616084545160849
:102A60005F451608000000000000000000000000A4
:102A70000000000000000000000000000000000056
:102A8000CDDC150897F51508BDF51508E3F5150813
:102A900009F615080000000000000000000000001A
:102AA0000000000031DE15084FDE150800000000B0
:102AB000000000000000000000000000974516081C
:102AC000814616086D371608CB371608000000003F
:102AD00017461608EB3716085B38160825F2150856
:102AE0004BF215084FF2150853F215086DF2150850
:102AF00071F215080000000075F2150877F215084C
:102B000079F215087BF215087D3816087DF2150854
:102B10000000000095461608454516085F45160852
:102B200000000000000000000000000000000000A5
:102B30000000000000000000000000000000000095
:102B400097F51508BDF51508E3F5150809F61508FC
:102B500000000000000000004DE515084FE51508D5
:102B600051E5150800000000000000000000000012
:102B70000000000000000000000000000000000055
:102B80000000000081E5150897E5150853E51508D4
:102B90000000000000000000FCFFFFFF000000003C
:102BA0000000000000000000000000000000000025
:102BB00000000000000000000000000035E71508DC
:102BC0004DE71508000000000000000021E815088E
:102BD000000000009D30160877E81508BFF21508C0
:102BE00013EA150815EA15082D3516084536160896
:102BF00021ED1508C5F2150823EB150859EB15084A
:102C000059EC1508ADEB1508E1EC150801ED1508B8
:102C100083EC1508A5EC150800000000000000007A
:102C2000B9EC1508C5EC15087DF0150874797065C8
:102C300064546578747320213D203020262620229C
:102C4000547970656454657874206461746162615C
:102C5000736520686173206E6F74206265656E20F5
:102C6000696E697469616C697A65642E220000007E
:102C7000433A5C6769745C576F726B73706163652C
:102C80005C52656C65617365735C53544D333243BC
:102C90007562655F46575F48375F56312E382E3074
:102CA0005243335C50726F6A656374735C53544D66
:102CB000333248374233492D444B5C44656D6F6E67
:102CC0007374726174696F6E735C566964656F507A
:102CD0006C617965725C455741524D5C2E2E5C2EBD
:102CE0002E5C2E2E5C2E2E5C2E2E5C4D6964646C48
:102CF0006577617265735C53545C546F75636847A4
:102D000046585C746F7563686766785C6672616D5F
:102D100065776F726B5C696E636C7564655C746F0C
:102D20007563686766782F54797065645465787444
:102D30002E687070000000007479706564546578C6
:102D4000744964203C206E756D6265724F665479DB
:102D50007065645465787473202626202274797017
:102D60006564546578744964206C6172676572208B
:102D70007468616E206E756D6265724F665479700D
:102D8000656454657874732E220000000000000012
:102D90000000000000000000000000009749160835
:102DA000DDF315086D371608CB3716080000000054
:102DB000CFF21508EB3716085B38160825F2150810
:102DC0004BF215084FF2150853F215086DF215086D
:102DD00071F215080000000075F2150877F2150869
:102DE00079F215087BF215087D3816087DF2150872
:102DF0000000000093F21508000000000000000031
:102E0000294916084D49160800000000000000007E
:102E10000000000000000000B9F41508DDF31508FB
:102E20006D371608CB37160800000000CFF21508E2
:102E3000EB3716085B38160825F215084BF2150813
:102E40004FF2150853F215086DF2150871F21508C6
:102E50000000000075F2150877F2150879F21508E0
:102E60007BF215087D3816087DF215080000000079
:102E700093F21508000000000000000091F415080E
:102E800059F515080000000000000000CDF21508FB
:102E9000000000009D301608BDF21508BFF21508AD
:102EA000C1F21508473316082D35160845361608A1
:102EB000C3F21508C5F2150800000000000000006C
:102EC0000000000000000000974516088146160823
:102ED0006D371608CB371608000000001746160895
:102EE000EB3716085B38160825F215084BF2150863
:102EF0004FF2150853F215086DF2150871F2150816
:102F00000000000075F2150877F2150879F215082F
:102F100003F715087D3816087DF21508000000003B
:102F200095461608454516085F451608000000003E
:102F30000000000000000000000000000000000091
:102F40000000000000000000000000000000000081
:102F50000000000000000000000000000000000071
:102F60000000000000000000A5471608674816088A
:102F70006D371608CB37160800000000CFF2150891
:102F8000EB3716085B38160825F215084BF21508C2
:102F90004FF2150853F215086DF2150871F2150875
:102FA00000000000A760160877F2150879F21508EE
:102FB00007F715087D3816087DF215080000000097
:102FC00093F21508000000004548160800000000B4
:102FD00000000000000000000000000000000000F1
:102FE00000000000000000000000000097451608E7
:102FF000814616086D371608CB371608000000000A
:1030000017461608EB3716085B38160825F2150820
:103010004BF215084FF2150853F215086DF215081A
:1030200071F215080000000075F2150877F2150816
:1030300079F215080BF715087D3816087DF215088A
:103040000000000095461608454516085F4516081D
:103050000000000000000000000000000000000070
:10306000000000000000000000000000CDDC15089A
:1030700097F51508BDF51508E3F5150809F61508C7
:103080000000000000000000000000000000000040
:103090000000000000000000000000000000000030
:1030A0007DF11508D7F115080000000000000000B0
:1030B000000000000000000009F1150825F11508C6
:1030C0000000000000000000000000000000000000
:1030D0009BF11508F1F11508000000000000000048
:1030E0000000000000000000B9F115080BF21508FF
:1030F0000000000000000000F1F8150800000000CA
:103100009D3016085BFE1508BFF21508C1F21508C0
:10311000473316082D35160845361608C3F215082C
:10312000C5F215087BFE15087DFE15087FFE150803
:1031300081FE150883FE150885FE150887FE150813
:1031400089FE150800000000000000001D001608A0
:103150001F0016082100160848414C3A3A6765746A
:10316000496E7374616E63652829202626202243E8
:10317000616E6E6F742073657420636F6C6F722064
:103180006265666F72652048414C20697320696EE4
:10319000697469616C697A6564220000433A5C670E
:1031A00069745C576F726B73706163655C52656CB8
:1031B00065617365735C53544D3332437562655F6B
:1031C00046575F48375F56312E382E305243335CB6
:1031D00050726F6A656374735C53544D3332483771
:1031E0004233492D444B5C44656D6F6E737472615C
:1031F00074696F6E735C566964656F506C61796554
:10320000725C455741524D5C2E2E5C2E2E5C2E2E4C
:103210005C2E2E5C2E2E5C4D6964646C6577617249
:1032200065735C53545C546F7563684746585C74AF
:103230006F7563686766785C6672616D65776F72DB
:103240006B5C696E636C7564655C746F75636867ED
:1032500066782F436F6C6F722E68707000000000EC
:103260000000000000000000CB011608CD01160888
:10327000CF011608D1011608D3011608000000007E
:10328000000000000000000000000000000000003E
:10329000490216083304160843041608850916085F
:1032A0005304160859021608000000000000000030
:1032B00000000000000000005B02160883021608F0
:1032C000E5051608000000000000000000000000F6
:1032D0000000000000000000E91A16088B20160804
:1032E0001B221608000000004D221608BD1A160801
:1032F000C11A1608C51A1608D51A160800000000CB
:10330000000000000000000000000000D1231608AB
:103310000000000000000000593016080000000006
:103320009D301608BDF21508BFF21508C1F2150848
:10333000473316082D35160845361608C3F215080A
:10334000C5F215080000000000000000FFFFFFFFAD
:10335000FFFFFFFF00000000FFFFFFFF0100000074
:10336000FFFFFFFFFFFFFFFF00000000FFFFFFFF69
:10337000010000000100000000000000010000004A
:10338000010000000000000001000000000000003B
:10339000000000000000000000000000E1361608F8
:1033A000393716086D371608CB37160800000000AD
:1033B000CFF21508EB3716085B38160825F215080A
:1033C0004BF215084FF2150853F215086DF2150867
:1033D00071F215080000000075F2150877F2150863
:1033E00079F215087BF215087D3816087DF215086C
:1033F0000000000093F2150800000000000000002B
:10340000FF3816080F391608293916080000000081
:10341000000000005B3916086B3916080000000038
:1034200000000000000000000000000083441608B7
:103430001D4516086D371608CB371608000000002A
:10344000CFF21508EB3716085B38160825F2150879
:103450004BF215084FF2150853F215086DF21508D6
:1034600071F215080000000075F2150877F21508D2
:1034700079F215087BF215087D3816087DF21508DB
:103480000000000093F215084944160800000000EF
:103490000000000000000000000000009745160832
:1034A000814616086D371608CB3716080000000055
:1034B00017461608EB3716085B38160825F215086C
:1034C0004BF215084FF2150853F215086DF2150866
:1034D00071F215080000000075F2150877F2150862
:1034E00079F215087BF215087D3816087DF215086B
:1034F0000000000095461608454516085F45160869
:1035000000000000000000000000000000000000BB
:1035100000000000000000000000000000000000AB
:10352000000000000000000000000000A547160891
:10353000674816086D371608CB37160800000000DC
:10354000CFF21508EB3716085B38160825F2150878
:103550004BF215084FF2150853F215086DF21508D5
:1035600071F2150800000000A760160877F2150830
:1035700079F215087BF215087D3816087DF21508DA
:103580000000000093F215080000000045481608EE
:10359000000000000000000000000000000000002B
:1035A000A5471608674816086D371608CB37160862
:1035B00000000000CFF21508EB3716085B3816083C
:1035C00025F215084BF215084FF2150853F21508AD
:1035D0006DF2150871F2150800000000094916087F
:1035E00077F2150879F215087BF215087D38160870
:1035F0007DF215080000000093F21508000000009D
:1036000059F4150800000000000000000000000050
:103610000000000097491608DDF315086D371608FD
:10362000CB37160800000000CFF21508EB3716085C
:103630005B38160825F215084BF215084FF21508ED
:1036400053F215086DF2150871F21508000000001C
:1036500075F2150877F2150879F215087BF215084E
:103660007D3816087DF215080000000093F2150859
:103670000000000000000000294916084D49160806
:10368000000000000000000000000000000000003A
:1036900097451608814616086D371608CB37160869
:1036A00000000000295A1608EB3716085B38160888
:1036B00025F215084BF215084FF2150853F21508BC
:1036C0006DF2150871F2150800000000454D16084E
:1036D000A552160855501608255916087D381608A3
:1036E0007DF215080000000095461608CD57160813
:1036F0005F45160800000000000000000000000008
:10370000000000000000000009581608F3581608D1
:10371000DF591608055716080000000000000000D9
:10372000FFFFFFFFFFFFFFFF00000000FFFFFFFFA5
:1037300001000000FFFFFFFFFFFFFFFF0000000090
:103740000000000000000000010000000000000078
:10375000FFFFFFFF0100000000000000010000006B
:103760000100000001000000000000000000000057
:103770000000000000000000775A1608495A160899
:103780006D371608CB37160800000000CFF2150879
:10379000EB3716085B38160825F215084BF21508AA
:1037A0004FF2150853F215086DF2150871F215085D
:1037B0000000000075F2150877F2150879F2150877
:1037C0007BF215087D3816087DF215080000000010
:1037D00093F2150800000000000000000000000047
:1037E0000000000097451608814616086D37160838
:1037F000CB3716080000000017461608EB371608EE
:103800005B38160825F215084BF215084FF215081B
:1038100053F215086DF2150871F21508000000004A
:10382000E35D160877F21508615E16087BF215084D
:103830007D3816087DF21508000000009546160830
:10384000454516085F45160800000000000000000E
:103850000000000000000000000000000000000068
:1038600000000000935C1608355D1608000000009B
:103870000000000061601608000000000000000069
:103880006F601608C75D16085F5F1608915E160820
:10389000EB5E1608456016088D6016089D601608D8
:1038A0000000000000000000000000000000000018
:1038B0000000000000000000000000000000000008
:1038C00000000000000000000000000000000000F8
:1038D00000000000000000000000000000000000E8
:1038E00000002E0043000000F8B50446D4F8485408
:1038F00028460DF037FC002823D1002128460DF082
:10390000C5FBF0B92A6B04F5916128460DF0ABFBBD
:10391000B8B128460DF0C9FB98B928460DF022FC35
:1039200078B9002128460DF0B1FB50B92A6B04F597
:103930008A6128460DF097FB18B128460DF0EEFB82
:1039400008B10120F2BD284670A60DF0AEFB04467A
:103950006CA7D4B928460DF0A8FB0446394605F1FA
:10396000280023F0AFF90028F3D128460DF0FAFB28
:103970002A6C04461823A86B31465A438318A3F1D6
:10398000080023F09FF90028E3D1200018BF012090
:10399000C0B2F2BD70B5044604F5896630680D46C4
:1039A00018B90DF0F7FA306098B101222946204687
:1039B00002F080FC68B9B0670021E268C4F8C8145E
:1039C000306821460DF00DFA18B92046FFF78CFF3C
:1039D00000B1012070BD10B5044602F05EFDD4F8C0
:1039E00048040DF0E7FA0020C4F8480410BD2DE9A2
:1039F000F84F8246174600240AF58965002F89464C
:103A0000A96F0FF2181B0FF20C180CBF2E686E680E
:103A1000E1B900F053F8002808BF002F05D059463F
:103A200000F04DF890B9012F10D1002130460DF073
:103A30002DFB00F03EF81FB9A96F491CA96725E0CE
:103A4000DAF8C824521CCAF8C8241FE030460DF02A
:103A50002CFB20BB00F032F8002808BF002F17D045
:103A6000594600F02CF800280FBF012FDAF8C804DF
:103A7000401CCAF8C804E9D10AE0E86F401CE867B6
:103A8000DAF8C814491CCAF8C8142046BDE8F28FF9
:103A9000002130460DF0FAFA00F00BF80446306BC6
:103AA000844218BF0024002FE7D1A86F401CA867EC
:103AB000EBE7326B494630460DF0D5BA414606F188
:103AC000280023F0FFB810B504460DF063FA04F5A2
:103AD0008961086008B9012010BD0020064A886786
:103AE00004F599600021054B054C0160426083603C
:103AF000C460002010BD000095391408D73914089F
:103B0000EF3914084C495354000000006D6F76697A
:103B10000000000030317762000000003030646344
:103B20000000000030B50024012987B0054618D1F7
:103B30000DF10800C5A1142223F0FEF8294602A8C1
:103B400001F0ADF808B901202BE000BFBDA1D1E91B
:103B5000002301466846CDE9002301F02DF9AD4967
:103B6000C8606968AC480223102248614AF64440A4
:103B7000CC610B60CB6048608A60D5F80C0810F10E
:103B8000010F08BF3C200861C8690DF0EBFE00B1D1
:103B900001246868016A11F1010F04BF3C2202622E
:103BA000204607B030BDFEB505469A4C05E0042816
:103BB00003D16968C8690EF040F8E1684FF0FF3240
:103BC000684601F019F9684690E80E00102984E86B
:103BD0000E00F2D12F68D7F8C004206120790628A2
:103BE0000BD16968286800224B69D0F8D46403F5CA
:103BF0008051B0470028E0D107E007280BD12868A2
:103C0000696800F083F80028D7D1E068002202211B
:103C100001F0D7F8D1E7012807D168684FF40052C6
:103C20004169C0690DF09DFFC7E7022807D16968A7
:103C3000062085F81008C8690EF031F8BDE70328A2
:103C4000B5D16868C0690DF0C8FFB6E771480022B9
:103C5000C068062101F0B5B86E480022C06807218F
:103C600001F0AFB810B50446072184F81018206899
:103C7000FFF729FF01212046FFF754FF012059E0FB
:103C800010B50446D4F8082804EB821303F10800A9
:103C900023F096F8D4F808180020491CC4F8081836
:103CA00010BD38B504460D4694F8101801290FD000
:103CB0002068D0F8D02490476168C8690DF0EFFF04
:103CC0006068C0690DF008FF00212046FFF72AFF59
:103CD000206804EB8511D0F8CC2408319047206887
:103CE000616800F013F848B16168206800224B69F0
:103CF000D0F8D45403F58051A84710B900200DF036
:103D0000EBFE032084F81008002032BD4969002230
:103D1000D0F8D434184710B504463E4894F810380B
:103D2000C068032B07BF002201210022042101F0FB
:103D300048F8052084F81008002010BD10B504468E
:103D400094F81008052808D1324B0022D8680321C6
:103D500001F037F8042184F81018002010BD90F805
:103D60001008704710B500684FF47A732B4C00F5BB
:103D700091610A68096CB2FBF3F04843206010BD02
:103D800070B505460C46002624B96968C8690DF06F
:103D9000DAFF0EE0D5F80C0830B96968C8690DF093
:103DA000EFFF08B1042070BD68682146C0690DF0BE
:103DB000A9FF00B10426C5F80C48304670BD38B5DF
:103DC000174C216821BB04F12802231D026000F674
:103DD000080543601349E960134A144B2A616B617B
:103DE0001349A961134A144BEA612B6213496962B2
:103DF000134A0023AA622B724FF40061083022F0AC
:103E000087FF4FF0FF3200236A6001212B602160A1
:103E1000002032BD1C1B002400000038301B002491
:103E20001C160024653C1408813C1408A33C1408AB
:103E3000173D14083D3D14085F3D1408653D140806
:103E4000813D140810000000010000005800140813
:103E5000A73B14080100000000000000000500005E
:103E600000A07047B0E86093000000000401020069
:103E70000100000002010240D0F060930000000049
:103E8000040102000100000002010240F0F860930A
:103E900000000000040102000100000002010240D5
:103EA00010016193000000001800180000000000DD
:103EB00000000040100A619300000000E001500083
:103EC00000002800E0012840106263930000000019
:103ED000440030001C000000280026401095639329
:103EE00000000000440030001C00000028002640B4
:103EF00010C8639300000000440030000000000080
:103F00002800264010FB63930000000044003000AE
:103F10000000000028002640102E649300000000DE
:103F2000440030001C00000028002640106164930B
:103F300000000000440030001C0000002800264063
:103F4000109464930000000054001E000000000064
:103F50000000004070BB64930000000054001E008D
:103F60001000020036001B40D0E264930000000005
:103F700055001E000000000000000040A80A6593E4
:103F80000000000055001E001000010036001B401C
:103F90008032659300000000400002000100000034
:103FA0003E0002408034659300000000C80102001A
:103FB00001000000C6010240C042659300000000FD
:103FC0000C000C000800010004000A400045659345
:103FD000000000000C000C0000000300060006407A
:103FE0004047659300000000140010000800030023
:103FF00002000A40404C65930000000014001000CD
:104000000800030002000A404051659300000000D0
:10401000140014000C00050005000A408057659349
:104020000000000014001400010006000900084010
:10403000C05D659300000000180012000500030039
:104040000F00024080646593000000001800120019
:10405000050003000F000240406B65930000000064
:10406000180012000D0003000A0002400072659360
:1040700000000000180012000D0003000A000240BA
:10408000C0786593000000001400100004000400D4
:1040900006000840C07D6593000000001400100079
:1040A0000400040006000840C08265930000000080
:1040B000140010000400040006000840C087659347
:1040C0000000000014001000040004000600084076
:1040D000C08C659300000000140010000400040070
:1040E00006000840C0916593000000001400100015
:1040F0000400040006000840C0966593000000001C
:10410000140010000400040006000840C09B6593E2
:104110000000000014001000040004000600084025
:10412000C0A065930000000011000A00010001001A
:104130000F00084068A3659300000000A401E80098
:1041400000000000A401E82048196A930000000064
:1041500096005B0075003B002100204090EE6A93C2
:10416000000000000E000E000900020004000A40DA
:10417000A0F16A93000000000E000E000000030092
:1041800007000840B0F46A93000000003000C2004D
:10419000000000000100C24030866B930000000068
:1041A000CC00090000000700CC000240E0A26B93A5
:1041B00000000000CC000A0000000000CC0003401A
:1041C000C0C26B93000000002F00C200000000007E
:1041D0000000004038516C9300000000A001010075
:1041E0000000000044010140B8576C93000000003B
:1041F000CA00200003000000C4002040B8BC6C933B
:1042000000000000CA00200003000000C40020409D
:10421000B8216D9300000000FA00BE000E000000FF
:10422000EC00B240E80770930000000096005B00CD
:1042300075003B002100204030DD7093000000003D
:1042400096005B0075003B002100204078B271931E
:10425000000000002C00A800000006002C009C407C
:10426000F825729300000000100086000000000096
:1042700000000040784772930000000010008600A4
:10428000010000000E000240F86872930000000078
:104290001E000200010000001C000240DFF8E004E4
:1042A00000F030BCDFF8DC140878002800D070473C
:1042B00010B5012300220B708021DFF8CC04DFF859
:1042C000CC4411F09FFF01220421204611F09AFFF7
:1042D000204601220221BDE8104011F093BFDFF813
:1042E000B004DFF8B024F8B5016886B0DFF8984470
:1042F000DFF8A454914264D12B69DFF8A0640E2743
:1043000043F008032B6128694FF4704300F0080064
:10431000059005992A6842F010022A60286800F08A
:1043200010000590059900F088F8306840F0100002
:104330003060326822F010023260E96841F4807126
:10434000E960E86800F4807005900599E86840F439
:104350000070E860E96801F4007105910598E9686A
:10436000DFF83C0441F48061E960EA6802F48062AD
:10437000059205990222009300210192029169465B
:104380000392049711F0BCFD4FF6FF73049700935E
:104390006946DFF8100411F0B3FDFF210497009186
:1043A0006946204611F0ACFD042100220091012352
:1043B000019269460293DFF8F00311F0A1FD00F0CD
:1043C0003CF8E868802340F00100E860E96801F00B
:1043D000010105910598E96841F00101E960E8688B
:1043E00000F0010005900599E86840F48060E860FD
:1043F000E9682046DFF8944301F480610591059A4D
:1044000001210093019100220292694611F078FD8A
:10441000042201230092694601932046029311F081
:104420006FFD02210122009100230192694602934F
:10443000204611F065FD07B0F0BD306940F008007E
:104440003061316921F008013161704728202A214B
:1044500040F20A2278B5CE4C4FF4F075606140F21C
:104460002A20E1610921E06240F21B10A16140F2C3
:104470001D11A06204F13400216300214FF48876FD
:10448000C56206638DB001808170C24862620B22F2
:104490002060204622626160A160E160216190F8A5
:1044A000A10008B9FFF71BFF204613F0A9FBBF4A84
:1044B00000210992002200910CA80291FF2106928E
:1044C0004FF4C0620591002107920122ADF830102F
:1044D00007238170694604920022019520460396C5
:1044E0000A950B96089313F05BFC00200EB070BD8C
:1044F00080B5CAB0042014F09BFB0021AC480091A9
:10450000026842F440420260036803F440430093AF
:10451000009902689304FCD501214FF4803209917F
:104520004FF48C710A9202221591022112920023FB
:1045300013920C22169109A81891179104210C933B
:10454000109314921B931A93199114F0F5FD00B176
:10455000FEE74FF0005118221C91022125920622FD
:1045600027911E2128924FF4907329914FF40072E5
:10457000002126932B921CA82C912A9115F04AF821
:1045800000B1FEE74FF480214FF400121C911CA8EB
:104590003F9215F03FF800B1FEE703223F2102925F
:1045A0004022019140210592002306914FF4806240
:1045B00008910621039301A80493079214F074FB59
:1045C00000B1FEE77B48016841F0800101607A4854
:1045D000026842F002020260006800F002000090EF
:1045E00000990FF082FC4BB000BD38B500F0F8F830
:1045F00072490020086000F0F3F8714A136843F430
:104600000033136000F0ECF81067BFF34F8FD36EE8
:10461000C3F34E34C3F3C90543F6E07000EA441017
:1046200040EA857008612846451E0028F4D12046DE
:10463000441E0028EED1BFF34F8F106840F4803045
:10464000106000F0CDF800F069FA0FF029FCFFF7D8
:104650004FFF4FF480224FF400010020502414F04B
:1046600027FC5848016841F400710160006800F4BB
:1046700000700090009902F02FFC00F0D4FA00F0D6
:1046800011F80022042102200CF00DF84E49486078
:1046900000F008F84D480268520852000260BDE878
:1046A0003140D3E640B972B684F31188BFF34F8F1F
:1046B000BFF36F8F62B6FEE77047F8B584B04FF472
:1046C000426022F0A3FB18B10FF028F8074600E083
:1046D0000027042022F09AFB04001ABF3C48206007
:1046E0000024102022F092FB18B100F003FA0546D6
:1046F00000E0002510204FF49611364A4FF48873DD
:10470000354E0390029131460192224600934FF4B8
:10471000F073384600F09AF90446002000902768AC
:104720000123182221492046D7F87CC0E04704F134
:10473000490001210822C1760270331D6361002601
:10474000C67746702A682846136898470120256175
:1047500084F86C0005B0F0BD80B51B4900200860EE
:104760000023009048686A460CF088F8009828B149
:104770004FF08051194A116000F032F801BD00007D
:10478000941200243D16022400280258000002580A
:1047900090DC012400100050344502587C4402583B
:1047A0000020025800240258001C0258E01702247E
:1047B00018480258004402585445025850EF00E08F
:1047C00014ED00E0384502588812002400400052E1
:1047D000C4251408000000D09012002404ED00E06D
:1047E000BFF34F8FBFF36F8F70470021018041806F
:1047F0008180C1800181418181818173704710B5C1
:104800000446FFF7F2FF00202061A082204610BD81
:104810003EB5069D079C0194009500F001F83EBD51
:10482000F8B506460020069C079D306106F1340766
:104830007061B06106F11C007160B260F360FFF757
:10484000DEFF00210122796006F15000B960F960B5
:10485000396139757A75BA75B9611AF021FC06F1BA
:10486000640001210022017042700D4B8270AC4245
:10487000C1700C49027142718271C2710272C260D0
:104880004274094806600948048009480D800949B6
:104890001A70048080410D80C00F38703046F2BD20
:1048A0000413022408130224101302240613022402
:1048B0000A1302240C13022410B504461CF084F8D9
:1048C00001482060204610BD9400140810B504462D
:1048D0001CF07AF801482060204610BDC80014087A
:1048E00010B504461CF070F801482060204610BD49
:1048F000FC00140810B50446C046C046204610BD52
:1049000010B50446C046C046204610BD10B504464A
:10491000C046C046204610BD102070470048704772
:1049200024BF01000C20704700EB011008307047D5
:10493000024A514308440830704700BF24BF0100B9
:104940000C2251430844083070471CB5049C009465
:1049500000F002F816BD000030B5039C034D056061
:1049600041608260C360046130BD00BF7000140804
:104970001CB5049C009400F001F816BD38B504463F
:10498000049800902046FFF7E0FF024D2046256086
:1049900032BD00BF8000140810B50446064820440C
:1049A000FFF7B4FF04F12C00FFF7AAFF04F1140095
:1049B000FFF7A0FF204610BD58BF01007CB504469C
:1049C000134D144B2544E6182B46009604F12C0297
:1049D00004F11401FFF7CCFF0F4B04F11400236026
:1049E000FFF76AFF04F12C00FFF770FF2846FFF77E
:1049F00077FF0A48224625182946304601F03AFF3B
:104A000028460BF0DDF8304602F062F8204676BD0D
:104A100058BF01006CBF010030011408BCC0010088
:104A20007CB5094D2C786CB9BDF918409BB2009348
:104A300013460A46012601462E70A4B2281D019491
:104A400000F048F8281D76BD14DC01242DE9FC4156
:104A5000BDF92070099C0A9D0B9E0097FFF7E0FFAF
:104A600007461BF0C7FF3620C0468046FFF7F8F91F
:104A700000962B46224641461CF098FB0F4C1048EE
:104A80000460002018F01EFE201D1BF097FF0D494A
:104A9000087840B901220C480A70FFF78FFF0B4AD3
:104AA0000B4922F0D9F91BF0CBFB3A680146384696
:104AB000936D98473846BDE8F68100BF8012002408
:104AC0003C1302243C160224341B0024B413022499
:104AD000994914083EB505460798069C0190009434
:104AE0002846FFF795FE024C28462C603EBD00BFCD
:104AF000DC2414080021024B416081600360704790
:104B00009C25140810B504460348206020460AF08E
:104B100061FB204610BD00BF102114081FB50FF027
:104B200075FA00F05FF84FF0104401220194ADF8DF
:104B30000E1068468DF80D108DF80110ADF80A10B2
:104B40008DF809108DF80C200FF077FA192200F07B
:104B500057F84FF050448DF80B308DF80E1000F0E0
:104B600049F800F03FF800228DF80B106846ADF8C8
:104B70000E1002218DF80D2000F02EF8019400F0A7
:104B800039F8162200F03CF88DF80B308DF80E1035
:104B90008DF801308DF80C200FF04FFA01214FF005
:104BA00010528DF800100321019200228DF80B1095
:104BB00001218DF80F2013238DF80E1004218DF89C
:104BC0000D20684600F008F88DF8083000F012F863
:104BD00004200FF025FA1FBD8DF80A208DF809205A
:104BE0000122704701211B228DF8001000218DF851
:104BF000082070478DF801108DF80C200FF01DBAB9
:104C000001218DF8082000228DF80F2003238DF854
:104C10000D2068468DF80A208DF8092001228DF8B4
:104C200000100194704780B5012200208DF800200B
:104C30008DF801200DF037FF694600200DF0F6FEDB
:104C400028B90DF097FF10B90EF078FB08B10020DD
:104C500002BD01210CF024FE401E8041C00F02BDA8
:104C600080B507490868009008B901200860054B25
:104C70000022186869460BF093FE009802BD000000
:104C8000881200248C12002401460020842918BFB9
:104C9000C81C704780B518F0D7F9002002BD3EB59A
:104CA00004460D46B4F90800FFF7EEFF02A9009094
:104CB00001912269216860682B4692B218F0C8F809
:104CC000012801D000203EBD02983EBD80B500B94C
:104CD000012018F08CF9002002BD012910B50DD17A
:104CE0000322002101200BF0DEFC040004D000238D
:104CF000002200210BF028FD204610BD0846BDE82B
:104D000010400BF005BD80B50022009208B980204C
:104D100002BD11F1010F08BF4FF0FF3200F014F88F
:104D200059B16A4600210BF060FF01280AD10098B2
:104D300008B100F02DF8002002BD11460BF0B1FEC5
:104D40000128F8D0FF2002BD01D001B10A46EFF3DF
:104D5000058170471CB500F015F849B169460BF0A4
:104D6000D2FD01280CD1009840B100F011F805E007
:104D700000230BF0E9FC012818BFFF24204616BDD4
:104D8000FF2016BD002200240092EFF3058170473A
:104D90004FF08051DFF810211160BFF34F8FBFF348
:104DA0006F8F704780B5EFF3058109B1822002BD96
:104DB0000BF05FFF002002BD4168006800220BF08D
:104DC00072BC03B581B00021009102B90122EFF35A
:104DD000058149B100F044F801280BD1009808B1D1
:104DE000FFF7D6FF00200EBD002302A90BF0ACFC9C
:104DF0000128F7D0FF200EBDF8B5054684B008465F
:104E000000230290019310B900F02FF826E000F083
:104E100034F808BF4FF0FF3400F035F849B103AA69
:104E200001A90BF0E2FE012806BF102200920097B4
:104E300008E0224601A90BF0B3FD012807D110219B
:104E4000009109E0039838B1FFF7A2FF04E0002CBD
:104E50000CBF00204020009000F028F805B0F0BD05
:104E600000236A4602A90BF009BD80216A46009121
:104E700092E8580085E8580070470024002712F196
:104E8000010F0397704701D002B11446EFF305817B
:104E9000704780B518F0D4FA012803D0BDE801406E
:104EA0000BF077BB01BD000004ED00E0684690E820
:104EB0000E0085E80E0070477CB505460E4695F855
:104EC0002400002820D100F0C9F99DF800200446F4
:104ED0000123022105F1180042F001028DF80020A3
:104EE0006A4600F081FA04197F208DF8000000F076
:104EF00042F900F0ECF900F0B8F900F0BEF904193D
:104F0000012085F8240013E07E2101238DF8001094
:104F100000F079F9044600F0A9F900F0AEF900F0CC
:104F200078F900F07EF900F098F900F088F904199A
:104F300000F09CF9041900F08FF800F00E0040F02A
:104F4000A0008DF8000000F0C2F904190C2000F058
:104F500072F8042100F0BBF90419032000F06BF88B
:104F6000052100F0B4F90419AF2000F064F806211F
:104F700000F0ADF90419C3208DF8000000F0EBF942
:104F80000419422000F057F8092100F0A0F9041993
:104F9000D02000F050F80A2100F099F900F057F8FD
:104FA0000B2100F094F900F04BF80C2100F08FF980
:104FB00000F04DF80D2100F08AF90419802000F06E
:104FC0003AF80E2100F083F900F041F80F2100F0CB
:104FD0007EF900F035F8102100F079F900F037F88B
:104FE000112100F074F900F032F8182100F06FF987
:104FF00004193079C1070FD530696A4664282EBF7D
:105000000020400038308DF80000012300F05EF9E8
:10501000041900F060F90419402001238DF8000004
:105020006A461C2100F053F90419716830684B4A34
:1050300001431160E2E08DF8000001236A467047E9
:10504000041900208DF8000001236A4670470419F6
:1050500001236A46704786199DF8000001236A46BD
:105060000321704790F82410012904BF002280F822
:1050700024200020704738B504460D46206880473C
:1050800001236A46012104F1180000F0A7F99DF8F8
:105090000010296032BD7CB5304D00262A780446C8
:1050A000D30714D5002100F034F9422206468DF8CA
:1050B000002001236A46092100F056F800F070F83C
:1050C00000F056F800F09F0000F04CF886192868B0
:1050D000410510D5002200F052F800F061F800F010
:1050E00047F800F03DF800F053F88619FFF7B6FFD7
:1050F00000F03AF886192868C10511D5322200F06F
:105100003EF800F04DF800F033F800F0F50000F044
:1051100029F800F03DF8FFF79EFF00F021F886190E
:105120002868810510D500F03CF800F021F800F067
:10513000EB0000F017F800F02BF8FFF78CFF00F001
:10514000F50000F00FF8861900F02BF800F010F8C9
:1051500000F0FE0000F006F8801976BDA0DD012405
:1051600000F0F9008DF8000004F1180000F03CB9DF
:1051700086199DF8000001236A4602217047012329
:105180008DF800206A46072104F1180000F02CB9C0
:10519000861901236A46032104F1180000F01EB9A4
:1051A000861901236A46022104F1180000F016B99D
:1051B00080B5012100F0ADF808B14FF0FF3002BD1D
:1051C0000021A6E07CB50E460546012100F0A1F8BD
:1051D000012E044612D07E2201238DF8002000F01B
:1051E00012F800F042F800F048F800F012F800F071
:1051F00018F800F032F800F022F804190CB14FF062
:10520000FF34204676BD6A46022105F1180000F001
:10521000EBB8041901236A46092105F1180000F0D2
:10522000DDB804199DF8000001236A46092100F049
:10523000FC008DF8000005F1180000F0D5B8041945
:105240009DF8000001236A46022140F001008DF81C
:10525000000005F1180000F0C7B8041901236A46E0
:10526000022105F1180000F0B9B8041901236A46BB
:10527000032105F1180000F0B1B804199DF80000F1
:1052800001236A46032140F00E008DF8000005F16D
:10529000180000F0A9B8012938B5054612D1642AD2
:1052A00003D300218DF8001003E0520038328DF84E
:1052B000002001236A4600F009F8044600F00BF8CC
:1052C000041901D04FF0FF34204632BD162105F1FC
:1052D000180000F089B801236A46172105F118006B
:1052E00000F082B801291CB5144602D04FF0FF30FF
:1052F00016BD01236A461621183000F06FF89DF89C
:105300000020002A0EBF6421A2F138014908217053
:1053100016BD7CB505460E4601236A46082105F1F7
:10532000180000F05BF8012E044606D19DF800102D
:1053300041F003018DF8001005E09DF8002002F017
:10534000FC028DF8002000F006F8041918BF4FF099
:10535000FF34204676BD01236A46082105F1180076
:1053600000F042B801E0000000BF4FF0FF3070478E
:10537000FBE7FAE7F9E7F8E7F7E710B504466068F6
:10538000804721688847002010BD38B54FF0FF32B4
:10539000B0B10B6803604C6844600D890581CB682F
:1053A000C3600C69046149690FF219030FF221040B
:1053B0004161C36184610062006808B180470246B0
:1053C000104632BD10B5044620892469A04710BD9F
:1053D00010B504462089E468A04710BD10B5044606
:1053E000A0686468A04710BD10B50446A068246892
:1053F000A04710BD0146144A531802EB8101187AE8
:105400004A6853681847104B0246995C00200029EF
:1054100000D0704703EB820110B501249C549C1806
:105420004A68207A1368BDE81040184770B500F04C
:1054300003F8AE68B04770BD0446034D2E1905EB66
:105440008404307A65687047F8E101242DE9F04161
:105450000D4604462F462646387890B1002410E0C9
:1054600000240DE02F4604B1661C307822F035F898
:105470000446387822F031F88442F1D134467F1C5A
:10548000761C307878B1397869B122F026F88046F8
:10549000387822F022F88045E4D1002CEFD1EDE7F6
:1054A0002046BDE8F0813878002818BF0024F7E7CF
:1054B00080B5002017F045FB0028BDE8024014BF6E
:1054C0000020012017F061BB38B57B4C01462278E3
:1054D00042B90122201D00F0EDFE80B90121201DFE
:1054E000217032BD607850B904F50A750122284652
:1054F00000F0E0FE18B901206070284632BD00209F
:1055000032BD10B56C4C0146221D914205D1201DC3
:1055100000F0C3FF0021217010BD04F50A70814224
:1055200003D100F0BAFF0020607010BD80B56B465B
:1055300000F014FF009802BD00F0B1BF2DE9F84F54
:105540009246D4B005468846FF2299460E922946D7
:1055500002A8002601F074F80028584F07F582745D
:1055600000F08C8002A801F0B8F8206810F1010F5B
:1055700003D16168504600F095F8206810F1010FE2
:105580000CBF6068304676E0FF21484621F0C0FB42
:105590002068401C206007DCFF21384621F0B8FB62
:1055A0000199384621F05AFF384621F067FF054639
:1055B0000DF14E034FEA070245A1484621F02EFFA8
:1055C0004946384621F02AFF009B5246414648464C
:1055D0009B1BFFF7B3FF20680021401E2060795518
:1055E0000EA902A801F089F80028BBD19DF84E0051
:1055F0000028B7D02E28F3D032A10DF14E0021F0B3
:1056000061FB0028ECD09DF84000C106BCD44146A7
:105610000DF14E00FFF71AFF0028E1D06568332036
:10562000002168430AEB000B8BF832102268002A35
:1056300005DD484621F022FF0246494604E038468F
:1056400021F01CFF0246394658466D1C21F031FFFF
:105650000122584617A121F02CFF4846761C21F064
:105660000DFFC0F1310002460DF14E01584621F008
:1056700020FF6560B4E755B0BDE8F08F0195CDF827
:10568000009007F58679ABE790F8323091F8322038
:105690001BB12AB94FF0FF3070470AB101207047A3
:1056A00021F010BB80B5064B332221F088FE01208B
:1056B00002BD00002F000000A4DD0124E012002440
:1056C0008956140853595354454D7E31000000004B
:1056D00025732F25730000004178007807E0827859
:1056E000C17842EA01224178007841EA022140EA89
:1056F0000120704702781AB18A4218BF401CF9D1C4
:1057000010467047002800D1704780B5006917F037
:1057100082FA00B1012002BD00281CBF0C290B2910
:1057200004D00F291CBF006917F07FBA7047F8B585
:1057300004460D46E76A0026BD420BD0607801237F
:105740002A4604F13001FFF771FE10B14FF0FF352A
:105750000126E5623046F2BD4269891E921E9142E1
:1057600001D3002070474289806A02FB010108468C
:1057700070472DE9F0410C46022C056852D3686948
:1057800084424FD22A784FF0FF36012A04D049D301
:10579000032A36D025D345E0296A04EB540728466E
:1057A00001EB5721FFF7C3FF00283CD1296A05F11F
:1057B0003002C7F308007F1C01EB572112F800806C
:1057C0002846FFF7B4FF70BB05F13000C7F30807A8
:1057D000C15DE20748EA012654BFC6F30B0636094D
:1057E00021E0296A284601EB1421FFF7A0FFD0B978
:1057F00005F13000240600EBD450FFF76DFF06469C
:1058000011E0296A284601EBD411FFF790FF50B947
:1058100005F13000640600EBD450FFF760FF20F084
:10582000704600E001263046BDE8F081026A00685B
