:020000040800F2
:100000000000042409070008053D0008133D00080E
:10001000193D00081F3D0008253D000800000000B4
:100020000000000000000000000000004150010836
:100030002B3D0008000000009152010819430108FF
:100040005907000859070008590700085907000810
:100050005907000859070008590700085907000800
:10006000393D0008590700085907000859070008DA
:1000700059070008590700085907000859070008E0
:100080005907000859070008493D000859070008AA
:1000900059070008590700085907000859070008C0
:1000A00059070008590700085907000859070008B0
:1000B00059070008590700085907000859070008A0
:1000C0005907000859070008590700085907000890
:1000D0005907000859070008590700085907000880
:1000E0005907000859070008590700085907000870
:1000F0005907000859070008590700085907000860
:10010000590700085907000859070008590700084F
:1001100059070008590700085D3D00085907000805
:10012000590700085907000859070008590700082F
:1001300059070008000000000000000059070008EF
:10014000590700085907000859070008590700080F
:1001500059070008590700085907000859070008FF
:1001600059070008590700085907000859070008EF
:1001700059070008590700085907000859070008DF
:1001800059070008590700085907000859070008CF
:1001900059070008590700085907000859070008BF
:1001A000713D000859070008853D000859070008FF
:1001B000993D000859070008590700085907000829
:1001C000590700085907000800000000000000005F
:1001D00000000000000000005907000800000000B7
:1001E000000000000000000000000000000000000F
:1001F000000000000000000059070008590700082F
:1002000059070008590700080000000059070008B6
:10021000590700085907000859070008590700083E
:100220005907000859070008590700080000000096
:100230005907000859070008000000005907000886
:10024000590700085907000859070008590700080E
:1002500059070008590700085907000859070008FE
:1002600059070008590700085907000859070008EE
:100270005907000859070008590700080000000046
:100280005907000859070008000000005907000836
:100290000000000059070008590700085907000826
:0C02A0005907000859070008590700081A
:1002B00010B5054C237833B9044B13B10448AFF3A0
:1002C00000800123237010BD1001002400000000F5
:1002D0006CC9020808B5034B1BB103490348AFF3CF
:1002E000008008BD00000000140100246CC9020851
:1002F00001F0FF01102A2BDB10F0070F08D010F8D7
:10030000013B013A8B422DD010F0070F42B3F6D1DA
:10031000F0B441EA012141EA014122F007047FF0F3
:1003200000070023F0E80256083C85EA010586EA4A
:10033000010685FA47F5A3FA87F586FA47F6A5FA86
:1003400087F68EB9EED1F0BC01F0FF0102F0070292
:1003500032B110F8013B013A83EA010313B1F8D13D
:100360000020704701387047002D06BF354603381E
:10037000073815F0010F07D1013015F4807F02BF57
:10038000013015F4C03F0130F0BC0138704700BFA8
:1003900081F0004102E000BF83F0004330B54FEA36
:1003A00041044FEA430594EA050F08BF90EA020FA3
:1003B0001FBF54EA000C55EA020C7FEA645C7FEA36
:1003C000655C00F0E2804FEA5454D4EB5555B8BF59
:1003D0006D420CDD2C4480EA020281EA030382EACA
:1003E000000083EA010180EA020281EA0303362D5C
:1003F00088BF30BD11F0004F4FEA01314FF4801C2F
:100400004CEA113102D0404261EB410113F0004F40
:100410004FEA03334CEA133302D0524263EB4303F7
:1004200094EA050F00F0A780A4F10104D5F1200E95
:100430000DDB02FA0EFC22FA05F2801841F10001F0
:1004400003FA0EF2801843FA05F359410EE0A5F1C4
:1004500020050EF1200E012A03FA0EFC28BF4CF0F5
:10046000020C43FA05F3C01851EBE37101F00045AB
:1004700007D54FF0000EDCF1000C7EEB00006EEBB8
:100480000101B1F5801F1BD3B1F5001F0CD3490842
:100490005FEA30004FEA3C0C04F101044FEA445299
:1004A00012F5800F80F09A80BCF1004F08BF5FEA20
:1004B000500C50F1000041EB045141EA050130BD00
:1004C0005FEA4C0C404141EB0101013C28BFB1F512
:1004D000801FE9D291F0000F04BF01460020B1FA5D
:1004E00081F308BF2033A3F10B03B3F120020CDA30
:1004F0000C3208DD02F1140CC2F10C0201FA0CF00E
:1005000021FA02F10CE002F11402D8BFC2F1200C72
:1005100001FA02F120FA0CFCDCBF41EA0C01904028
:10052000E41AA2BF01EB0451294330BD6FEA040471
:100530001F3C1CDA0C340EDC04F11404C4F120025C
:1005400020FA04F001FA02F340EA030021FA04F36E
:1005500045EA030130BDC4F10C04C4F1200220FAC5
:1005600002F001FA04F340EA0300294630BD21FA03
:1005700004F0294630BD94F0000F83F4801306BFC9
:1005800081F480110134013D4EE77FEA645C18BFBD
:100590007FEA655C29D094EA050F08BF90EA020F54
:1005A00005D054EA000C04BF1946104630BD91EA4C
:1005B000030F1EBF0021002030BD5FEA545C05D14F
:1005C0004000494128BF41F0004130BD14F580048E
:1005D0003CBF01F5801130BD01F0004545F0FE4102
:1005E00041F470014FF0000030BD7FEA645C1ABF37
:1005F000194610467FEA655C1CBF0B46024650EA6E
:10060000013406BF52EA033591EA030F41F4002199
:1006100030BD00BF90F0000F04BF0021704730B51F
:100620004FF4806404F132044FF000054FF00001F4
:1006300050E700BF90F0000F04BF0021704730B5B5
:100640004FF4806404F1320410F0004548BF40428A
:100650004FF000013EE700BF42004FEAE2014FEADF
:1006600031014FEA02701FBF12F07F4393F07F4FBA
:1006700081F06051704732F07F4208BF704793F0BD
:100680007F4F04BF41F40021704730B54FF46074D0
:1006900001F0004521F000411CE700BF50EA0102D3
:1006A00008BF704730B54FF000050AE050EA01027C
:1006B00008BF704730B511F0004502D5404261EBEC
:1006C00041014FF4806404F132045FEA915C3FF42D
:1006D000D8AE4FF003025FEADC0C18BF03325FEACA
:1006E000DC0C18BF033202EBDC02C2F1200300FA7B
:1006F00003FC20FA02F001FA03FE40EA0E0021FAA0
:1007000002F11444BDE600BFDFF834D0002103E05D
:100710000C4B5B58435004310B480C4B42189A4227
:10072000F6D30B4A02E0002342F8043B094B9A42FD
:10073000F9D30AF027FE2BF0E9F802F049FA7047E6
:1007400000000424481E03080000002410010024B7
:100750001001002448CF0024FEE780B500AF01F06F
:100760000FFD00BF80BD80B582B000AF786001F0A2
:1007700031FD00BF0837BD4680BD000080B483B0A6
:1007800000AF7860044A7B681A607B6818460C37B3
:10079000BD465DF8047B704780D8020880B582B002
:1007A00000AF78607868FFF7E9FF042178682AF0E5
:1007B0008EFE7B6818460837BD4680BD80B586B082
:1007C00000AF786008233B6100237B61074B1B88E7
:1007D000BB60074B1B88FB6007F10803194600202C
:1007E0000AF0B2FB00BF1837BD4680BDB6C8002472
:1007F000B8C8002480B588B000AFF860B9607A60EE
:1008000007F1100300221A605A609A6007F1100382
:10081000194600200AF03EFC0346002B14BF0123BA
:100820000023DBB2002B0AD04FF0500383F3118872
:10083000BFF36F8FBFF34F8FFB6100BFFEE73B69D4
:10084000002B09D07B691A46BB681A60BB691A463F
:100850007B681A60012300E0002318462037BD465C
:1008600080BD000080B582B000AF7860054A7B682B
:100870001A607B681846FFF781FF7B6818460837C7
:10088000BD4680BD68D8020880B582B000AF7860F0
:100890007868FFF7E7FF042178682AF018FE7B6884
:1008A00018460837BD4680BD80B582B000AF03460C
:1008B000FB71FB79032B31D801A252F823F000BF62
:1008C000D1080008EB080008030900081109000816
:1008D00001224FF4006113480DF06CF901224FF42E
:1008E000805110480DF066F918E0012204210D48EE
:1008F0000DF060F901224FF480410A480DF05AF9D9
:100900000CE001224FF4004106480DF053F905E0D8
:100910000122012103480DF04DF900BF00BF083747
:10092000BD4680BD0018025880B582B000AF0346B6
:10093000FB71FB79032B31D801A252F823F000BFE1
:10094000510900086B090008830900089109000893
:1009500000224FF4006113480DF02CF900224FF4EF
:10096000805110480DF026F918E0002204210D48AE
:100970000DF020F900224FF480410A480DF01AF9D9
:100980000CE000224FF4004106480DF013F905E099
:100990000022012103480DF00DF900BF00BF083708
:1009A000BD4680BD0018025880B582B000AF034636
:1009B000FB71FB79032B2BD801A252F823F000BF67
:1009C000D1090008E7090008FB090008070A000828
:1009D0004FF4006110480DF006F94FF480510E48B5
:1009E0000DF001F914E004210B480DF0FCF84FF470
:1009F000804109480DF0F7F80AE04FF4004106483D
:100A00000DF0F1F804E0012103480DF0ECF800BF0F
:100A100000BF0837BD4680BD0018025880B483B0BF
:100A200000AF7860044A7B681A607B6818460C3710
:100A3000BD465DF8047B704764EB020880B582B068
:100A400000AF78607868FFF7E9FF7C2178682AF0CA
:100A50003EFD7B6818460837BD4680BD80B483B034
:100A600000AF78600B46FB707B68FA7883F87420DF
:100A70007B68012283F8752000BF0C37BD465DF806
:100A8000047B704780B582B000AF78600B467B80F6
:100A900013463B800C4B1B887A889A4204D30B4B3D
:100AA0001B883A889A4205D2094B0A4A9E210A4875
:100AB0002AF0E2FE094A7B881380094A3B881380AA
:100AC00000BF0837BD4680BDB0C80024B2C80024AE
:100AD00088C90208ECC9020830CA0208B6C8002456
:100AE000B8C8002480B582B000AF78607B6893F806
:100AF0007730002B09D07B685A687B685B681B687D
:100B00001B6810469847034600E000231846083744
:100B1000BD4680BD80B582B000AF7860786818F0BF
:100B200015FB7B681B68A4331B687868984700BF77
:100B30000837BD4680BD80B483B000AF78603960AF
:100B4000002318460C37BD465DF8047B7047000053
:100B500080B584B000AFF860B9607A603B60BB6874
:100B6000002B06D1114B124A4FF42B7111482AF079
:100B700083FEFB68BA68DA63FB687A681A64FB680C
:100B80003A685A647B68002B14BF01230023DAB251
:100B9000094B1A703B68002B14BF01230023DAB203
:100BA000064B1A7000BF1037BD4680BD78CA0208D8
:100BB000B0CA020830CA0208BAC80024BBC8002460
:100BC00080B483B000AF7860002318460C37BD4670
:100BD0005DF8047B704780B582B000AF78600B464B
:100BE0007B807B689B6B002B04D07B689B6B7A8837
:100BF0001046984700BF0837BD4680BD80B483B01B
:100C000000AF78604FF6FF7318460C37BD465DF8AD
:100C1000047B704780B582B000AF78607B685A680B
:100C20007B685B681B6818331B681046984703464F
:100C300018460837BD4680BD80B485B000AF7860E7
:100C40007B6893F874207B6893F834309A4211D013
:100C5000144B1B78002B1ED1134B1B88BB81134BED
:100C60001A88114B1A80114ABB8913800D4B01223F
:100C70001A7010E00B4B1B78002B0CD00A4B1B8812
:100C8000FB810A4B1A88084B1A80084AFB8913809B
:100C9000044B00221A7000BF1437BD465DF8047B78
:100CA000704700BFB4C80024B2C80024B0C80024F4
:100CB00080B582B000AF78607B68184617F0FCFB07
:100CC00000BF0837BD4680BD80B582B000AF7860F8
:100CD000054A7B681A607B681846FFF79FFE7B68B1
:100CE00018460837BD4680BDE8DB020880B582B0F3
:100CF00000AF78607868FFF7E7FF7C2178682AF01A
:100D0000E6FB7B6818460837BD4680BD80B582B0DB
:100D100000AF78607B681846FFF7CAFF00BF08374E
:100D2000BD4680BD80B582B000AF78607B68184654
:100D300001F040FD00BF0837BD4680BD80B582B0E0
:100D400000AF78607B681B687C331B6878689847C5
:100D50007B681B6874331B687868984700F056F905
:100D60007A687B681B686C331B68104698470022C2
:100D700080210B480CF01EFF0122042109480CF0D1
:100D800019FF0122022107480CF014FF00F03EF980
:100D90007A687B681B686C331B6810469847F5E7D8
:100DA000002802580000025880B582B000AF786079
:100DB0007B68184601F096FD034618460837BD4685
:100DC00080BD80B582B000AF786039607B683968DB
:100DD000184601F095FD00BF0837BD4680BD0000F4
:100DE00080B586B000AF786039607B683968184696
:100DF00001F09CFD204B0022C3F88420BFF34F8FED
:100E000000BF1D4BD3F880307B617B695B0BC3F364
:100E10000E033B617B69DB08C3F30903FB603B699D
:100E20005A0143F6E0731340FA68920712491343DC
:100E3000C1F87432FB685A1EFA60002B14BF0123FC
:100E40000023DBB2002B00D0E9E73B695A1E3A6170
:100E5000002B14BF01230023DBB2002B00D0D9E705
:100E6000BFF34F8F00BFBFF36F8F00BF00BF00BF46
:100E70001837BD4680BD00BF00ED00E080B582B0F0
:100E800000AF78607B68184601F0B8FC00BF0837F7
:100E9000BD4680BD80B582B000AF78607B681846E3
:100EA00001F0BCFC00BF0837BD4680BD80B582B0F4
:100EB00000AF78607B68184601F0BEFC00BF0837C1
:100EC000BD4680BD80B582B000AF78607B681846B3
:100ED00001F0C0FC00BF0837BD4680BD80B582B0C0
:100EE00000AF7860054A7B681A607B681846FFF798
:100EF000EBFE7B6818460837BD4680BD98D80208CF
:100F000080B582B000AF78607868FFF7E7FF7C219A
:100F100078682AF0DCFA7B6818460837BD4680BD41
:100F200080B500AF00220121012013F006FB03462B
:100F30000F4A13600E4B1B68002B05D10D4B0E4A58
:100F400029210E482AF098FC00220421012013F0E8
:100F500013FC03460A4A1360094B1B68002B05D19A
:100F6000084B054A2D2105482AF086FC00BF80BDAC
:100F70002C01002400CB02084CCB02087CCB0208D9
:100F800030010024F8CB020880B500AF044B1B6889
:100F90004FF0FF31184613F059FB00BF80BD00BF72
:100FA0002C01002480B500AF034B1B68184613F0DA
:100FB0009FFB00BF80BD00BF2C01002480B500AFA7
:100FC000034B1B680021184613F040FB00BF80BD97
:100FD0002C01002480B500AF034B1B68184613F0AA
:100FE00087FB00BF80BD00BF2C01002480B500AF8F
:100FF000044B186800230022034913F031FC00BFA2
:1010000080BD00BF300100240400002480B582B000
:1010100000AF094B1868391D0023002213F080FC33
:10102000054B1868391D4FF0FF33002213F078FC90
:1010300000BF0837BD4680BD3001002480B483B0B6
:1010400000AF0346FB80B7F90630002B0BDBFB88B3
:1010500003F01F020749B7F906305B09012000FAC7
:1010600002F241F8232000BF0C37BD465DF8047B37
:10107000704700BF00E100E080B483B000AF0346DA
:10108000FB80B7F90630002B12DBFB8803F01F0250
:101090000A49B7F906305B09012000FA02F2203351
:1010A00041F82320BFF34F8F00BFBFF36F8F00BF06
:1010B00000BF0C37BD465DF8047B704700E100E0DF
:1010C00080B483B000AF78607B6800221A607B68D0
:1010D00018460C37BD465DF8047B704780B483B07A
:1010E00000AF78607B681B6818460C37BD465DF81A
:1010F000047B704780B483B000AF7860044A7B689B
:101100001A607B6818460C37BD465DF8047B704753
:10111000B8D9020880B582B000AF78607868FFF770
:10112000E9FF042178682AF0D2F97B68184608376D
:10113000BD4680BD80B582B000AF78607B681B681B
:1011400044331B687868984700BF0837BD4680BDA8
:1011500080B483B000AF7860044A7B681A607B6813
:1011600018460C37BD465DF8047B7047BCF002089A
:1011700080B582B000AF78607868FFF7E9FF0C2196
:1011800078682AF0A4F97B6818460837BD4680BD08
:1011900080B483B000AF78603960094A7B681A6018
:1011A0007B683A685A607B6800221A727B6800226A
:1011B0005A727B6818460C37BD465DF8047B704751
:1011C000BCF0020880B483B000AF786001231846F9
:1011D0000C37BD465DF8047B704780B582B000AF28
:1011E00078607A687B681B6828331B6810469847CC
:1011F00000BF0837BD4680BD80B400AF034B1B68FD
:101200001846BD465DF8047B704700BFBCC800248B
:1012100080B582B000AF78607B685A687B685B6895
:101220001B6814331B681046984700BF0837BD463B
:1012300080BD80B582B000AF7860FFF7DDFF034668
:101240001846FFF7E5FF00BF0837BD4680BD80B5F3
:1012500082B000AF78607B680C331846FFF730FF30
:101260007B6818460837BD4680BD0000B0B582B027
:1012700000AF78607A687B680C3319461046FFF738
:1012800087FF0E4A7B681A607B6803F10C007B685D
:1012900020336022194618F0BFF87B6820335F24A2
:1012A0001D46002C05DB2846FFF7D1FF2035013C09
:1012B000F7E77B6818460837BD46B0BD68D9020815
:1012C00080B582B000AF7860094A7B681A605A2006
:1012D000FFF7D2FE7B680C33184600F0B1FA7B684A
:1012E0001846FFF735FF7B6818460837BD4680BDB6
:1012F00068D9020880B582B000AF78607868FFF7DF
:10130000DFFF4FF4426178682AF0E1F87B68184605
:101310000837BD4680BD000080B584B000AF78605E
:10132000124BD3F83431114A43F01003C2F8343170
:101330000E4BD3F8343103F01003FB60FB680B4B0A
:10134000DB6F0A4A43F01003D367084BDB6F074A91
:1013500023F01003D367064B064A1A625A20FFF7A0
:101360006DFE00BF1037BD4680BD00BF004402586F
:1013700060CC00243312000880B584B000AF7860E0
:101380000B46FB700023FB60FB780B2B26D801A2D9
:1013900052F823F0D1130008CB130008C51300083E
:1013A000DD130008DD130008DD130008DD1300085D
:1013B000D7130008D7130008D7130008D713000865
:1013C000D71300080023FB600EE00123FB600BE055
:1013D0000223FB6008E00523FB6005E0054B064A9D
:1013E000672106482AF048FAFB6818461037BD46C0
:1013F00080BD00BF3CCC020858CC0208A4CC020837
:1014000080B584B000AF78600B46FB700023FB60B2
:10141000FB780A2B21D801A252F823F055140008BA
:101420004F140008491400085B1400085B140008FE
:101430005B1400085B1400084F1400084F140008E8
:101440004F1400084F1400080023FB600BE0012339
:10145000FB6008E00223FB6005E0054B054A88219C
:1014600005482AF009FAFB6818461037BD4680BDCA
:101470003CCC02081CCD0208A4CC020880B483B086
:1014800000AF786040F2EF3318460C37BD465DF888
:10149000047B704790B589B000AF786039603B68D5
:1014A0005B7F19467868FFF767FFB8613B689B7FF1
:1014B00019467868FFF760FF78613B689B7F1946A3
:1014C0007868FFF79DFF38613B685B8B1A463B6885
:1014D0009B8AD21A974B1A643B685B8B1A463B680F
:1014E0009B8AD21A934B9A613B681B8B1A463B68C6
:1014F0009B8AD21A8F4B1A618E4A3B6953633B68B1
:10150000DB8A1A463B689B8A1B041A43894B5A6440
:101510003B681A69874BDA633B685A68854BDA6027
:101520003B681B68B3F5007F37D0B3F5007F00F24E
:10153000E380B3F5807F15D0B3F5807F00F2DC80C7
:10154000802B45D0802B00F2D780402B00F0BF804D
:10155000402B00F2D180042B00F0A480202B00F05F
:10156000B680C9E03B681B7F1B061946714A724B67
:101570000B43D3613B680C336E4C1846FFF7AEFD4E
:10158000034623626B4A7B6953623B681A69694B65
:101590005A61684B694A1A60C7E03B681B7F1B06AB
:1015A0001946644A664B0B43D3613B680C33614C6C
:1015B0001846FFF793FD034623625E4A7B69536238
:1015C0003B681A695B4B5A615A4B5C4A1A60ACE043
:1015D0003B689B68FB600123FB773B681B7F1B0616
:1015E0001A46BB691343534A43F40033D361514A4B
:1015F0007B6953623B681A694E4B5A61FB681A1D3E
:101600004C4BDA62FB681B88DBB2002B02D0012B4B
:101610000DD020E0474BDA694A4B1340FA685288F4
:10162000013A12021146434A0B43D3611AE03B6868
:101630001B7FFF2B01D10023FB773E4BDA69414B27
:101640001340FA685288013A12021343394A43F0B0
:101650001003D36106E03C4B3C4A4FF481713C4897
:101660002AF00AF9334BDB69324A43F02003D36195
:10167000304BDB6903F02003002B14BF0123002350
:10168000DBB2002B00D0F3E72A4B10229A60FB7FDD
:10169000002B03D0274B294A1A6046E0254B2D4AE0
:1016A0001A6042E03B681B7F1B061A46BB69134366
:1016B000204A43F40033D3611E4A7B6953623B687E
:1016C0001A691C4B5A611B4B1C4A1A602DE03B687F
:1016D0001B7F1B061A46BB691343164A43F40033AB
:1016E000D361144A7B6953623B681A69114B5A6192
:1016F000104B124A1A6018E03B681B7F1B061A4603
:10170000BB6913430B4A43F40033D3613B685A7FF0
:101710003B689B7F9A4203D0064B0E4A1A6003E057
:10172000044B40F201221A6000BF00BF2437BD46BF
:1017300090BD00BF001000520A000200010202002A
:1017400009000200EF00FFFF68CD020884CD020807
:10175000A4CC02080102010090B585B000AF78600A
:1017600039603B689B7F19467868FFF749FEF8604F
:101770002F4AFB6853633B68DB8A1A463B689B8AA7
:101780001B041A432A4B5A643B681A69284BDA63D4
:101790003B685B8B1A463B689B8AD21A244B1A64BF
:1017A0003B681B68082B2ED13B685B8B1A463B6855
:1017B0009B8AD21A1E4B9A613B685B8B1A463B6828
:1017C0009B8AD21A1A4B1A61194AFB6853623B680A
:1017D0001B7F1B061946164A164B0B43D3613B6809
:1017E0000C33134C1846FFF779FC034623623B6821
:1017F0001A690F4B5A613B681A690D4BDA600C4B42
:101800000D4A1A6010E00A4AFB68D361084B0022B7
:101810001A613B680C33064C1846FFF75FFC034621
:10182000A363034B054A1A6000BF1437BD4690BD41
:101830000010005209000100010202000102030031
:1018400080B582B000AF7860054A7B681A607B681B
:101850001846FFF74FFC7B6818460837BD4680BD29
:101860000CF1020880B582B000AF78607868FFF7AD
:10187000E7FF1421786829F02AFE7B6818460837AC
:10188000BD4680BD80B483B000AF78607B68002225
:101890001A807B6800225A807B6800229A807B68CD
:1018A0000022DA807B6818460C37BD465DF8047B61
:1018B0007047000080B483B000AF7860044A7B6852
:1018C000136000BF0C37BD465DF8047B704700BF56
:1018D00038C9002480B483B000AF7860044A7B68C4
:1018E0001A607B6818460C37BD465DF8047B70476C
:1018F000D4DB020880B582B000AF78607868FFF76B
:10190000E9FF0421786829F0E2FD7B681846083772
:10191000BD4680BD80B485B000AFF860B9607A6024
:101920003B600B4AFB681A60FB68BA685A60FB6848
:101930007A689A60FB683A68DA60FB68BA691A618B
:10194000FB6818461437BD465DF8047B704700BF3E
:10195000C4DB020880B483B000AF7860044A7B68BF
:101960001A607B6818460C37BD465DF8047B7047EB
:10197000C4DB020880B582B000AF78607868FFF7FA
:10198000E9FF1421786829F0A2FD7B681846083722
:10199000BD4680BD80B483B000AF7860396000BFC1
:1019A0000C37BD465DF8047B704780B483B000AF50
:1019B0007860396000BF0C37BD465DF8047B704726
:1019C00080B483B000AF7860396000BF0C37BD468B
:1019D0005DF8047B704780B483B000AF78600B463D
:1019E000FB7000BF0C37BD465DF8047B704780B4C8
:1019F00083B000AF786000BF0C37BD465DF8047B54
:101A0000704780B483B000AF786000BF0C37BD462C
:101A10005DF8047B7047000080B483B000AF78604D
:101A2000044A7B681A607B6818460C37BD465DF82F
:101A3000047B70479CDB020880B582B000AF786001
:101A40007868FFF7E9FF0421786829F040FD7B689A
:101A500018460837BD4680BD80B483B000AF7860BB
:101A6000044A7B681A607B6818460C37BD465DF8EF
:101A7000047B7047E002030880B582B000AF786055
:101A80007868FFF7E9FF0821786829F020FD7B6876
:101A900018460837BD4680BD80B483B000AF78607B
:101AA0000B46FB7000BF0C37BD465DF8047B7047EA
:101AB00080B483B000AF786039607B683A6803F522
:101AC00096731068516803C300BF0C37BD465DF8BC
:101AD000047B704780B483B000AF7860044A7B68B1
:101AE0001A607B6818460C37BD465DF8047B70476A
:101AF00084DB020880B582B000AF78607868FFF7B9
:101B0000E9FF0421786829F0E2FC7B681846083771
:101B1000BD4680BD80B483B000AF78607B68002292
:101B20001A807B6800225A807B6800229A807B683A
:101B30000022DA807B6800221A817B6800225A81A9
:101B40007B6800229A817B6800229A737B68184622
:101B50000C37BD465DF8047B704780B582B000AF9E
:101B600078607B681846FFF7D5FF7B6800221A6112
:101B70007B6800229A827B6818460837BD4680BD84
:101B800080B584B000AFF860B9607A603B60554AB8
:101B9000FB681A60FB68BA685A60FB687A689A60EA
:101BA000FB683A68DA60FB6800221A61FB68002271
:101BB0005A61FB6800229A61FB681C331846FFF7E4
:101BC000CCFFFB68002283F83420FB6800229A6374
:101BD000FB680022DA63FB6800221A64FB680022BB
:101BE0005A64FB68002283F84820FB68012283F8CE
:101BF0004920FB68002283F84A20FB68002283F812
:101C00004B20FB680022DA64FB6850331846FFF76C
:101C100039FEFB6800229A65FB680022DA65FB68E2
:101C200000221A66FB68012283F86420FB68002208
:101C300083F86520FB68002283F86620FB68012298
:101C400083F86720FB68002283F86820FB68002285
:101C500083F86920FB68002283F86A20FB68002271
:101C600083F86B20FB68002283F86C20FB6800225D
:101C70001A67FB68002283F87420FB68002283F84F
:101C80007520FB68002283F87620FB68012283F828
:101C90007720FB68012283F87820134AFB681360E1
:101CA000124A3B8B1380114B1A88114B1A80114A30
:101CB000BB8B13800F4B1A880F4B1A800F4B0022DF
:101CC0001A703A8BBB8B9A4234BF01230023DBB2DC
:101CD0001A46FB6883F83420FB6818461037BD4667
:101CE00080BD00BF64EB0208BCC80024B0C800245B
:101CF000B6C80024B2C80024B8C80024B4C8002460
:101D000080B582B000AF7860054A7B681A607B6856
:101D10001846FFF781FE7B6818460837BD4680BD30
:101D2000F403030880B582B000AF78607868FFF7ED
:101D3000E7FF4FF49C71786829F0C9FB7B6818466F
:101D40000837BD4680BD80B582B000AF7860786846
:101D500000F004F800BF0837BD4680BD80B582B0F2
:101D600000AF78607B68D3F83C31002B0FD07B68E4
:101D7000D3F83C217B68D3F83C311B680C331B68DB
:101D8000104698470346002B01D0012300E00023B2
:101D9000002B0ED07B68D3F83C217B68D3F83C3114
:101DA0001B6808331B68104698477B680022C3F8FD
:101DB0003C2100BF0837BD4680BD000080B582B021
:101DC00000AF7860054A7B681A607B681846FFF7A9
:101DD00097FF7B6818460837BD4680BD40DB020888
:101DE00080B582B000AF78607868FFF7E7FF4FF406
:101DF000A071786829F06BFB7B6818460837BD46F0
:101E000080BD000080B582B000AF7860084A7B6872
:101E10001A607B6803F5A073184600F0F3FA7B683C
:101E20001846FFF7CBFF7B6818460837BD4680BDD4
:101E3000E4DA020880B582B000AF78607868FFF716
:101E4000E1FF4FF4AC71786829F041FB7B681846DC
:101E50000837BD4680BD000080B582B000AF786015
:101E6000054A7B681A607B681846FFF7CBFF7B68E2
:101E700018460837BD4680BDA0DA020880B582B09A
:101E800000AF78607868FFF7E7FF4FF4AC717868CF
:101E900029F01DFB7B6818460837BD4680BD80B51C
:101EA00082B000AF78607B68D3F85431184606F0F2
:101EB00011FB7B6818461CF041FC00BF0837BD468B
:101EC00080BD80B582B000AF786039603B6818464D
:101ED00002F048FC00BF0837BD4680BD80B586B023
:101EE00002AFF860B9607A603B60F868BB69009344
:101EF0003B687A68B968FFF70DFD044AFB681A6011
:101F0000FB6818461037BD4680BD00BF8CDA02085A
:101F100080B500AF014800F067F980BD34010024AE
:101F200080B500AF124B1B78BFF35B8FDBB203F0C1
:101F30000103002B0CBF01230023DBB2002B13D0C5
:101F40000B4829F0C6FA0346002B14BF01230023D7
:101F5000DBB2002B08D0074800F068F8044829F0ED
:101F6000C4FA054829F0A6FC024B184680BD00BF04
:101F7000A023002434010024111F000880B582B082
:101F800000AF7860054A7B681A607B681846FFF7E7
:101F9000E1FC7B6818460837BD4680BD8CDA020834
:101FA00080B582B000AF78607868FFF7E7FF142152
:101FB000786829F08CFA7B6818460837BD4680BDE2
:101FC00080B582B000AF78607B68184615F002FEDD
:101FD000034A7B681A607B6818460837BD4680BD97
:101FE00058DA020880B582B000AF78607B68184686
:101FF00015F0F0FD034A7B681A607B6818460837C5
:10200000BD4680BD24DA020880B582B000AF78609A
:102010007B68184615F0DEFD034A7B681A607B6812
:1020200018460837BD4680BDF0D90208B0B584B067
:1020300002AF786078687B6803F114047B6803F171
:102040002C057B6842F2B4021A44796842F21413F8
:102050000B44009313462A462146FFF73FFF1A4AD6
:102060007B681A607B6814331846FFF7A9FF7B680A
:102070002C331846FFF7B6FF7A6842F2B4031344D4
:102080001846FFF7C1FF7A6842F21013134418464E
:1020900006F012FA7A6842F2141313447A6842F294
:1020A000101111447A68184606F0F0F978687A68D9
:1020B00042F2141313441946FFF703FF7B681846D6
:1020C0000837BD46B0BD00BFDCD9020880B586B078
:1020D00002AFF860B9607A603B60F868BB8B01932F
:1020E0003B8B00933B687A68B968FFF749FD044A67
:1020F000FB681A60FB6818461037BD4680BD00BFFC
:10210000E8DB020880B586B002AFF860B9607A609B
:102110003B60F868BB8B01933B8B00933B687A680C
:10212000B968FFF7D3FF044AFB681A60FB681846DA
:102130001037BD4680BD00BF98D8020880B483B078
:1021400000AF7860044A7B681A607B6818460C37D9
:10215000BD465DF8047B704780D8020880B582B028
:1021600000AF78607B681846FFF7E8FF034A7B689A
:102170001A607B6818460837BD4680BD68D80208DB
:1021800090B585B002AF01F0F1FE044601F0F8FE13
:1021900003461946002300930023002220461FF027
:1021A00097FA0948FFF786FB002006F0C3F80748B6
:1021B0001FF0D0F9FFF7B4FE78600548FEF7B2FDD6
:1021C00000BF0C37BD4690BD20300024080000241D
:1021D0002430002480B500AF0248FEF7AFFD00BFF9
:1021E00080BD00BF2430002480B582B000AF78608D
:1021F000114A7B681A607A6842F214131344184635
:10220000FFF72AFE7A6842F2B4031344184600F03E
:1022100027F87B682C33184600F044F87B681433A9
:10222000184600F063F87B681846FFF7A7FE7B6846
:1022300018460837BD4680BDDCD9020880B582B09B
:1022400000AF78607868FFF7CFFF42F26C217868C2
:1022500029F03DF97B6818460837BD4680BD00006F
:1022600080B582B000AF7860054A7B681A607B68F1
:10227000184615F0ADFC7B6818460837BD4680BD92
:10228000F0D9020880B582B000AF78607868FFF7B7
:10229000E7FF5C21786829F01AF97B68184608374F
:1022A000BD4680BD80B582B000AF7860054A7B68CE
:1022B0001A607B68184615F08BFC7B681846083757
:1022C000BD4680BD24DA020880B582B000AF7860D8
:1022D0007868FFF7E7FF42F28801786829F0F7F89D
:1022E0007B6818460837BD4680BD000080B582B0C7
:1022F00000AF7860054A7B681A607B68184615F065
:1023000067FC7B6818460837BD4680BD58DA02086E
:1023100080B582B000AF78607868FFF7E7FF1821DA
:10232000786829F0D4F87B6818460837BD4680BD28
:1023300080B582B000AF7860054A7B681A607B6820
:102340001846FFF789FB7B6818460837BD4680BDF5
:102350004415030880B582B000AF78607868FFF755
:10236000E7FF5821786829F0B2F87B6818460837EB
:10237000BD4680BD80B584B002AF786039607B68AF
:10238000012B19D13B684FF6FF72934214D11848C4
:10239000FFF7E4FE1748FEF769FF174821F0E2FB5C
:1023A0004FF4887301934FF4F0730093104B124A6B
:1023B00010491248FFF7A6FE7B68002B13D13B683B
:1023C0004FF6FF7293420ED10C48FEF787FD0C4882
:1023D00000F03AF80848FFF7ABFF0648FEF770FF39
:1023E0000348FEF73FFA00BF0837BD4680BD00BF77
:1023F000A4230024A8230024C82F00242430002470
:102400000800002480B582B000AF7860054A7B6880
:102410001A607B681846FFF75DFB7B681846083733
:10242000BD4680BD28DB020880B582B000AF786071
:102430007868FFF7E7FF1021786829F048F87B6893
:1024400018460837BD4680BD80B582B000AF7860C1
:10245000054A7B681A607B681846FFF73BFA7B6881
:1024600018460837BD4680BD00DD020880B582B041
:1024700000AF78607868FFF7E7FF0421786829F0FB
:1024800026F87B6818460837BD4680BD80B483B007
:1024900000AF7860012318460C37BD465DF8047B19
:1024A000704780B483B000AF7860542318460C376F
:1024B000BD465DF8047B704780B483B000AF7860A0
:1024C0000B467B807B88542202FB03F308337A6837
:1024D000134418460C37BD465DF8047B704780B442
:1024E00083B000AF78600B467B807B88542202FB70
:1024F00003F308337A68134418460C37BD465DF879
:10250000047B704780B483B000AF78600123184625
:102510000C37BD465DF8047B704780B483B000AFD4
:1025200078604FF4025318460C37BD465DF8047BC3
:10253000704780B483B000AF78600B467B807A88A8
:1025400013469B011344DB0108337A681344184691
:102550000C37BD465DF8047B704780B483B000AF94
:1025600078600B467B807A8813469B011344DB011D
:1025700008337A68134418460C37BD465DF8047B6F
:10258000704780B483B000AF7860012318460C37E1
:10259000BD465DF8047B704780B483B000AF7860BF
:1025A000102318460C37BD465DF8047B704780B495
:1025B00083B000AF78600B467B807B881B010833BB
:1025C0007A68134418460C37BD465DF8047B7047A3
:1025D00080B483B000AF78600B467B807B881B01A2
:1025E00008337A68134418460C37BD465DF8047BFF
:1025F000704780B582B000AF78607B685B687A68AE
:10260000D268521099187B68DB6803F00103002B35
:1026100002D17B689B680AE07B685B687A68D26855
:10262000521013441B687A68926813441B6808466A
:10263000984700BF0837BD4680BD80B483B000AF67
:1026400078607B685B68002B10D07B689B68002BF0
:1026500007D17B68DB6803F00103002B01D1012364
:1026600000E00023012B01D0012300E000231846E5
:102670000C37BD465DF8047B704780B500AF4FF660
:10268000FF710120FFF776FE80BD80B500AF4FF6E9
:10269000FF710020FFF76EFE80BD80B582B000AFF5
:1026A00078607B681B6820331B687868984700BF98
:1026B0000837BD4680BD80B483B000AF78607B68CA
:1026C00093F866300133DAB27B6883F8662000BF86
:1026D0000C37BD465DF8047B7047000080B483B0C2
:1026E00000AF0346FB80B7F90630002B0BDBFB88FD
:1026F00003F01F020749B7F906305B09012000FA11
:1027000002F241F8232000BF0C37BD465DF8047B80
:10271000704700BF00E100E080B483B000AF034623
:10272000FB80B7F90630002B12DBFB8803F01F0299
:102730000A49B7F906305B09012000FA02F220339A
:1027400041F82320BFF34F8F00BFBFF36F8F00BF4F
:1027500000BF0C37BD465DF8047B704700E100E028
:1027600080B483B000AF03463960FB80B7F9063010
:10277000002B0ADB3B68DAB20C49B7F906301201CC
:10278000D2B20B4483F800230AE03B68DAB208496E
:10279000FB8803F00F03043B1201D2B20B441A76FC
:1027A00000BF0C37BD465DF8047B704700E100E0D8
:1027B00000ED00E0B0B582B000AF78607B681846ED
:1027C00015F0CFFE7D687B681B6860331C681CF0C9
:1027D00079F8034619462846A04778687B681B6845
:1027E00084331C68034A00230349A04700BF08370D
:1027F000BD46B0BD00FA09240000042480B582B0B3
:1028000000AF786009215A20FFF7AAFF092158205C
:10281000FFF7A6FF00BF0837BD4680BD80B582B078
:1028200000AF78605A20FFF759FF5820FFF756FF96
:1028300000BF0837BD4680BD80B582B000AF78606C
:102840005A20FFF769FF5820FFF766FF00BF0837DF
:10285000BD4680BD80B483B000AF7860114BDB68AB
:102860009BB2C3F30A039BB2013B9AB20E4B1A8090
:102870000C4B1B699BB2C3F30A039BB2013B9AB298
:102880000A4B1A80084B1A88064B1A64054B5B6B7F
:10289000044A43F00103536300BF0C37BD465DF8A3
:1028A000047B704700100050A0300024A2300024A8
:1028B00080B582B000AF78607B68184615F038FEAE
:1028C000034618460837BD4680BD80B582B000AFCC
:1028D00078607B68184615F037FE00BF0837BD46A4
:1028E00080BD000080B483B000AF7860034B9B6A6A
:1028F00018460C37BD465DF8047B704784100050C5
:1029000080B483B000AF78603960064A3B68936258
:10291000054B01225A6200BF0C37BD465DF8047BAF
:10292000704700BF841000500010005080B586B082
:1029300000AF786039607B683968184615F0C2FDD1
:10294000254B5B6903F48033002B14BF0123002364
:10295000DBB2002B3CD0204B0022C3F88420BFF315
:102960004F8F00BF1C4BD3F880307B617B695B0BC2
:10297000C3F30E033B617B69DB08C3F30903FB6010
:102980003B695A0143F6E0731340FA689207124913
:102990001343C1F87432FB685A1EFA60002B14BF4F
:1029A00001230023DBB2002B00D0E9E73B695A1E6C
:1029B0003A61002B14BF01230023DBB2002B00D0AF
:1029C000D9E7BFF34F8F00BFBFF36F8F00BF00BFCA
:1029D00000BF1837BD4680BD00ED00E080B584B073
:1029E00000AFF860B9607A603B60F8683B687A686D
:1029F000B96815F0D2FE034618461037BD4680BDB3
:102A000080B487B000AF7860264B5B6903F48033F5
:102A1000002B14BF01230023DBB2002B3CD0214B41
:102A20000022C3F88420BFF34F8F00BF1D4BD3F8A3
:102A300080307B617B695B0BC3F30E033B617B6979
:102A4000DB08C3F30903FB603B695A0143F6E073FB
:102A50001340FA68920713491343C1F87432FB68B4
:102A60005A1EFA60002B14BF01230023DBB2002B97
:102A700000D0E9E73B695A1E3A61002B14BF0123DD
:102A80000023DBB2002B00D0D9E7BFF34F8F00BF8C
:102A9000BFF36F8F00BF00BF00BF1C37BD465DF89E
:102AA000047B704700ED00E080B487B000AF786031
:102AB000264B5B6903F48033002B14BF01230023F2
:102AC000DBB2002B3CD0214B0022C3F88420BFF3A3
:102AD0004F8F00BF1D4BD3F880307B617B695B0B50
:102AE000C3F30E033B617B69DB08C3F30903FB609F
:102AF0003B695A0143F6E0731340FA6892071349A1
:102B00001343C1F87432FB685A1EFA60002B14BFDD
:102B100001230023DBB2002B00D0E9E73B695A1EFA
:102B20003A61002B14BF01230023DBB2002B00D03D
:102B3000D9E7BFF34F8F00BFBFF36F8F00BF00BF58
:102B400000BF1C37BD465DF8047B704700ED00E018
:102B500080B582B000AF78601A4B1B6C1A4A12889D
:102B600093420CBF01230023DBB2002B17D0174B7D
:102B70001B88194678680BF0F7FFFEF73DFB03460C
:102B80001846FFF798FDFEF731FAFEF735FB0346CE
:102B9000184616F0DBFA0020FDF786FE0EE00A4B21
:102BA0001B88194678680BF0DFFF0020FDF7BCFE9C
:102BB000FEF722FB03461846FFF76FFD00BF0837FC
:102BC000BD4680BD00100050A0300024A23000247B
:102BD00080B584B000AF00F0F9FC484B5B6903F4AA
:102BE0000033002B1BD1BFF34F8F00BFBFF36F8F9C
:102BF00000BF424B0022C3F85022BFF34F8F00BFEB
:102C0000BFF36F8F00BF3D4B5B693C4A43F4003319
:102C10005361BFF34F8F00BFBFF36F8F00E000BF62
:102C2000364B5B6903F48033002B38D1334B0022E1
:102C3000C3F88420BFF34F8F00BF304BD3F88030F0
:102C4000FB60FB685B0BC3F30E03BB60FB68DB0838
:102C5000C3F309037B60BB685A0143F6E07313407A
:102C60007A68920725491343C1F860327B685A1E7F
:102C70007A60002BEFD1BB685A1EBA60002BE5D1F9
:102C8000BFF34F8F00BF1D4B5B691C4A43F4803379
:102C90005361BFF34F8F00BFBFF36F8F00E000BFE2
:102CA00008F0D2FB00F038F800F0AEF800F05AF966
:102CB00000F06CFB00F078F900F0F0F900F0AEF9EC
:102CC00000F06EFA00F0D0F800F0CCFAFDF745FD08
:102CD00011F03CFB0A4A00210A4811F081FB03462F
:102CE000094A1360094A0021094811F079FB03469B
:102CF000084A136011F04EFBFEE700BF00ED00E054
:102D0000B0DC0208BD350008A4CD0024D4DC0208E4
:102D100067070008A0CD002480B59CB000AF07F184
:102D200024034C220021184628F032FE3B1D2022AD
:102D30000021184628F02CFE04200DF0CDF80023C9
:102D40003B602F4B9B692E4A43F4404393612C4BCD
:102D50009B6903F440433B603B6800BF284B9B6981
:102D600003F40053B3F5005FF8D1264B9B6A23F0C0
:102D70000303244A43F00203936201237B624FF46E
:102D80008033BB620223BB640223FB640C233B65DC
:102D90004FF48C737B650223BB650223FB65022322
:102DA0003B6604237B660023BB660023FB6607F1BA
:102DB000240318460DF0EAF80346002B01D000F07A
:102DC00065FC3F237B600323BB600023FB6008237B
:102DD0003B6100237B610023BB610023FB61002377
:102DE0003B623B1D032118460DF0B8FC0346002B47
:102DF00001D000F04BFC00BF7037BD4680BD00BF66
:102E0000004802580044025880B5AEB000AF3B46BF
:102E1000B8220021184628F0BBFD4FF002733B603A
:102E200018237B604FF48573BB600223FB60022391
:102E30003B6102237B610023BB612023FB610023F4
:102E40003B622023BB640023C7F8A8303B461846EA
:102E50000EF052F80346002B01D000F017FC00BF23
:102E6000B837BD4680BD000080B58AB000AF07F11D
:102E70001C0300221A605A609A603B4600221A60C6
:102E80005A609A60DA601A615A619A61324B334A29
:102E90001A60314B00225A602F4B00229A602E4B51
:102EA0000022DA602C4B04221A612B4B00221A7587
:102EB000294B00225A75284B01229A61264B002289
:102EC0001A77254B4FF480625A62234B4FF480628D
:102ED0009A62214B0022DA621F4B00221A631E4BBA
:102EE00000225A631C4B002283F838201A4808F04D
:102EF00021FD0346002B01D000F0C8FB0023FB613D
:102F000007F11C031946144809F05EFE0346002B26
:102F100001D000F0BBFB124B3B6006237B6000231B
:102F2000BB6040F2FF73FB6004233B6100237B61C5
:102F300000237B763B461946074809F0BFF9034654
:102F4000002B01D000F0A2FB034808F04DFE00BFAB
:102F50002837BD4680BD00BF38CD00240020024088
:102F60001000C01080B500AF0D4B0E4A1A600C4B1C
:102F700000221A710A4B00225A71094B00225A6131
:102F8000074B00229A61064B01221A6204480AF09C
:102F900045F80346002B01D000F078FB00BF80BD50
:102FA00014CD00240030024080B500AF194B1A4AFE
:102FB0001A60184B00225A60164B02229A60154B79
:102FC0000022DA60134B00225A64124B02229A64E8
:102FD000104B0022DA640F4B00221A650D4B0022C1
:102FE0005A650C4B00229A650A4B0022DA650948A3
:102FF0000AF0FEF80346002B01D000F047FB012148
:1030000004480AF069FA0346002B01D000F03EFBA9
:1030100000BF80BD60CC00240010005280B500AF1E
:103020001B4B1C4A1A601A4B1B4A5A60184B002251
:103030009A60174B0122DA60154B00221A61144B7B
:1030400000225A61124B00229A61114B0022DA6170
:103050000F4B00221A620E480AF004FE0346002BB2
:1030600001D000F013FB4FF4805109480BF01EFB18
:103070000346002B01D000F009FB002104480BF0AF
:1030800060FB0346002B01D000F000FB00BF80BDB9
:10309000C8CC0024001C0058D08B803080B58EB086
:1030A00000AF3B1D34220021184628F071FC3A4B3A
:1030B0003A4A1A60384B00225A60374B00229A6015
:1030C000354B0022DA60344B00221A61324B282241
:1030D0005A61314B09229A612F4B2A22DA612E4B19
:1030E0000B221A622C4B40F20A225A622A4B40F2FF
:1030F0001B129A62284B40F22A22DA62264B40F2D7
:103100001D121A63244B002283F83420224B002224
:1031100083F83520204B002283F836201E480BF020
:103120005DFB0346002B01D000F0B0FA00237B606A
:103130004FF4F073BB600023FB604FF488733B6176
:1031400001237B61FF23BB610023FB614FF480639C
:103150003B6205237B620023BB624FF4F073FB628A
:103160004FF488733B63FF2387F83430002387F8DC
:103170003530002387F836303B1D002219460648BB
:103180000BF0B4FC0346002B01D000F07FFA00BF27
:103190003837BD4680BD00BFB8CB002400100050BA
:1031A00080B582B000AF2D4B2D4A1A602B4B012207
:1031B0005A602A4B00229A60284B0022DA60274B83
:1031C0001A221A61254B02225A61244B00229A616D
:1031D000224B0022DA61214B00221A621F4B03228C
:1031E0005A621E4B00229A621C4B0022DA621B4B71
:1031F00000221A63194B00225A63184B08229A6363
:10320000164B0022DA63154B00221A6413480BF0A8
:10321000FFFE0346002B01D000F038FA01233B707B
:1032200001237B70002007F07BF83B461946002005
:1032300006F0EAFF78607B68002B01D000F026FAE8
:10324000002007F00BF978607B68002B01D000F0BC
:103250001DFA00BF0837BD4680BD00BF58CB002413
:103260000050005280B596B000AF07F14C03002229
:103270001A605A609A6007F1300300221A605A609F
:103280009A60DA601A615A619A613B1D2C22002112
:10329000184628F07DFB3B4B3B4A1A60394B8B228A
:1032A0005A60384B00229A60364B43F67F62DA60F0
:1032B000344B00221A61334B00225A61314B0022F9
:1032C0009A6130480FF094FF0346002B01D000F0C4
:1032D000DDF90023FB6400233B6500237B6507F1D8
:1032E0004C031946274810F0C9FE0346002B01D0B5
:1032F00000F0CCF960233B634FF4FA537B63002367
:10330000BB630023FB6300233B6400237B64002337
:10331000BB6407F13003002219461A4810F0E8F99F
:103320000346002B01D000F0B1F900237B6000239D
:10333000BB600023FB6000233B6100237B614FF4F3
:103340000053BB610023FB6100233B624FF000731D
:103350007B620023BB620023FB623B1D19460948C8
:1033600010F014FF0346002B01D000F08FF900216C
:1033700004480FF095FF034800F01CFC00BF5837CD
:10338000BD4680BDA8CD00240000014080B58EB0B0
:1033900000AF07F1240300221A605A609A60DA60D5
:1033A0001A617F4BD3F840317D4A43F48063C2F801
:1033B00040317B4BD3F8403103F480633B623B6A7E
:1033C000774BD3F84031764A43F04003C2F840319E
:1033D000734BD3F8403103F04003FB61FB69704B42
:1033E000D3F840316E4A43F40073C2F840316C4B5D
:1033F000D3F8403103F40073BB61BB69684BD3F869
:103400004031674A43F48073C2F84031644BD3F8CB
:10341000403103F480737B617B69614BD3F84031A9
:103420005F4A43F00103C2F840315D4BD3F84031AD
:1034300003F001033B613B69594BD3F84031584AD3
:1034400043F00803C2F84031554BD3F8403103F044
:103450000803FB60FB68524BD3F84031504A43F0FD
:103460008003C2F840314E4BD3F8403103F0800363
:10347000BB60BB684A4BD3F84031494A43F0040370
:10348000C2F84031464BD3F8403103F004037B606F
:103490007B68434BD3F84031414A43F00203C2F802
:1034A00040313F4BD3F8403103F002033B603B68AF
:1034B000002240F604013B480AF07CFB0022012177
:1034C00039480AF077FB002241F2060137480AF03A
:1034D00071FB00224FF4404135480AF06BFB40F687
:1034E00004037B620123BB620023FB6200233B6376
:1034F00007F1240319462B480AF0A2F801237B6246
:103500000123BB620023FB6200233B6307F124031A
:10351000194625480AF094F841F202037B62012320
:10352000BB620023FB6200233B6307F124031946BF
:103530001E480AF085F804237B621E4BBB62012300
:10354000FB6207F1240319461B480AF079F84FF48F
:1035500040437B620123BB620023FB6200233B6389
:1035600007F12403194612480AF06AF804237B6223
:103570000123BB620123FB6200233B6307F12403A9
:1035800019460A480AF05CF800220521082009F0D3
:1035900093FC082009F0AAFC00BF3837BD4680BD67
:1035A0000044025800180258002002580000025837
:1035B0000004025800001111001C025880B582B0AE
:1035C00000AF7860642010F09DFFFBE780B584B009
:1035D00000AF3B4600221A605A609A60DA6009F038
:1035E000A1FC01233B7000237B704FF010437B60F4
:1035F0001B233B7200237B720023BB720023FB72F0
:1036000001233B7300237B730023BB730023FB73F5
:103610003B46184609F0BEFC01237B7019233B7220
:103620000323FB720123BB733B46184609F0B2FC2F
:1036300002237B704FF010537B6013233B723B4699
:10364000184609F0A7FC03237B7011233B7201236A
:10365000FB733B46184609F09DFC042009F07AFCF8
:1036600000BF1037BD4680BD80B582B000AF786026
:103670007B681B68044A934201D107F021FF00BF19
:103680000837BD4680BD00BF0010004080B400AFC9
:1036900000BFBD465DF8047B7047000080B582B076
:1036A00000AF0C4BD3F854310A4A43F00203C2F87E
:1036B0005431084BD3F8543103F002037B607B682C
:1036C00000220F216FF0010009F0F6FB00BF083760
:1036D000BD4680BD0044025880B58AB000AF786016
:1036E00007F1140300221A605A609A60DA601A61C6
:1036F0007B681B681C4A934231D11C4BD3F838318C
:103700001A4A43F02003C2F83831184BD3F8383145
:1037100003F020033B613B69144BD3F84031134A5B
:1037200043F00403C2F84031104BD3F8403103F0AA
:103730000403FB60FB6810237B610323BB61002350
:10374000FB6107F114031946094809F079FF0022CB
:103750000521122009F0B0FB122009F0C7FB00BFC1
:103760002837BD4680BD00BF0020024000440258FB
:103770000008025880B485B000AF78607B681B6891
:103780000B4A93420ED10B4BD3F83831094A43F41C
:103790000073C2F83831074BD3F8383103F40073A3
:1037A000FB60FB6800BF1437BD465DF8047B7047C3
:1037B000003002400044025880B584B000AF786009
:1037C0007B681B680E4A934216D10E4BD3F83431F6
:1037D0000C4A43F01003C2F834310A4BD3F83431A9
:1037E00003F01003FB60FB68002205215A2009F05A
:1037F00063FB5A2009F07AFB00BF1037BD4680BD3D
:10380000001000520044025880B5B8B000AF786094
:1038100007F1CC0300221A605A609A60DA601A61DC
:1038200007F11403B8220021184628F0B1F87B688C
:103830001B68254A934242D110237B610023C7F8BD
:10384000B03007F1140318460DF056FB0346002B69
:1038500001D0FFF71BFF1D4BD3F840311B4A43F04B
:103860000803C2F84031194BD3F8403103F0080384
:103870003B613B694FF44053C7F8CC301223C7F883
:10388000D0300123C7F8D4300223C7F8D83004233E
:10389000C7F8DC3007F1CC0319460D4809F0D0FE1B
:1038A0000A4BD3F85431094A43F08003C2F854312B
:1038B000064BD3F8543103F08003FB60FB6800BF74
:1038C000E037BD4680BD00BF001C005800440258D0
:1038D000000C025880B582B000AF78607B681B682E
:1038E0000C4A934211D10C4BD3F854310A4A23F0BD
:1038F0008003C2F854314FF4005108480AF050F8E0
:103900004FF4805105480AF04BF800BF0837BD4618
:1039100080BD00BF001C005800440258000C025833
:1039200080B5BAB000AF786007F1D40300221A6006
:103930005A609A60DA601A6107F11C03B82200210C
:10394000184628F025F87B681B68564A934240F0D9
:10395000A4804FF00053FB6118233B64C9237B64B0
:103960000223BB640223FB6415233B6500237B65B4
:103970004FF40073BB6541F25653FB6507F11C031E
:1039800018460DF0B9FA0346002B01D0FFF77EFE72
:10399000454BD3F84431444A43F00803C2F844315C
:1039A000414BD3F8443103F00803BB61BB693E4B84
:1039B000D3F840313C4A43F48063C2F840313A4B7B
:1039C000D3F8403103F480637B617B69364BD3F8D5
:1039D0004031354A43F40073C2F84031324BD3F8DA
:1039E000403103F400733B613B692F4BD3F8403106
:1039F0002D4A43F48073C2F840312B4BD3F8403149
:103A000003F48073FB60FB68FF23C7F8D430022304
:103A1000C7F8D8300023C7F8DC300023C7F8E030FF
:103A20000E23C7F8E43007F1D40319461F4809F004
:103A300007FE4FF6FF73C7F8D4300223C7F8D8301B
:103A40000023C7F8DC300023C7F8E0300E23C7F8A6
:103A5000E43007F1D4031946154809F0F1FD4FF49D
:103A60007043C7F8D4300223C7F8D8300023C7F812
:103A7000DC300023C7F8E0300E23C7F8E43007F14C
:103A8000D40319460B4809F0DBFD0022052158201C
:103A900009F012FA582009F029FA00BFE837BD46AC
:103AA00080BD00BF0010005000440258002802589A
:103AB000002402580020025880B584B000AF78601E
:103AC0007B681B68164A934225D1164BD3F83431D4
:103AD000144A43F40013C2F83431124BD3F8343192
:103AE00003F40013FB60FB680E4BD3F834310D4A2E
:103AF00043F48043C2F834310A4BD3F8343103F431
:103B00008043BB60BB68002205215C2009F0D4F92A
:103B10005C2009F0EBF900BF1037BD4680BD00BF47
:103B2000005000520044025880B582B000AF786067
:103B30007B681B680C4A934212D10C4BD3F834318A
:103B40000A4A23F40013C2F83431084BD3F8343155
:103B5000064A23F48043C2F834315C2009F0D4F9DA
:103B600000BF0837BD4680BD0050005200440258D7
:103B700080B485B000AF78607B681B680B4A9342C5
:103B80000ED10B4BD3F85031094A43F00103C2F870
:103B90005031074BD3F8503103F00103FB60FB6851
:103BA00000BF1437BD465DF8047B7047000001403C
:103BB0000044025880B588B000AF786007F10C036C
:103BC00000221A605A609A60DA601A617B681B688A
:103BD000134A93421FD1134BD3F84031114A43F09B
:103BE0000103C2F840310F4BD3F8403103F0010319
:103BF000BB60BB684FF48073FB6002233B61002312
:103C00007B610023BB610123FB6107F10C031946B3
:103C1000054809F015FD00BF2037BD4680BD00BF37
:103C200000000140004402580000025880B590B0E6
:103C300000AF78607B680F2B27D800227968362088
:103C400009F03AF9362009F051F9294A7B681360E6
:103C5000284BD3F84831274A43F01003C2F84831C3
:103C6000244BD3F8483103F01003FB60FB6807F1E5
:103C7000100207F11403114618460DF0FBF8BB6A59
:103C8000BB63BB6B002B06D101E001232BE00DF0E1
:103C9000C5F8F86304E00DF0C1F803465B00FB6370
:103CA000FB6B154AA2FB03239B0C013B7B63134B6D
:103CB000134A1A60114B40F2E732DA600F4A7B6B0D
:103CC00053600E4B00221A610C4B00229A600B4885
:103CD0000FF0BCF90346002B04D108480FF018FA86
:103CE000034600E0012318464037BD4680BD00BFB3
:103CF000440000240044025883DE1B43F4CD00241A
:103D00000010004080B400AF00BFBD465DF8047BEA
:103D1000704780B400AFFEE780B400AFFEE780B428
:103D200000AFFEE780B400AFFEE780B400AF00BF95
:103D3000BD465DF8047B704780B500AF042009F0F4
:103D40006CFF00BF80BD000080B500AF024808F0E6
:103D50007DF800BF80BD00BF38CD002480B500AF26
:103D600002480FF0A5FB00BF80BD00BFF4CD0024CA
:103D700080B500AF02480AF001FE00BF80BD00BF61
:103D8000B8CB002480B500AF024809F095FA00BF17
:103D900080BD00BF60CC002480B500AF02480BF0AE
:103DA0001FFA00BF80BD00BF58CB002480B400AF15
:103DB00001231846BD465DF8047B704780B582B08C
:103DC00000AF7860396027F089FD034616221A603B
:103DD0004FF0FF3318460837BD4680BD80B582B02E
:103DE00000AF78604FF0FF317868FFF7E7FFFEE73C
:103DF00080B586B000AFF860B9607A6000237B615F
:103E00000AE0AFF300800146BB685A1CBA60CAB230
:103E10001A707B6901337B617A697B689A42F0DBB7
:103E20007B6818461837BD4680BD80B586B000AFA8
:103E3000F860B9607A6000237B6109E0BB685A1CB6
:103E4000BA601B781846AFF300807B6901337B6151
:103E50007A697B689A42F1DB7B6818461837BD4661
:103E600080BD80B483B000AF78604FF0FF33184658
:103E70000C37BD465DF8047B704780B483B000AF5B
:103E8000786039603B684FF400525A60002318464E
:103E90000C37BD465DF8047B704780B483B000AF3B
:103EA0007860012318460C37BD465DF8047B7047E7
:103EB00080B485B000AFF860B9607A60002318461E
:103EC0001437BD465DF8047B7047000080B584B0B0
:103ED00000AF7860114B1B68002B02D10F4B104ACA
:103EE0001A600E4B1B68FB600C4B1A687B6813440E
:103EF0006A46934207D927F0F1FC03460C221A6068
:103F00004FF0FF3306E0054B1A687B681344034A01
:103F10001360FB6818461037BD4680BDA4300024EE
:103F200048CF002480B582B000AF78600B467B801C
:103F30007B88022B10D0022B13DC002B02D0012B2C
:103F400005D00EE004F06EFA03461B680AE004F0A8
:103F500069FA03465B6805E004F064FA03469B686F
:103F600000E0002318460837BD4680BD80B400AF8E
:103F7000024B1846BD465DF8047B70470CDD020815
:103F800080B400AF05231846BD465DF8047B70473A
:103F900080B483B000AF7860044A7B681A607B68A5
:103FA00018460C37BD465DF8047B704704E20208F2
:103FB00080B582B000AF78607868FFF7E9FF102124
:103FC000786827F084FA7B6818460837BD4680BDBC
:103FD00090B587B000AF78600B467B807B88002B64
:103FE00001D1002310E000233B610023FB737B68B9
:103FF0001B6808331C6807F10F0307F1100279886A
:104000007868A04778617B6918461C37BD4690BD2B
:1040100080B483B000AF78607B685B8918460C374A
:10402000BD465DF8047B704780B483B000AF786014
:104030007B689B8918460C37BD465DF8047B70474A
:1040400080B483B000AF78607B689B8818460C37DB
:10405000BD465DF8047B704780B483B000AF7860E4
:104060007B689A887B689B799BB213449BB2184605
:104070000C37BD465DF8047B704780B483B000AF59
:1040800078607B68DB79C3F30603DBB218460C3734
:10409000BD465DF8047B704780B483B000AF7860A4
:1040A0007B68DB79C3F3C013DBB218460C37BD461F
:1040B0005DF8047B7047000080B582B000AF786087
:1040C000054A7B681A607B681846FFF761FF7B68CA
:1040D00018460837BD4680BDB806030880B582B0D3
:1040E00000AF78607868FFF7E7FF1821786827F05D
:1040F000EEF97B6818460837BD4680BD80B582B0B2
:1041000000AF7860054A7B681A607B681846FFF745
:10411000D3FF7B6818460837BD4680BDD4DE020851
:1041200080B582B000AF78607868FFF7E7FF28219C
:10413000786827F0CCF97B6818460837BD4680BD03
:1041400080B483B000AF7860044A7B681A607B68F3
:1041500018460C37BD465DF8047B704778DD0208D1
:1041600080B582B000AF78607868FFF7E9FF08217A
:10417000786827F0ACF97B6818460837BD4680BDE3
:1041800080B483B000AF786039603B6818460C3764
:10419000BD465DF8047B704780B483B000AF7860A3
:1041A000044A7B681A607B6818460C37BD465DF888
:1041B000047B70475406030880B582B000AF786076
:1041C0007868FFF7E9FF2821786827F080F97B6895
:1041D00018460837BD4680BD80B483B000AF786014
:1041E000002318460C37BD465DF8047B704780B548
:1041F00084B000AFF860084611461A4603467B813A
:104200000B463B811346FB80B7F90820B7F90A300B
:104210001946F86800F037F8B7F91820B7F90630F2
:104220001946F86800F08BF800BF1037BD4680BD16
:1042300080B483B000AF78607B68B3F9043018466F
:104240000C37BD465DF8047B704780B483B000AF87
:1042500078600B467B807B687A889A8000BF0C3739
:10426000BD465DF8047B704780B483B000AF7860D2
:104270000B467B807B687A88DA8000BF0C37BD46AE
:104280005DF8047B704780B582B000AF78600B4664
:104290007B8013463B807B681B682C331B68B7F917
:1042A00002201146786898477B681B6830331B688A
:1042B000B7F9002011467868984700BF0837BD4617
:1042C00080BD80B483B000AF78600B467B807B6894
:1042D0007A881A8100BF0C37BD465DF8047B7047B1
:1042E00080B483B000AF78600B467B807B687A88AF
:1042F0005A8100BF0C37BD465DF8047B704780B41F
:1043000083B000AF786000BF0C37BD465DF8047B1A
:10431000704780B483B000AF7860396000BF0C375D
:10432000BD465DF8047B704780B483B000AF786011
:10433000396000BF0C37BD465DF8047B704780B51F
:1043400082B000AF78600B467B8013463B807B6871
:104350001B6834331B68B7F9022011467868984708
:104360007B681B6838331B68B7F9002011467868F2
:10437000984700BF0837BD4680BD80B483B000AF0A
:104380007860396000BF0C37BD465DF8047B70472C
:1043900080B483B000AF786000BF0C37BD465DF8D5
:1043A000047B704780B483B000AF78607B6893F87B
:1043B000253018460C37BD465DF8047B704780B445
:1043C00083B000AF78607B6893F8243018460C37D0
:1043D000BD465DF8047B704780B582B000AF786061
:1043E0000B467B8013463B807B681B6850331B6801
:1043F00079887A68B2F9042092B28A1A92B210B21D
:1044000039887A68B2F9062092B28A1A92B212B248
:1044100001467868984700BF0837BD4680BD80B424
:1044200083B000AF78607B684FF6FF729A817B683B
:104430004FF6FF721A847B684FF6FF725A8400BFF2
:104440000C37BD465DF8047B704780B584B000AF83
:10445000F860B9607A60F868FFF7E1FF7B681A6876
:10446000FB68DA617B68FA681A6000BF1037BD46E6
:1044700080BD000080B400AF0B4B1B6893F8763012
:10448000002B08D0084B1B68DB6C002B03D0064BBD
:104490001B68DB6C02E0044B1B689B681846BD463A
:1044A0005DF8047B704700BFBCC8002480B483B0B3
:1044B00000AF7860074A7B681A607B6800225A6008
:1044C0007B6800221A727B6818460C37BD465DF87F
:1044D000047B7047B0DE020880B483B000AF786020
:1044E000044A7B681A607B6818460C37BD465DF845
:1044F000047B7047B0DE020880B582B000AF786000
:104500007868FFF7E9FF0C21786826F0E0FF7B6808
:1045100018460837BD4680BD80B483B000AF7860D0
:1045200000BF0C37BD465DF8047B704780B483B094
:1045300000AF786000BF0C37BD465DF8047B704764
:1045400080B483B000AF786000BF0C37BD465DF823
:10455000047B704780B582B000AF78601AF0B2F982
:1045600003461A68303212681846904700BF083771
:10457000BD4680BD80B483B000AF786039607B6891
:104580003A685A6000BF0C37BD465DF8047B70473F
:1045900080B582B000AF78607B6818461AF0FCF9ED
:1045A000094A7B681A607B680022C3F838217B685F
:1045B0000022C3F83C217B68044A13607B681846DC
:1045C0000837BD4680BD00BF40DB020828C9002473
:1045D00080B483B000AF786039607B683A681A6055
:1045E00000BF0C37BD465DF8047B704780B483B0D4
:1045F00000AF78607B6801221A7200BF0C37BD469D
:104600005DF8047B704780B584B000AFF8607B60D4
:104610000B467B8113463B81FB681846FFF7C2FEC1
:104620000346002B08D0FB681846FFF7C8FE034678
:10463000002B01D0012300E00023002B02D0FA68F8
:104640007B681A6000BF1037BD4680BD80B483B060
:1046500000AF786039607B683A685A6000BF0C37F9
:10466000BD465DF8047B704780B582B000AF7860CE
:10467000054A7B681A607B681846FFF78DFD7B68EA
:1046800018460837BD4680BD28DE020880B582B0D6
:1046900000AF78607868FFF7E7FF2821786826F098
:1046A00016FF7B6818460837BD4680BD80B584B0CC
:1046B00000AFF860B9607A60FB681846FFF768FFE2
:1046C000134AFB681A60FB6803F5A073184600F0F4
:1046D0002BF9FB687A68C3F85021FB68BA68C3F805
:1046E0005421FCF789FD03461A680832126800213C
:1046F00018469047002003F01DFEFFF7BBFE03465F
:10470000184620F01CFBFB6818461037BD4680BDDC
:10471000E4DA020880B483B000AF786039607B6867
:1047200018460C37BD465DF8047B704780B582B0F3
:1047300000AF786039607B683A6811461846FFF729
:10474000E9FF3B685A687B685A607B683A680833BF
:10475000083292E8030083E803007B6818460837B4
:10476000BD4680BD90B589B000AF78607B6803F529
:10477000A074104BBB610023FB6107F1080007F137
:1047800018030CCB796800F0EBF807F10803194621
:104790002046FFF7CBFF07F108031846FDF732FE6E
:1047A0007B6803F5A0727B68C3F83C2100BF243707
:1047B000BD4690BDB947000880B584B002AF7860AF
:1047C0007B6803F59C717B68D3F850311A467B688F
:1047D000D3F854310093044B044800F0F3F800BFC1
:1047E0000837BD4680BD00BF1CC9002418C900247D
:1047F00090B589B000AF78607B6803F5A074104B6A
:10480000BB610023FB6107F1080007F118030CCB23
:10481000796800F0A5F807F1080319462046FFF76C
:1048200085FF07F108031846FDF7ECFD7B6803F5EB
:10483000A0727B68C3F83C2100BF2437BD4690BD01
:104840004548000880B584B002AF78607B6803F506
:104850009C717B68D3F850311A467B68D3F8543189
:104860000093044B044800F0C9F900BF0837BD4667
:1048700080BD00BF1CC9002418C9002490B589B0B0
:1048800000AF78607B6803F5A074104BBB61002318
:10489000FB6107F1080007F118030CCB796800F001
:1048A0005FF807F1080319462046FFF73FFF07F1BD
:1048B00008031846FDF7A6FD7B6803F5A0727B6828
:1048C000C3F83C2100BF2437BD4690BDD148000845
:1048D00080B584B002AF78607B6803F59C717B681B
:1048E000D3F850311A467B68D3F854310093044B07
:1048F000044800F0A1FA00BF0837BD4680BD00BFE4
:104900001CC9002418C9002480B483B000AF7860AB
:10491000044A7B681A607B6818460C37BD465DF810
:10492000047B704784DB020880B582B000AF7860FA
:104930007B681846FFF7E8FF084A7B681A607B68C7
:1049400000225A607B6800229A607B680022DA604D
:104950007B6818460837BD4680BD00BF28DB0208CB
:1049600080B584B000AFF860B960394681E80C00CA
:10497000FB681846FFF7C8FF084AFB681A60FB6827
:10498000BA685A60FB6808333A4692E8030083E845
:104990000300FB6818461037BD4680BD28DB0208BF
:1049A00080B582B000AF78607B681846FFF77EFD67
:1049B000034A7B681A607B6818460837BD4680BD8D
:1049C0008CDE020890B58FB000AFF860B9607A60F5
:1049D0003B607B689A687B689B681B6820331B6818
:1049E000104698470346B3F5025F05D27E4B7F4AD7
:1049F000A3217F4826F040FF00BF7B685A687B6890
:104A00005B681B6820331B681046984703460F2BD2
:104A100005D8784B754AA421754826F02DFF00BFB4
:104A20007B68DA687B68DB681B6820331B6810468C
:104A3000984703460B2B05D86F4B6C4AA5216C4851
:104A400026F01AFF00BFFB68BB62BB687B623B6855
:104A50003B6219F037FF0346184619F081FF3B6AA5
:104A60001B68002B08D03B6A1A683B6A1B681B68EE
:104A70000C331B68104698473B6A1B68002B07D015
:104A80003B6A1A683B6A1B681B681B68104698479C
:104A9000BB6A1B68002B08D0BB6A1A68BB6A1B681C
:104AA0001B6814331B68104698477B6A1B68002BF1
:104AB00008D07B6A1A687B6A1B681B6804331B6812
:104AC00010469847BB6A1B68002B07D0BB6A1A6860
:104AD000BB6A1B681B681B68104698477B6A1B688B
:104AE000002B08D07B6A1A687B6A1B681B68083336
:104AF0001B681046984700BF7B68DB68002118469A
:104B000000F0B8FA034619460C20FFF739FB0446BB
:104B10002046FFF745FF7C637B689B6800211846B1
:104B200000F0BBFA034619464FF40250FFF728FB8A
:104B30000446204603F01AFE3C637B685B68002154
:104B4000184600F0BDFA034619461020FFF718FB7F
:104B50000446396B204603F09BFDFC623B687A6B90
:104B60001A60BB68FA6A1A60FB683A6B1A60FB6AE3
:104B7000002B02D0FB6A043300E000231946B86C16
:104B8000FFF726FDFB6A0433B96C1846FFF75EFD9C
:104B90003B6BF96A184600F0A6FA3B6BFB61FB6AB7
:104BA000BB617B6B7B61FB691B680C331B68F8691D
:104BB0009847BB691B681B68B86998477969F869A9
:104BC0001BF05EFB7B691B6810331B687869984794
:104BD0007B691B6814331B687869984700BFFB6AC0
:104BE00018463C37BD4690BDDCCD02086CCE0208AD
:104BF00070CF0208B8CF02085CD0020890B58FB021
:104C000000AFF860B9607A603B607B689A687B6847
:104C10009B681B6820331B68104698470346B3F512
:104C2000025F05D27F4B804AA321804826F024FEF4
:104C300000BF7B685A687B685B681B6820331B6811
:104C40001046984703460F2B05D8794B764AA42186
:104C5000764826F011FE00BF7B68DA687B68DB6867
:104C60001B6820331B68104698470346532B05D812
:104C7000704B6D4AA5216D4826F0FEFD00BFFB6814
:104C8000BB62BB687B623B683B6219F01BFE03465C
:104C9000184619F065FE3B6A1B68002B08D03B6A7A
:104CA0001A683B6A1B681B680C331B6810469847E0
:104CB0003B6A1B68002B07D03B6A1A683B6A1B687B
:104CC0001B681B6810469847BB6A1B68002B08D0FE
:104CD000BB6A1A68BB6A1B681B6814331B681046E2
:104CE00098477B6A1B68002B08D07B6A1A687B6A2E
:104CF0001B681B6804331B6810469847BB6A1B6817
:104D0000002B07D0BB6A1A68BB6A1B681B681B684C
:104D1000104698477B6A1B68002B08D07B6A1A688C
:104D20007B6A1B681B6808331B681046984700BFE6
:104D30007B68DB680021184600F0E3F9034619465A
:104D40005420FFF71DFA04461421204600F030FAE3
:104D50007C637B689B680021184600F09EF903463F
:104D600019464FF40250FFF70BFA0446204603F0B1
:104D7000FDFC3C637B685B680021184600F0A0F9ED
:104D8000034619461020FFF7FBF90446396B20460D
:104D900003F07EFCFC623B687A6B1A60BB68FA6ABF
:104DA0001A60FB683A6B1A60FB6A002B02D0FB6A40
:104DB000043300E000231946B86CFFF709FCFB6AD6
:104DC0000433B96C1846FFF741FC3B6BF96A18468F
:104DD00000F089F93B6BFB61FB6ABB617B6B7B611C
:104DE000FB691B680C331B68F8699847BB691B6833
:104DF0001B68B86998477969F8691BF041FA7B69C3
:104E00001B6810331B68786998477B691B681433EB
:104E10001B687869984700BFFB6A18463C37BD4657
:104E200090BD00BFDCCD020800D1020870CF02089F
:104E3000B8CF02085CD0020890B58FB000AFF86020
:104E4000B9607A603B607B689A687B689B681B6886
:104E500020331B68104698470346B3F5267F05D2DA
:104E60007F4B804AA321804826F006FD00BF7B6867
:104E70005A687B685B681B6820331B68104698473C
:104E800003460F2B05D8794B764AA421764826F0A5
:104E9000F3FC00BF7B68DA687B68DB681B68203343
:104EA0001B68104698470346532B05D8704B6D4A34
:104EB000A5216D4826F0E0FC00BFFB68BB62BB6823
:104EC0007B623B683B6219F0FDFC0346184619F013
:104ED00047FD3B6A1B68002B08D03B6A1A683B6A97
:104EE0001B681B680C331B68104698473B6A1B689D
:104EF000002B07D03B6A1A683B6A1B681B681B685B
:104F000010469847BB6A1B68002B08D0BB6A1A681A
:104F1000BB6A1B681B6814331B68104698477B6A82
:104F20001B68002B08D07B6A1A687B6A1B681B68A9
:104F300004331B6810469847BB6A1B68002B07D0D8
:104F4000BB6A1A68BB6A1B681B681B6810469847D7
:104F50007B6A1B68002B08D07B6A1A687B6A1B6817
:104F60001B6808331B681046984700BF7B68DB68E6
:104F70000021184600F07EF9034619465420FFF739
:104F8000FFF804461421204600F0AAF97C637B68F0
:104F90009B680021184600F007FA034619464FF4B3
:104FA0002670FFF7EDF80446204603F0A7FC3C63AB
:104FB0007B685B680021184600F009FA0346194631
:104FC0001020FFF7DDF80446396B204603F03EFC65
:104FD000FC623B687A6B1A60BB68FA6A1A60FB680D
:104FE0003A6B1A60FB6A002B02D0FB6A043300E0C4
:104FF00000231946B86CFFF7EBFAFB6A0433B96C6F
:105000001846FFF723FB3B6BF96A184600F0F2F9EC
:105010003B6BFB61FB6ABB617B6B7B61FB691B6864
:105020000C331B68F8699847BB691B681B68B86933
:1050300098477969F8691BF023F97B691B6810337D
:105040001B68786998477B691B6814331B6878690B
:10505000984700BFFB6A18463C37BD4690BD00BF6D
:10506000DCCD020818D2020870CF0208B8CF0208BF
:105070005CD0020880B582B000AF78600B467B80C0
:105080007B681B6824331B687A88114678689847C8
:10509000034618460837BD4680BD80B582B000AFD4
:1050A00078600B467B807B681B6824331B687A889A
:1050B000114678689847034618460837BD4680BDB4
:1050C00080B582B000AF78600B467B807B681B6840
:1050D00024331B687A881146786898470346184637
:1050E0000837BD4680BD80B483B000AF78603960BA
:1050F0007B683A68DA6300BF0C37BD465DF8047B15
:10510000704780B582B000AF78600B467B807B68CB
:105110001B6824331B687A881146786898470346D1
:1051200018460837BD4680BD80B582B000AF7860B4
:10513000054A7B681A607B681846FFF795FA7B681A
:1051400018460837BD4680BDFCFA020880B582B01B
:1051500000AF78607868FFF7E7FF2C21786826F0C9
:10516000B6F97B6818460837BD4680BD80B582B069
:1051700000AF7860054A7B681A607B68184600F0CB
:1051800091F97B6818460837BD4680BDB4DD02083A
:1051900080B582B000AF78607868FFF7E7FF102134
:1051A000786826F094F97B6818460837BD4680BDBC
:1051B00090B587B002AF78600B46FB707B681846ED
:1051C000FFF774F9264A7B681A607B680C3318462F
:1051D00016F0E0FD7B6803F10C027B689A637B6844
:1051E00003F13C041F4A07F1080392E8030083E837
:1051F000030007F108030CCB7968204600F032F970
:105200007B68FA7883F84C207B68002283F84D2075
:105210007B680022A3F85020134B1B78002B1AD078
:105220007B6803F10C00114B1B881AB2104B1B88D2
:105230001BB20093134600220021FEF7D8FF7B68C3
:105240000C33184616F02AFD084B1B881AB27B68EF
:10525000A3F84E2000BF7B6818461437BD4690BDAA
:1052600088DD020830D30208BBC80024B0C800247F
:10527000B2C8002480B582B000AF78600B467B8056
:105280007B681B6824331B687A88114678689847C6
:10529000034618460837BD4680BD000080B582B081
:1052A00000AF7860054A7B681A607B68184600F09A
:1052B000F9F87B6818460837BD4680BDF8DD02085E
:1052C00080B582B000AF78607868FFF7E7FF102103
:1052D000786826F0FCF87B6818460837BD4680BD24
:1052E00090B587B002AF78600B46FB707B681846BC
:1052F000FFF7DCF8274A7B681A607B680C33184696
:1053000016F048FD7B6803F10C027B689A637B68AA
:1053100003F13C04204A07F1080392E8030083E804
:10532000030007F108030CCB7968204600F0F4F87D
:105330007B68FA7883F84C207B68002283F84D2044
:105340007B680022A3F85020144B1B78002B1CD044
:105350007B6803F10C00124B1B881AB2114B1B889F
:105360001BB20093134600220021FEF740FF7B682A
:105370000C33184616F092FC094B1B885B429BB21B
:105380001AB27B68A3F84E2000BF7B68184614371A
:10539000BD4690BDCCDD020838D30208BBC800244E
:1053A000B0C80024B2C8002480B582B000AF7860D5
:1053B0000B467B807B681B6824331B687A88114608
:1053C00078689847034618460837BD4680BD80B5C3
:1053D00082B000AF78600B467B807B681B6824330B
:1053E0001B687A881146786898470346184608373C
:1053F000BD4680BD80B483B000AF786039607B6803
:105400003A68DA6300BF0C37BD465DF8047B70472D
:1054100080B582B000AF786039607B689B6B3A687A
:105420009A420AD03B681B6850331B687A68B2F90D
:10543000501000223868984700E000BF0837BD468A
:1054400080BD000080B483B000AF7860044A7B6800
:105450001A607B6818460C37BD465DF8047B7047C0
:1054600010DE020880B584B000AFF860B96039463C
:1054700081E80C00FB681846FFF7E4FF084AFB6868
:105480001A60FB68BA685A60FB6808333A4692E8CB
:10549000030083E80300FB6818461037BD4680BD53
:1054A000B4DD020880B483B000AF7860044A7B6842
:1054B0001A607B6818460C37BD465DF8047B704760
:1054C00010DE020880B582B000AF78607868FFF720
:1054D000E9FF0421786825F0FAFF7B681846083751
:1054E000BD4680BD80B582B000AF786039607B6812
:1054F0009B6B3A689A420AD03B681B6850331B6822
:105500007A68B2F9501000223868984700E000BF6E
:105510000837BD4680BD000080B584B000AFF8609C
:10552000B960394681E80C00FB681846FFF78AFF2E
:10553000084AFB681A60FB68BA685A60FB6808335F
:105540003A4692E8030083E80300FB6818461037E8
:10555000BD4680BDF8DD020880B582B000AF78603E
:105560000A4A7B681A607B683C331846FFF7FEFDE9
:105570007B680C331846FFF7D7FD7B681846FEF7AB
:10558000ABFF7B6818460837BD4680BD88DD020842
:1055900080B582B000AF78607868FFF7DDFF5421F6
:1055A000786825F094FF7B6818460837BD4680BDB3
:1055B00080B582B000AF78600A4A7B681A607B6869
:1055C0003C331846FFF76AFE7B680C331846FFF73A
:1055D000ABFD7B681846FEF77FFF7B6818460837EF
:1055E000BD4680BDCCDD020880B582B000AF7860DA
:1055F0007868FFF7DDFF5421786825F068FF7B6845
:1056000018460837BD4680BD80B582B000AF7860CF
:10561000054A7B681A607B681846FEF75DFF7B6869
:1056200018460837BD4680BD8CDE020880B582B0C2
:1056300000AF78607868FFF7E7FF0C21786825F005
:1056400046FF7B6818460837BD4680BD80B582B0EE
:1056500000AF7860404B1B7883F00103DBB2002B76
:1056600003D07B6801221A7273E07B681846FEF74C
:1056700053FF7B6893F84D300133DAB27B6883F8CF
:105680004D207B6893F84D207B6893F84C309A420C
:105690002FD87B6893F84D3098B27B68B3F94E20D1
:1056A0007B6893F84C309BB200211AF0EFFD034663
:1056B0001A467B68A3F850207B68B3F950309BB240
:1056C00003F001039BB2002B1BD07B68B3F9503071
:1056D0009BB27A68B2F95020002A01DD012201E074
:1056E0004FF6FF7213449BB21AB27B68A3F85020A6
:1056F00007E07B6801221A727B68002283F84D2044
:1057000027E07B680C331846FEF792FD03461946E6
:105710007B68B3F950309AB28BB2D31A9BB21AB2EB
:105720007B68A3F850207B6803F10C007B68B3F919
:105730005030002219461AF00DF900BF7B685868F6
:105740007B685B681B6878331B687A683C3211465B
:1057500098470837BD4680BDBBC8002480B582B0DD
:1057600000AF78600B4B1B78002B0ED07B685B681A
:10577000002B0AD07B6858687B685B681B686033C5
:105780001B687A680C321146984700BF0837BD463F
:1057900080BD00BFBBC8002480B588B000AF786072
:1057A0001A4B1B78002B2DD07B681846FEF7C8FEDD
:1057B000174A07F1180392E8030083E8030007F192
:1057C000080007F118030CCB7968FFF74BFE7B68E4
:1057D0005A687B685B681B6878331B6807F10801AF
:1057E000104698477B6858687B685B681B685C3329
:1057F0001B687A680C321146984707F1080318466F
:10580000FFF7B4FC00BF2037BD4680BDBBC80024F5
:1058100040D3020880B582B000AF786039603B6841
:105820001B6850331B68064A1288524292B211B26A
:1058300000223868984700BF00BF0837BD4680BDCA
:10584000B0C8002480B582B000AF786039607B6852
:105850005B687A68D268521098187B68DB6803F03E
:105860000103002B02D17B689B680AE07B685B68C0
:105870007A68D268521013441B687A68926813449D
:105880001B683968984700BF0837BD4680BD80B4A3
:1058900083B000AF78607B685B68002B10D07B68BA
:1058A0009B68002B07D17B68DB6803F00103002BAA
:1058B00001D1012300E00023012B01D0012300E0EE
:1058C000002318460C37BD465DF8047B7047000086
:1058D00080B582B000AF7860404B1B7883F0010345
:1058E000DBB2002B03D07B6801221A7273E07B6865
:1058F0001846FEF711FE7B6893F84D300133DAB29B
:105900007B6883F84D207B6893F84D207B6893F883
:105910004C309A422FD87B6893F84D3098B27B6810
:10592000B3F94E207B6893F84C309BB200211AF0FB
:10593000ADFC03461A467B68A3F850207B68B3F998
:1059400050309BB203F001039BB2002B1BD07B684D
:10595000B3F950309BB27A68B2F95020002A01DDC9
:10596000012201E04FF6FF7213449BB21AB27B682A
:10597000A3F8502007E07B6801221A727B6800229E
:1059800083F84D2027E07B680C331846FEF750FC67
:10599000034619467B68B3F950309AB28BB2D31ADA
:1059A0009BB21AB27B68A3F850207B6803F10C000D
:1059B0007B68B3F950300022194619F0CBFF00BFC5
:1059C0007B6858687B685B681B6878331B687A68FB
:1059D0003C32114698470837BD4680BDBBC80024FD
:1059E00080B582B000AF78600B4B1B78002B0ED0D7
:1059F0007B685B68002B0AD07B6858687B685B68B3
:105A00001B6860331B687A680C321146984700BFE8
:105A10000837BD4680BD00BFBBC8002480B588B034
:105A200000AF78601A4B1B78002B2DD07B6818468E
:105A3000FEF786FD174A07F1180392E8030083E892
:105A4000030007F1080007F118030CCB7968FFF792
:105A500063FD7B685A687B685B681B6878331B68EA
:105A600007F10801104698477B6858687B685B68B7
:105A70001B685C331B687A680C321146984707F143
:105A800008031846FFF70AFC00BF2037BD4680BD5B
:105A9000BBC8002448D3020880B582B000AF78604C
:105AA00039603B681B6850331B68054A128811B285
:105AB00000223868984700BF00BF0837BD4680BD48
:105AC000B0C8002480B582B000AF786039607B68D0
:105AD0005B687A68D268521098187B68DB6803F0BC
