:020000040800F2
:100000000000042491030008D5350008E3350008FA
:10001000E9350008EF350008F5350008000000005C
:10002000000000000000000000000000A111010815
:10003000FB35000800000000F113010875040108F9
:10004000E1030008E1030008E1030008E103000800
:10005000E1030008E1030008E1030008E1030008F0
:1000600009360008E1030008E1030008E103000885
:10007000E1030008E1030008E1030008E1030008D0
:10008000E1030008E1030008E1030008E1030008C0
:10009000E1030008E1030008E1030008E1030008B0
:1000A000E1030008E1030008E1030008E1030008A0
:1000B000E1030008E1030008E1030008E103000890
:1000C000E1030008E1030008E1030008E103000880
:1000D000E1030008E1030008E1030008E103000870
:1000E000E1030008E1030008E1030008E103000860
:1000F000E1030008E1030008E1030008E103000850
:10010000E1030008E1030008E1030008E10300083F
:10011000E1030008E103000819360008E1030008C4
:10012000E1030008E1030008E1030008E10300081F
:10013000E10300080000000000000000E1030008E7
:10014000E1030008E1030008E1030008E1030008FF
:10015000E1030008E1030008E1030008E1030008EF
:10016000E1030008E1030008E1030008E1030008DF
:10017000E1030008E1030008E1030008E1030008CF
:10018000E1030008E1030008E1030008E1030008BF
:10019000E1030008E1030008E1030008E1030008AF
:1001A0002D360008E103000841360008E10300088D
:1001B00055360008E1030008E1030008E1030008E8
:1001C000E1030008E1030008000000000000000057
:1001D0000000000000000000E10300080000000033
:1001E000000000000000000000000000000000000F
:1001F0000000000000000000E1030008E103000827
:10020000E1030008E103000800000000E10300082A
:10021000E1030008E1030008E1030008E10300082E
:10022000E1030008E1030008E1030008000000000A
:10023000E1030008E103000800000000E1030008FA
:10024000E1030008E1030008E1030008E1030008FE
:10025000E1030008E1030008E1030008E1030008EE
:10026000E1030008E1030008E1030008E1030008DE
:10027000E1030008E1030008E103000800000000BA
:10028000E1030008E103000800000000E1030008AA
:1002900000000000E1030008E1030008E10300089A
:0C02A000E1030008E1030008E10300088E
:1002B00010B5054C237833B9044B13B10448AFF3A0
:1002C00000800123237010BD1001002400000000F5
:1002D0006C6C020808B5034B1BB103490348AFF32C
:1002E000008008BD00000000140100246C6C0208AE
:1002F00001F0FF01102A2BDB10F0070F08D010F8D7
:10030000013B013A8B422DD010F0070F42B3F6D1DA
:10031000F0B441EA012141EA014122F007047FF0F3
:1003200000070023F0E80256083C85EA010586EA4A
:10033000010685FA47F5A3FA87F586FA47F6A5FA86
:1003400087F68EB9EED1F0BC01F0FF0102F0070292
:1003500032B110F8013B013A83EA010313B1F8D13D
:100360000020704701387047002D06BF354603381E
:10037000073815F0010F07D1013015F4807F02BF57
:10038000013015F4C03F0130F0BC0138704700BFA8
:10039000DFF834D0002103E00C4B5B5843500431AC
:1003A0000B480C4B42189A42F6D30B4A02E000234A
:1003B00042F8043B094B9A42F9D30AF011FB25F0AD
:1003C00025FC02F049FA704700000424A0BA020894
:1003D0000000002410010024100100247CCE002421
:1003E000FEE780B500AF01F00FFD00BF80BD80B516
:1003F00082B000AF786001F031FD00BF0837BD4624
:1004000080BD000080B483B000AF7860044A7B6890
:100410001A607B6818460C37BD465DF8047B704750
:10042000907C020880B582B000AF78607868FFF7F2
:10043000E9FF0421786825F070FB7B6818460837CF
:10044000BD4680BD80B586B000AF786008233B61B3
:1004500000237B61074B1B88BB60074B1B88FB603D
:1004600007F10803194600200AF09CF800BF18376E
:10047000BD4680BD9EC80024A0C8002480B588B0B9
:1004800000AFF860B9607A6007F1100300221A60CB
:100490005A609A6007F11003194600200AF028F903
:1004A0000346002B14BF01230023DBB2002B0AD02C
:1004B0004FF0500383F31188BFF36F8FBFF34F8F5B
:1004C000FB6100BFFEE73B69002B09D07B691A4640
:1004D000BB681A60BB691A467B681A60012300E09A
:1004E000002318462037BD4680BD000080B582B08D
:1004F00000AF7860054A7B681A607B681846FFF792
:1005000081FF7B6818460837BD4680BD787C0208AD
:1005100080B582B000AF78607868FFF7E7FF04210C
:10052000786825F0FAFA7B6818460837BD4680BD22
:1005300080B582B000AF0346FB71FB79032B31D845
:1005400001A252F823F000BF590500087305000806
:100550008B0500089905000801224FF4006113483B
:100560000BF07AFA01224FF4805110480BF074FA24
:1005700018E0012204210D480BF06EFA01224FF41D
:1005800080410A480BF068FA0CE001224FF4004168
:1005900006480BF061FA05E00122012103480BF047
:1005A0005BFA00BF00BF0837BD4680BD0018025887
:1005B00080B582B000AF0346FB71FB79032B31D8C5
:1005C00001A252F823F000BFD9050008F305000886
:1005D0000B0600081906000800224FF400611348BA
:1005E0000BF03AFA00224FF4805110480BF034FA25
:1005F00018E0002204210D480BF02EFA00224FF4DF
:1006000080410A480BF028FA0CE000224FF4004128
:1006100006480BF021FA05E00022012103480BF007
:100620001BFA00BF00BF0837BD4680BD0018025846
:1006300080B582B000AF0346FB71FB79032B2BD84A
:1006400001A252F823F000BF590600086F06000807
:10065000830600088F0600084FF4006110480BF075
:1006600014FA4FF480510E480BF00FFA14E00421F5
:100670000B480BF00AFA4FF4804109480BF005FAD9
:100680000AE04FF4004106480BF0FFF904E00121B5
:1006900003480BF0FAF900BF00BF0837BD4680BD24
:1006A0000018025880B483B000AF7860044A7B68B9
:1006B0001A607B6818460C37BD465DF8047B7047AE
:1006C000908D020880B582B000AF78607868FFF73F
:1006D000E9FF7C21786825F020FA7B681846083706
:1006E000BD4680BD80B483B000AF78600B46FB7020
:1006F0007B68FA7883F874207B68012283F8752080
:1007000000BF0C37BD465DF8047B704780B582B0F2
:1007100000AF78600B467B8013463B800C4B1B88F8
:100720007A889A4204D30B4B1B883A889A4205D2A6
:10073000094B0A4A9E210A4825F01EFA094A7B887D
:100740001380094A3B88138000BF0837BD4680BD2F
:1007500098C800249AC80024846C0208E86C020837
:100760002C6D02089EC80024A0C8002480B582B069
:1007700000AF78607B6893F87730002B09D07B68F6
:100780005A687B685B681B681B681046984703467D
:1007900000E0002318460837BD4680BD80B582B012
:1007A00000AF7860786814F0D3FB7B681B68A433D3
:1007B0001B687868984700BF0837BD4680BD80B485
:1007C00083B000AF78603960002318460C37BD460F
:1007D0005DF8047B7047000080B584B000AFF8601E
:1007E000B9607A603B60BB68002B06D1114B124A9E
:1007F0004FF42B71114825F0BFF9FB68BA68DA6332
:10080000FB687A681A64FB683A685A647B68002B54
:1008100014BF01230023DAB2094B1A703B68002B86
:1008200014BF01230023DAB2064B1A7000BF103741
:10083000BD4680BD746D0208AC6D02082C6D0208C7
:10084000A2C80024A3C8002480B483B000AF78609D
:10085000002318460C37BD465DF8047B704780B511
:1008600082B000AF78600B467B807B689B6B002B6F
:1008700004D07B689B6B7A881046984700BF083786
:10088000BD4680BD80B483B000AF78604FF6FF7383
:1008900018460C37BD465DF8047B704780B582B0C2
:1008A00000AF78607B685A687B685B681B681833A8
:1008B0001B6810469847034618460837BD4680BD5A
:1008C00080B485B000AF78607B6893F874207B6853
:1008D00093F834309A4211D0144B1B78002B1ED160
:1008E000134B1B88BB81134B1A88114B1A80114A7A
:1008F000BB8913800D4B01221A7010E00B4B1B7843
:10090000002B0CD00A4B1B88FB810A4B1A88084B22
:100910001A80084AFB891380044B00221A7000BF1A
:100920001437BD465DF8047B704700BF9CC80024A7
:100930009AC8002498C8002480B582B000AF7860BF
:100940007B68184613F0BAFC00BF0837BD4680BD6F
:1009500080B582B000AF7860054A7B681A607B681A
:100960001846FFF79FFE7B6818460837BD4680BDD6
:10097000F87F020880B582B000AF78607868FFF732
:10098000E7FF7C21786825F0C8F87B6818460837AF
:10099000BD4680BD80B582B000AF78607B681846E8
:1009A000FFF7CAFF00BF0837BD4680BD80B582B0E3
:1009B00000AF78607B68184601F040FD00BF083743
:1009C000BD4680BD80B582B000AF78607B681B6893
:1009D0007C331B68786898477B681B6874331B6896
:1009E0007868984700F056F97A687B681B686C3322
:1009F0001B6810469847002280210B480BF02CF80A
:100A00000122042109480BF027F80122022107489E
:100A10000BF022F800F03EF97A687B681B686C33B3
:100A20001B6810469847F5E7002802580000025856
:100A300080B582B000AF78607B68184601F096FD03
:100A4000034618460837BD4680BD80B582B000AF6A
:100A5000786039607B683968184601F095FD00BF01
:100A60000837BD4680BD000080B586B000AF786015
:100A700039607B683968184601F09CFD204B0022E4
:100A8000C3F88420BFF34F8F00BF1D4BD3F88030D5
:100A90007B617B695B0BC3F30E033B617B69DB0806
:100AA000C3F30903FB603B695A0143F6E07313404B
:100AB000FA68920712491343C1F87432FB685A1E50
:100AC000FA60002B14BF01230023DBB2002B00D0FF
:100AD000E9E73B695A1E3A61002B14BF012300234A
:100AE000DBB2002B00D0D9E7BFF34F8F00BFBFF3BD
:100AF0006F8F00BF00BF00BF1837BD4680BD00BF6D
:100B000000ED00E080B582B000AF78607B681846E9
:100B100001F0B8FC00BF0837BD4680BD80B582B08B
:100B200000AF78607B68184601F0BCFC00BF083756
:100B3000BD4680BD80B582B000AF78607B68184646
:100B400001F0BEFC00BF0837BD4680BD80B582B055
:100B500000AF78607B68184601F0C0FC00BF083722
:100B6000BD4680BD80B582B000AF7860054A7B6825
:100B70001A607B681846FFF7EBFE7B68184608375B
:100B8000BD4680BDA87C020880B582B000AF786009
:100B90007868FFF7E7FF7C21786824F0BEFF7B6868
:100BA00018460837BD4680BD80B500AF0022012140
:100BB00001200FF070FD03460F4A13600E4B1B68B7
:100BC000002B05D10D4B0E4A29210E4824F0D4FFED
:100BD0000022042101200FF07DFE03460A4A136023
:100BE000094B1B68002B05D1084B054A2D210548F0
:100BF00024F0C2FF00BF80BD2C010024FC6D020860
:100C0000486E0208786E020830010024F46E020873
:100C100080B500AF044B1B684FF0FF3118460FF052
:100C2000C3FD00BF80BD00BF2C01002480B500AF14
:100C3000034B1B6818460FF009FE00BF80BD00BFC4
:100C40002C01002480B500AF034B1B68002118461F
:100C50000FF0AAFD00BF80BD2C01002480B500AFBD
:100C6000034B1B6818460FF0F1FD00BF80BD00BFAD
:100C70002C01002480B500AF044B1868002300222B
:100C800003490FF09BFE00BF80BD00BF3001002470
:100C90000400002480B582B000AF094B1868391DEC
:100CA000002300220FF0EAFE054B1868391D4FF0B3
:100CB000FF3300220FF0E2FE00BF0837BD4680BDC3
:100CC0003001002480B483B000AF0346FB80B7F945
:100CD0000630002B0BDBFB8803F01F020749B7F936
:100CE00006305B09012000FA02F241F8232000BF20
:100CF0000C37BD465DF8047B704700BF00E100E0A3
:100D000080B483B000AF0346FB80B7F90630002BF8
:100D100012DBFB8803F01F020A49B7F906305B09B2
:100D2000012000FA02F2203341F82320BFF34F8F55
:100D300000BFBFF36F8F00BF00BF0C37BD465DF82B
:100D4000047B704700E100E080B483B000AF7860BE
:100D50007B6800221A607B6818460C37BD465DF838
:100D6000047B704780B483B000AF78607B681B68F9
:100D700018460C37BD465DF8047B704780B483B0DD
:100D800000AF7860044A7B681A607B6818460C37AD
:100D9000BD465DF8047B7047C87D020880B582B00F
:100DA00000AF78607868FFF7E9FF0421786824F0E5
:100DB000B4FE7B6818460837BD4680BD80B582B05A
:100DC00000AF78607B681B6844331B68786898477D
:100DD00000BF0837BD4680BD80B483B000AF7860E7
:100DE000044A7B681A607B6818460C37BD465DF87C
:100DF000047B7047E892020880B582B000AF78604B
:100E00007868FFF7E9FF0C21786824F086FE7B689C
:100E100018460837BD4680BD80B483B000AF786007
:100E20003960094A7B681A607B683A685A607B6857
:100E300000221A727B6800225A727B6818460C37AF
:100E4000BD465DF8047B7047E892020880B483B029
:100E500000AF7860012318460C37BD465DF8047B6F
:100E6000704780B582B000AF78607A687B681B6895
:100E700028331B681046984700BF0837BD4680BD21
:100E800080B400AF034B1B681846BD465DF8047B79
:100E9000704700BFA4C8002480B582B000AF78605E
:100EA0007B685A687B685B681B6814331B68104654
:100EB000984700BF0837BD4680BD80B582B000AFFF
:100EC0007860FFF7DDFF03461846FFF7E5FF00BF38
:100ED0000837BD4680BD80B582B000AF78607B68C2
:100EE0000C331846FFF730FF7B6818460837BD46BD
:100EF00080BD0000B0B582B000AF78607A687B68D2
:100F00000C3319461046FFF787FF0E4A7B681A60BC
:100F10007B6803F10C007B6820336022194614F0D3
:100F20007DF97B6820335F241D46002C05DB2846B5
:100F3000FFF7D1FF2035013CF7E77B6818460837FB
:100F4000BD46B0BD787D020880B582B000AF786044
:100F5000094A7B681A605A20FFF7D2FE7B680C337F
:100F6000184600F0B1FA7B681846FFF735FF7B683A
:100F700018460837BD4680BD787D020880B582B02E
:100F800000AF78607868FFF7DFFF4FF44261786860
:100F900024F0C3FD7B6818460837BD4680BD0000BD
:100FA00080B584B000AF7860124BD3F83431114A69
:100FB00043F01003C2F834310E4BD3F8343103F050
:100FC0001003FB60FB680B4BDB6F0A4A43F0100316
:100FD000D367084BDB6F074A23F01003D367064B38
:100FE000064A1A625A20FFF76DFE00BF1037BD4651
:100FF00080BD00BF00440258C0CC0024BB0E0008D6
:1010000080B584B000AF78600B46FB700023FB60B6
:10101000FB780B2B26D801A252F823F059100008B8
:10102000531000084D1000086510000865100008F6
:1010300065100008651000085F1000085F100008C8
:101040005F1000085F1000085F1000080023FB60BD
:101050000EE00123FB600BE00223FB6008E00523A8
:10106000FB6005E0054B064A6721064824F084FD35
:10107000FB6818461037BD4680BD00BF386F0208B8
:10108000546F0208A06F020880B584B000AF78608A
:101090000B46FB700023FB60FB780A2B21D801A2D2
:1010A00052F823F0DD100008D7100008D110000816
:1010B000E3100008E3100008E3100008E310000844
:1010C000D7100008D7100008D7100008D710000864
:1010D0000023FB600BE00123FB6008E00223FB60C0
:1010E00005E0054B054A8821054824F045FDFB68CD
:1010F00018461037BD4680BD386F020818700208C8
:10110000A06F020880B483B000AF786040F2EF3384
:1011100018460C37BD465DF8047B704790B589B022
:1011200000AF786039603B685B7F19467868FFF7ED
:1011300067FFB8613B689B7F19467868FFF760FFDF
:1011400078613B689B7F19467868FFF79DFF38619F
:101150003B685B8B1A463B689B8AD21A974B1A6492
:101160003B685B8B1A463B689B8AD21A934B9A6109
:101170003B681B8B1A463B689B8AD21A8F4B1A61BD
:101180008E4A3B6953633B68DB8A1A463B689B8AFD
:101190001B041A43894B5A643B681A69874BDA630C
:1011A0003B685A68854BDA603B681B68B3F5007F83
:1011B00037D0B3F5007F00F2E380B3F5807F15D020
:1011C000B3F5807F00F2DC80802B45D0802B00F2CD
:1011D000D780402B00F0BF80402B00F2D180042B41
:1011E00000F0A480202B00F0B680C9E03B681B7F94
:1011F0001B061946714A724B0B43D3613B680C3393
:101200006E4C1846FFF7AEFD034623626B4A7B69BE
:1012100053623B681A69694B5A61684B694A1A60A4
:10122000C7E03B681B7F1B061946644A664B0B43AD
:10123000D3613B680C33614C1846FFF793FD0346BE
:1012400023625E4A7B6953623B681A695B4B5A6151
:101250005A4B5C4A1A60ACE03B689B68FB60012318
:10126000FB773B681B7F1B061A46BB691343534A37
:1012700043F40033D361514A7B6953623B681A6976
:101280004E4B5A61FB681A1D4C4BDA62FB681B8897
:10129000DBB2002B02D0012B0DD020E0474BDA69E6
:1012A0004A4B1340FA685288013A12021146434AE7
:1012B0000B43D3611AE03B681B7FFF2B01D1002356
:1012C000FB773E4BDA69414B1340FA685288013A8A
:1012D00012021343394A43F01003D36106E03C4B3A
:1012E0003C4A4FF481713C4824F046FC334BDB69A7
:1012F000324A43F02003D361304BDB6903F0200313
:10130000002B14BF01230023DBB2002B00D0F3E736
:101310002A4B10229A60FB7F002B03D0274B294ACF
:101320001A6046E0254B2D4A1A6042E03B681B7F5D
:101330001B061A46BB691343204A43F40033D361AA
:101340001E4A7B6953623B681A691C4B5A611B4BEE
:101350001C4A1A602DE03B681B7F1B061A46BB69BE
:101360001343164A43F40033D361144A7B69536232
:101370003B681A69114B5A61104B124A1A6018E007
:101380003B681B7F1B061A46BB6913430B4A43F499
:101390000033D3613B685A7F3B689B7F9A4203D0FE
:1013A000064B0E4A1A6003E0044B40F201221A6019
:1013B00000BF00BF2437BD4690BD00BF00100052E3
:1013C0000A0002000102020009000200EF00FFFF14
:1013D0006470020880700208A06F02080102010018
:1013E00090B585B000AF786039603B689B7F194647
:1013F0007868FFF749FEF8602F4AFB6853633B6843
:10140000DB8A1A463B689B8A1B041A432A4B5A64A0
:101410003B681A69284BDA633B685B8B1A463B686A
:101420009B8AD21A244B1A643B681B68082B2ED166
:101430003B685B8B1A463B689B8AD21A1E4B9A61AB
:101440003B685B8B1A463B689B8AD21A1A4B1A611F
:10145000194AFB6853623B681B7F1B061946164AF4
:10146000164B0B43D3613B680C33134C1846FFF704
:1014700079FC034623623B681A690F4B5A613B684B
:101480001A690D4BDA600C4B0D4A1A6010E00A4ADB
:10149000FB68D361084B00221A613B680C33064C91
:1014A0001846FFF75FFC0346A363034B054A1A6027
:1014B00000BF1437BD4690BD001000520900010066
:1014C000010202000102030080B582B000AF786023
:1014D000054A7B681A607B681846FFF74FFC7B68FB
:1014E00018460837BD4680BD3893020880B582B0E3
:1014F00000AF78607868FFF7E7FF1421786824F080
:101500000CFB7B6818460837BD4680BD80B483B0AD
:1015100000AF78607B6800221A807B6800225A80C6
:101520007B6800229A807B680022DA807B681846FC
:101530000C37BD465DF8047B7047000080B483B073
:1015400000AF7860044A7B68136000BF0C37BD466B
:101550005DF8047B704700BF20C9002480B483B0CD
:1015600000AF7860044A7B681A607B6818460C37C5
:10157000BD465DF8047B7047E47F020880B582B009
:1015800000AF78607868FFF7E9FF0421786824F0FD
:10159000C4FA7B6818460837BD4680BD80B485B064
:1015A00000AFF860B9607A603B600B4AFB681A6074
:1015B000FB68BA685A60FB687A689A60FB683A68A8
:1015C000DA60FB68BA691A61FB6818461437BD46D1
:1015D0005DF8047B704700BFD47F020880B483B0FD
:1015E00000AF7860044A7B681A607B6818460C3745
:1015F000BD465DF8047B7047D47F020880B582B099
:1016000000AF78607868FFF7E9FF1421786824F06C
:1016100084FA7B6818460837BD4680BD80B483B025
:1016200000AF7860396000BF0C37BD465DF8047BC1
:10163000704780B483B000AF7860396000BF0C376A
:10164000BD465DF8047B704780B483B000AF78601E
:10165000396000BF0C37BD465DF8047B704780B42D
:1016600083B000AF78600B46FB7000BF0C37BD46FF
:101670005DF8047B704780B483B000AF786000BF32
:101680000C37BD465DF8047B704780B483B000AF73
:10169000786000BF0C37BD465DF8047B70470000E2
:1016A00080B483B000AF7860044A7B681A607B68BE
:1016B00018460C37BD465DF8047B7047AC7F0208C6
:1016C00080B582B000AF78607868FFF7E9FF042149
:1016D000786824F022FA7B6818460837BD4680BD3A
:1016E00080B483B000AF7860044A7B681A607B687E
:1016F00018460C37BD465DF8047B7047E4A002082D
:1017000080B582B000AF78607868FFF7E9FF082104
:10171000786824F002FA7B6818460837BD4680BD19
:1017200080B483B000AF78600B46FB7000BF0C370D
:10173000BD465DF8047B704780B483B000AF78602D
:1017400039607B683A6803F596731068516803C383
:1017500000BF0C37BD465DF8047B704780B483B092
:1017600000AF7860044A7B681A607B6818460C37C3
:10177000BD465DF8047B7047947F020880B582B057
:1017800000AF78607868FFF7E9FF0421786824F0FB
:10179000C4F97B6818460837BD4680BD80B483B065
:1017A00000AF78607B6800221A807B6800225A8034
:1017B0007B6800229A807B680022DA807B680022A6
:1017C0001A817B6800225A817B6800229A817B689B
:1017D00000229A737B6818460C37BD465DF8047B7F
:1017E000704780B582B000AF78607B681846FFF71D
:1017F000D5FF7B6800221A617B6800229A827B6891
:1018000018460837BD4680BD80B584B000AFF8608B
:10181000B9607A603B60554AFB681A60FB68BA6839
:101820005A60FB687A689A60FB683A68DA60FB681D
:1018300000221A61FB6800225A61FB6800229A614B
:10184000FB681C331846FFF7CCFFFB68002283F8C7
:101850003420FB6800229A63FB680022DA63FB688D
:1018600000221A64FB6800225A64FB68002283F895
:101870004820FB68012283F84920FB68002283F896
:101880004A20FB68002283F84B20FB680022DA64C0
:10189000FB6850331846FFF739FEFB6800229A6553
:1018A000FB680022DA65FB6800221A66FB680122E9
:1018B00083F86420FB68002283F86520FB6800221F
:1018C00083F86620FB68012283F86720FB6800220A
:1018D00083F86820FB68002283F86920FB680022F7
:1018E00083F86A20FB68002283F86B20FB680022E3
:1018F00083F86C20FB6800221A67FB68002283F8DB
:101900007420FB68002283F87520FB68002283F8AE
:101910007620FB68012283F87720FB68012283F898
:101920007820134AFB681360124A3B8B1380114BDB
:101930001A88114B1A80114ABB8B13800F4B1A88DF
:101940000F4B1A800F4B00221A703A8BBB8B9A42B6
:1019500034BF01230023DBB21A46FB6883F834202E
:10196000FB6818461037BD4680BD00BF908D020849
:10197000A4C8002498C800249EC800249AC8002443
:10198000A0C800249CC8002480B582B000AF786055
:10199000054A7B681A607B681846FFF781FE7B6802
:1019A00018460837BD4680BDD0A1020880B582B078
:1019B00000AF78607868FFF7E7FF4FF49C717868B4
:1019C00024F0ABF87B6818460837BD4680BD80B56B
:1019D00082B000AF7860786800F004F800BF083784
:1019E000BD4680BD80B582B000AF78607B68D3F81B
:1019F0003C31002B0FD07B68D3F83C217B68D3F8B7
:101A00003C311B680C331B68104698470346002B7B
:101A100001D0012300E00023002B0ED07B68D3F817
:101A20003C217B68D3F83C311B6808331B681046A7
:101A300098477B680022C3F83C2100BF0837BD46A9
:101A400080BD000080B582B000AF7860054A7B6839
:101A50001A607B681846FFF797FF7B6818460837BF
:101A6000BD4680BD507F020880B582B000AF78606F
:101A70007868FFF7E7FF4FF4A071786824F04DF81D
:101A80007B6818460837BD4680BD000080B582B02F
:101A900000AF7860084A7B681A607B6803F5A07322
:101AA000184600F0F3FA7B681846FFF7CBFF7B6817
:101AB00018460837BD4680BDF47E020880B582B066
:101AC00000AF78607868FFF7E1FF4FF4AC71786899
:101AD00024F023F87B6818460837BD4680BD000017
:101AE00080B582B000AF7860054A7B681A607B6879
:101AF0001846FFF7CBFF7B6818460837BD4680BD08
:101B0000B07E020880B582B000AF78607868FFF7D9
:101B1000E7FF4FF4AC71786823F0FFFF7B6818464D
:101B20000837BD4680BD80B582B000AF78607B6865
:101B3000D3F85431184606F04BF87B68184616F077
:101B4000C9FF00BF0837BD4680BD80B582B000AF79
:101B5000786039603B68184602F06CFA00BF0837BD
:101B6000BD4680BD80B586B002AFF860B9607A60CE
:101B70003B60F868BB6900933B687A68B968FFF717
:101B80000DFD044AFB681A60FB6818461037BD4615
:101B900080BD00BF9C7E020880B500AF014800F008
:101BA00067F980BD3401002480B500AF124B1B786B
:101BB000BFF35B8FDBB203F00103002B0CBF0123EB
:101BC0000023DBB2002B13D00B4823F0A8FF034601
:101BD000002B14BF01230023DBB2002B08D00748E1
:101BE00000F068F8044823F0A6FF054823F0E2FF60
:101BF000024B184680BD00BF582300243401002446
:101C0000991B000880B582B000AF7860054A7B68F8
:101C10001A607B681846FFF7E1FC7B6818460837B6
:101C2000BD4680BD9C7E020880B582B000AF786062
:101C30007868FFF7E7FF1421786823F06EFF7B6870
:101C400018460837BD4680BD80B582B000AF7860C9
:101C50007B68184612F06EF8034A7B681A607B684E
:101C600018460837BD4680BD687E020880B582B040
:101C700000AF78607B68184612F05CF8034A7B6816
:101C80001A607B6818460837BD4680BD347E02085E
:101C900080B582B000AF78607B68184612F04AF8D1
:101CA000034A7B681A607B6818460837BD4680BDCA
:101CB000007E0208B0B584B002AF786078687B68B7
:101CC00003F114047B6803F12C057B6842F26C027B
:101CD0001A44796842F2CC030B44009313462A4617
:101CE0002146FFF73FFF1A4A7B681A607B6814336E
:101CF0001846FFF7A9FF7B682C331846FFF7B6FF9D
:101D00007A6842F26C0313441846FFF7C1FF7A6801
:101D100042F2C8031344184605F04CFF7A6842F2B9
:101D2000CC0313447A6842F2C80111447A68184619
:101D300005F02AFF78687A6842F2CC03134419460A
:101D4000FFF703FF7B6818460837BD46B0BD00BFEC
:101D5000EC7D020880B586B002AFF860B9607A60A9
:101D60003B60F868BB8B01933B8B00933B687A68C0
:101D7000B968FFF749FD044AFB681A60FB6818461A
:101D80001037BD4680BD00BFF87F020880B586B021
:101D900002AFF860B9607A603B60F868BB8B019372
:101DA0003B8B00933B687A68B968FFF7D3FF044A1E
:101DB000FB681A60FB6818461037BD4680BD00BF3F
:101DC000A87C020880B483B000AF7860044A7B68C6
:101DD0001A607B6818460C37BD465DF8047B704777
:101DE000907C020880B582B000AF78607B681846AE
:101DF000FFF7E8FF034A7B681A607B6818460837DC
:101E0000BD4680BD787C020890B585B002AF01F078
:101E100015FD044601F01CFD0346194600230093FE
:101E200000230022204619F0B3FF0948FFF786FB84
:101E3000002005F0F7FD074819F0ECFEFFF7B4FEAF
:101E400078600548FEF7B2FD00BF0C37BD4690BD77
:101E5000D82F002408000024DC2F002480B500AF18
:101E60000248FEF7AFFD00BF80BD00BFDC2F00249D
:101E700080B582B000AF7860114A7B681A607A68DA
:101E800042F2CC0313441846FFF72AFE7A6842F266
:101E90006C031344184600F027F87B682C3318466F
:101EA00000F044F87B681433184600F063F87B6850
:101EB0001846FFF7A7FE7B6818460837BD4680BD69
:101EC000EC7D020880B582B000AF78607868FFF7DB
:101ED000CFFF42F22421786823F01FFE7B6818466A
:101EE0000837BD4680BD000080B582B000AF786085
:101EF000054A7B681A607B68184611F019FF7B68F9
:101F000018460837BD4680BD007E020880B582B005
:101F100000AF78607868FFF7E7FF5C21786823F00E
:101F2000FCFD7B6818460837BD4680BD80B582B091
:101F300000AF7860054A7B681A607B68184611F02C
:101F4000F7FE7B6818460837BD4680BD347E020820
:101F500080B582B000AF78607868FFF7E7FF4FF494
:101F60000151786823F0D9FD7B6818460837BD46D3
:101F700080BD000080B582B000AF7860054A7B6804
:101F80001A607B68184611F0D3FE7B681846083744
:101F9000BD4680BD687E020880B582B000AF786023
:101FA0007868FFF7E7FF1821786823F0B6FD7B68B3
:101FB00018460837BD4680BD80B582B000AF786056
:101FC000054A7B681A607B681846FFF789FB7B68C7
:101FD00018460837BD4680BDD8B2020880B582B029
:101FE00000AF78607868FFF7E7FF5821786823F042
:101FF00094FD7B6818460837BD4680BD80B584B027
:1020000002AF786039607B68012B19D13B684FF6CD
:10201000FF72934214D11848FFF7E4FE1748FEF709
:1020200069FF17481CF0C4F84FF4887301934FF40C
:10203000F0730093104B124A10491248FFF7A6FEA6
:102040007B68002B13D13B684FF6FF7293420ED191
:102050000C48FEF787FD0C4800F03AF80848FFF7F7
:10206000ABFF0648FEF770FF0348FEF73FFA00BFDC
:102070000837BD4680BD00BF5C23002460230024D8
:10208000802F0024DC2F00240800002480B582B0BB
:1020900000AF7860054A7B681A607B681846FFF7D6
:1020A0005DFB7B6818460837BD4680BD387F020857
:1020B00080B582B000AF78607868FFF7E7FF102145
:1020C000786823F02AFD7B6818460837BD4680BD36
:1020D00080B582B000AF7860054A7B681A607B6883
:1020E0001846FFF73BFA7B6818460837BD4680BDA7
:1020F0001081020880B582B000AF78607868FFF781
:10210000E7FF0421786823F008FD7B68184608374C
:10211000BD4680BD80B483B000AF7860012318460F
:102120000C37BD465DF8047B704780B483B000AFC8
:102130007860542318460C37BD465DF8047B704721
:1021400080B483B000AF78600B467B807B885422DC
:1021500002FB03F308337A68134418460C37BD4674
:102160005DF8047B704780B483B000AF78600B46A5
:102170007B807B88542202FB03F308337A68134484
:1021800018460C37BD465DF8047B704780B483B0B9
:1021900000AF7860012318460C37BD465DF8047B1C
:1021A000704780B483B000AF786042F238031846BD
:1021B0000C37BD465DF8047B704780B483B000AF38
:1021C00078600B467B807B8842F2380202FB03F387
:1021D00008337A68134418460C37BD465DF8047B13
:1021E000704780B483B000AF78600B467B807B88FB
:1021F00042F2380202FB03F308337A6813441846AC
:102200000C37BD465DF8047B704780B483B000AFE7
:102210007860012318460C37BD465DF8047B704793
:1022200080B483B000AF7860102318460C37BD46E9
:102230005DF8047B704780B483B000AF78600B46D4
:102240007B807B881B0108337A68134418460C375F
:10225000BD465DF8047B704780B483B000AF786002
:102260000B467B807B881B0108337A681344184631
:102270000C37BD465DF8047B704780B582B000AF77
:1022800078607B685B687A68D268521099187B68BE
:10229000DB6803F00103002B02D17B689B680AE036
:1022A0007B685B687A68D268521013441B687A684E
:1022B000926813441B680846984700BF0837BD461C
:1022C00080BD80B483B000AF78607B685B68002B12
:1022D00010D07B689B68002B07D17B68DB6803F01C
:1022E0000103002B01D1012300E00023012B01D0C9
:1022F000012300E0002318460C37BD465DF8047B3F
:10230000704780B500AF4FF6FF710120FFF776FEF2
:1023100080BD80B500AF4FF6FF710020FFF76EFE65
:1023200080BD80B582B000AF78607B681B682033C9
:102330001B687868984700BF0837BD4680BD80B4E9
:1023400083B000AF78607B6893F866300133DAB20F
:102350007B6883F8662000BF0C37BD465DF8047BC0
:102360007047000080B483B000AF0346FB80B7F92C
:102370000630002B0BDBFB8803F01F020749B7F97F
:1023800006305B09012000FA02F241F8232000BF69
:102390000C37BD465DF8047B704700BF00E100E0EC
:1023A00080B483B000AF0346FB80B7F90630002B42
:1023B00012DBFB8803F01F020A49B7F906305B09FC
:1023C000012000FA02F2203341F82320BFF34F8F9F
:1023D00000BFBFF36F8F00BF00BF0C37BD465DF875
:1023E000047B704700E100E080B483B000AF034697
:1023F0003960FB80B7F90630002B0ADB3B68DAB2A4
:102400000C49B7F906301201D2B20B4483F800230D
:102410000AE03B68DAB20849FB8803F00F03043B8B
:102420001201D2B20B441A7600BF0C37BD465DF8DC
:10243000047B704700E100E000ED00E0B0B582B041
:1024400000AF78607B68184611F08DFF7D687B686F
:102450001B6860331C6816F001FC034619462846C9
:10246000A04778687B681B6884331C68034A002394
:102470000349A04700BF0837BD46B0BD00FA092494
:102480000000042480B582B000AF786009215A2092
:10249000FFF7AAFF09215820FFF7A6FF00BF083762
:1024A000BD4680BD80B582B000AF78605A20FFF78E
:1024B00059FF5820FFF756FF00BF0837BD4680BDC3
:1024C00080B582B000AF78605A20FFF769FF5820CE
:1024D000FFF766FF00BF0837BD4680BD80B483B0FC
:1024E00000AF7860114BDB689BB2C3F30A039BB269
:1024F000013B9AB20E4B1A800C4B1B699BB2C3F383
:102500000A039BB2013B9AB20A4B1A80084B1A8805
:10251000064B1A64054B5B6B044A43F0010353639B
:1025200000BF0C37BD465DF8047B704700100050BB
:10253000583000245A30002480B582B000AF786053
:102540007B68184611F0F6FE034618460837BD466C
:1025500080BD80B582B000AF78607B68184611F00E
:10256000F5FE00BF0837BD4680BD000080B483B0D3
:1025700000AF7860034B9B6A18460C37BD465DF888
:10258000047B70478410005080B483B000AF786043
:102590003960064A3B689362054B01225A6200BFCC
:1025A0000C37BD465DF8047B704700BF84100050B7
:1025B0000010005080B586B000AF786039607B684D
:1025C0003968184611F080FE254B5B6903F48033AF
:1025D000002B14BF01230023DBB2002B3CD0204B87
:1025E0000022C3F88420BFF34F8F00BF1C4BD3F8E9
:1025F00080307B617B695B0BC3F30E033B617B69BE
:10260000DB08C3F30903FB603B695A0143F6E0733F
:102610001340FA68920712491343C1F87432FB68F9
:102620005A1EFA60002B14BF01230023DBB2002BDB
:1026300000D0E9E73B695A1E3A61002B14BF012321
:102640000023DBB2002B00D0D9E7BFF34F8F00BFD0
:10265000BFF36F8F00BF00BF00BF1837BD4680BDFE
:1026600000ED00E080B584B000AFF860B9607A603A
:102670003B60F8683B687A68B96811F090FF0346E0
:1026800018461037BD4680BD80B487B000AF786073
:10269000264B5B6903F48033002B14BF0123002316
:1026A000DBB2002B3CD0214B0022C3F88420BFF3C7
:1026B0004F8F00BF1D4BD3F880307B617B695B0B74
:1026C000C3F30E033B617B69DB08C3F30903FB60C3
:1026D0003B695A0143F6E0731340FA6892071349C5
:1026E0001343C1F87432FB685A1EFA60002B14BF02
:1026F00001230023DBB2002B00D0E9E73B695A1E1F
:102700003A61002B14BF01230023DBB2002B00D061
:10271000D9E7BFF34F8F00BFBFF36F8F00BF00BF7C
:1027200000BF1C37BD465DF8047B704700ED00E03C
:1027300080B487B000AF7860264B5B6903F48033C8
:10274000002B14BF01230023DBB2002B3CD0214B14
:102750000022C3F88420BFF34F8F00BF1D4BD3F876
:1027600080307B617B695B0BC3F30E033B617B694C
:10277000DB08C3F30903FB603B695A0143F6E073CE
:102780001340FA68920713491343C1F87432FB6887
:102790005A1EFA60002B14BF01230023DBB2002B6A
:1027A00000D0E9E73B695A1E3A61002B14BF0123B0
:1027B0000023DBB2002B00D0D9E7BFF34F8F00BF5F
:1027C000BFF36F8F00BF00BF00BF1C37BD465DF871
:1027D000047B704700ED00E080B582B000AF786008
:1027E0001A4B1B6C1A4A128893420CBF0123002318
:1027F000DBB2002B17D0174B1B88194678680AF0FC
:1028000005F9FEF73DFB03461846FFF798FDFEF776
:1028100031FAFEF735FB0346184612F099FB00200B
:10282000FDF786FE0EE00A4B1B88194678680AF011
:10283000EDF80020FDF7BCFEFEF722FB034618462C
:10284000FFF76FFD00BF0837BD4680BD0010005088
:10285000583000245A30002480B584B000AF00F016
:10286000A3FB454B5B6903F40033002B1BD1BFF383
:102870004F8F00BFBFF36F8F00BF3F4B0022C3F8E5
:102880005022BFF34F8F00BFBFF36F8F00BF3A4B93
:102890005B69394A43F400335361BFF34F8F00BF84
:1028A000BFF36F8F00E000BF334B5B6903F48033ED
:1028B000002B38D1304B0022C3F88420BFF34F8F58
:1028C00000BF2D4BD3F88030FB60FB685B0BC3F37C
:1028D0000E03BB60FB68DB08C3F309037B60BB68C6
:1028E0005A0143F6E07313407A6892072249134372
:1028F000C1F860327B685A1E7A60002BEFD1BB684A
:102900005A1EBA60002BE5D1BFF34F8F00BF1A4BA0
:102910005B69194A43F480335361BFF34F8F00BFA3
:10292000BFF36F8F00E000BF08F0BCF800F032F892
:1029300000F0A8F800F026FA00F0C6F800F03EF922
:1029400000F0FCF800F0BCF9FDF74BFD0DF0ACFD1C
:102950000A4A00210A480DF0F1FD0346094A1360B6
:10296000094A002109480DF0E9FD0346084A1360B1
:102970000DF0BEFDFEE700BF00ED00E0C0800208E4
:10298000992F000840CB0024E4800208EF030008E0
:10299000BCCC002480B59CB000AF07F124034C22CE
:1029A0000021184623F074F93B1D2022002118460F
:1029B00023F06EF904200BF0E1F900233B602F4B6C
:1029C0009B692E4A43F4404393612C4B9B6903F46B
:1029D00040433B603B6800BF284B9B6903F40053B6
:1029E000B3F5005FF8D1264B9B6A23F00303244A1A
:1029F00043F00203936201237B624FF48033BB6296
:102A00000223BB640223FB640C233B654FF48C73ED
:102A10007B650223BB650223FB6502233B6604231F
:102A20007B660023BB660023FB6607F12403184680
:102A30000BF0FEF90346002B01D000F015FB3F23FD
:102A40007B600323BB600023FB6008233B61002302
:102A50007B610023BB610023FB6100233B623B1DC4
:102A6000032118460BF0CCFD0346002B01D000F0EB
:102A7000FBFA00BF7037BD4680BD00BF004802585A
:102A80000044025880B500AF0D4B0E4A1A600C4B43
:102A900000221A710A4B00225A71094B00225A6116
:102AA000074B00229A61064B01221A62044808F083
:102AB00007FA0346002B01D000F0D6FA00BF80BD14
:102AC000F0CB00240030024080B500AF194B1A4A09
:102AD0001A60184B00225A60164B02229A60154B5E
:102AE0000022DA60134B00225A64124B02229A64CD
:102AF000104B0022DA640F4B00221A650D4B0022A6
:102B00005A650C4B00229A650A4B0022DA65094887
:102B100008F0C0FA0346002B01D000F0A5FA01210D
:102B2000044808F02BFC0346002B01D000F09CFA6F
:102B300000BF80BDC0CC00240010005280B500AFA3
:102B40001B4B1C4A1A601A4B1B4A5A60184B002236
:102B50009A60174B0122DA60154B00221A61144B60
:102B600000225A61124B00229A61114B0022DA6155
:102B70000F4B00221A620E4808F0C6FF0346002BD6
:102B800001D000F071FA4FF48051094809F0E0FCDF
:102B90000346002B01D000F067FA0021044809F039
:102BA00022FD0346002B01D000F05EFA00BF80BD7D
:102BB00044CB0024001C0058D08B803080B58EB0F0
:102BC00000AF3B1D34220021184623F061F83A4B38
:102BD0003A4A1A60384B00225A60374B00229A60FA
:102BE000354B0022DA60344B00221A61324B282226
:102BF0005A61314B09229A612F4B2A22DA612E4BFE
:102C00000B221A622C4B40F20A225A622A4B40F2E3
:102C10001B129A62284B40F22A22DA62264B40F2BB
:102C20001D121A63244B002283F83420224B002209
:102C300083F83520204B002283F836201E4809F007
:102C40001FFD0346002B01D000F00EFA00237B602D
:102C50004FF4F073BB600023FB604FF488733B615B
:102C600001237B61FF23BB610023FB614FF4806381
:102C70003B6205237B620023BB624FF4F073FB626F
:102C80004FF488733B63FF2387F83430002387F8C1
:102C90003530002387F836303B1D002219460648A0
:102CA00009F076FE0346002B01D000F0DDF900BFED
:102CB0003837BD4680BD00BF14CC00240010005042
:102CC00080B582B000AF2D4B2D4A1A602B4B0122EC
:102CD0005A602A4B00229A60284B0022DA60274B68
:102CE0001A221A61254B02225A61244B00229A6152
:102CF000224B0022DA61214B00221A621F4B032271
:102D00005A621E4B00229A621C4B0022DA621B4B55
:102D100000221A63194B00225A63184B08229A6347
:102D2000164B0022DA63154B00221A6413480AF08E
:102D3000C1F80346002B01D000F096F901233B7047
:102D400001237B70002006F019FE3B461946002047
:102D500006F088FD78607B68002B01D000F084F9D4
:102D6000002006F0A9FE78607B68002B01D000F0FF
:102D70007BF900BF0837BD4680BD00BF90CB002463
:102D80000050005280B58EB000AF07F1240300223E
:102D90001A605A609A60DA601A61784BD3F8403151
:102DA000764A43F48063C2F84031744BD3F8403123
:102DB00003F480633B623B6A704BD3F840316F4A47
:102DC00043F04003C2F840316C4BD3F8403103F07C
:102DD0004003FB61FB69694BD3F84031674A43F418
:102DE0000073C2F84031654BD3F8403103F40073EF
:102DF000BB61BB69614BD3F84031604A43F48073D7
:102E0000C2F840315D4BD3F8403103F480737B61ED
:102E10007B695A4BD3F84031584A43F00103C2F85A
:102E20004031564BD3F8403103F001033B613B691D
:102E3000524BD3F84031514A43F00803C2F84031B5
:102E40004E4BD3F8403103F00803FB60FB684B4B5B
:102E5000D3F84031494A43F08003C2F84031474B30
:102E6000D3F8403103F08003BB60BB68434BD3F819
:102E70004031424A43F00203C2F840313F4BD3F89D
:102E8000403103F002037B607B68002240F60401BE
:102E90003B4808F0E1FD002201213A4808F0DCFD42
:102EA000002241F20601384808F0D6FD00224FF416
:102EB0004041364808F0D0FD40F604037B62012310
:102EC000BB620023FB6200233B6307F12403194626
:102ED0002B4808F007FB01237B620123BB62002320
:102EE000FB6200233B6307F124031946254808F0E1
:102EF000F9FA41F202037B620123BB620023FB6209
:102F000000233B6307F1240319461F4808F0EAFA3F
:102F100004237B621E4BBB620123FB6207F1240387
:102F200019461C4808F0DEFA4FF440437B62012347
:102F3000BB620023FB6200233B6307F124031946B5
:102F4000124808F0CFFA04237B620123BB620123FD
:102F5000FB6200233B6307F1240319460A4808F08B
:102F6000C1FA00220521082007F0F8FE082007F02A
:102F70000FFF00BF3837BD4680BD00BF0044025878
:102F8000001802580020025800000258000402589D
:102F900000001111001C025880B582B000AF7860AB
:102FA00064200DF05DFBFBE780B584B000AF3B46CD
:102FB00000221A605A609A60DA6007F005FF012368
:102FC0003B7000237B704FF010437B601B233B72F0
:102FD00000237B720023BB720023FB7201233B732F
:102FE00000237B730023BB730023FB733B4618460F
:102FF00007F022FF01237B7019233B720323FB722E
:103000000123BB733B46184607F016FF02237B7073
:103010004FF010537B6013233B723B46184607F07A
:103020000BFF03237B7011233B720123FB733B4691
:10303000184607F001FF042007F0DEFE00BF10373E
:10304000BD4680BD80B582B000AF78607B681B68EC
:10305000044A934201D107F061FD00BF0837BD4625
:1030600080BD00BF0010004080B400AF00BFBD466F
:103070005DF8047B7047000080B582B000AF0C4B58
:10308000D3F854310A4A43F00203C2F85431084BD2
:10309000D3F8543103F002037B607B6800220F21D8
:1030A0006FF0010007F05AFE00BF0837BD4680BD33
:1030B0000044025880B485B000AF78607B681B681C
:1030C0000B4A93420ED10B4BD3F83831094A43F4E3
:1030D0000073C2F83831074BD3F8383103F400736A
:1030E000FB60FB6800BF1437BD465DF8047B70478A
:1030F000003002400044025880B584B000AF7860D0
:103100007B681B680E4A934216D10E4BD3F83431BC
:103110000C4A43F01003C2F834310A4BD3F834316F
:1031200003F01003FB60FB68002205215A2007F022
:1031300015FE5A2007F02CFE00BF1037BD4680BD9B
:10314000001000520044025880B5B8B000AF78605B
:1031500007F1CC0300221A605A609A60DA601A61A3
:1031600007F11403B8220021184622F091FD7B6874
:103170001B68254A934242D110237B610023C7F884
:10318000B03007F1140318460BF008FE0346002B7D
:1031900001D0FFF769FF1D4BD3F840311B4A43F0C4
:1031A0000803C2F84031194BD3F8403103F008034B
:1031B0003B613B694FF44053C7F8CC301223C7F84A
:1031C000D0300123C7F8D4300223C7F8D830042305
:1031D000C7F8DC3007F1CC0319460D4808F082F936
:1031E0000A4BD3F85431094A43F08003C2F85431F2
:1031F000064BD3F8543103F08003FB60FB6800BF3B
:10320000E037BD4680BD00BF001C00580044025896
:10321000000C025880B582B000AF78607B681B68F4
:103220000C4A934211D10C4BD3F854310A4A23F083
:103230008003C2F854314FF40051084808F002FBF3
:103240004FF48051054808F0FDFA00BF0837BD462D
:1032500080BD00BF001C005800440258000C0258FA
:1032600080B5BAB000AF786007F1D40300221A60CD
:103270005A609A60DA601A6107F11C03B8220021D3
:10328000184622F005FD7B681B68564A934240F0C1
:10329000A4804FF00053FB6118233B64C9237B6477
:1032A0000223BB640223FB6415233B6500237B657B
:1032B0004FF40073BB6541F25653FB6507F11C03E5
:1032C00018460BF06BFD0346002B01D0FFF7CCFE38
:1032D000454BD3F84431444A43F00803C2F8443123
:1032E000414BD3F8443103F00803BB61BB693E4B4B
:1032F000D3F840313C4A43F48063C2F840313A4B42
:10330000D3F8403103F480637B617B69364BD3F89B
:103310004031354A43F40073C2F84031324BD3F8A0
:10332000403103F400733B613B692F4BD3F84031CC
:103330002D4A43F48073C2F840312B4BD3F840310F
:1033400003F48073FB60FB68FF23C7F8D4300223CB
:10335000C7F8D8300023C7F8DC300023C7F8E030C6
:103360000E23C7F8E43007F1D40319461F4808F0CC
:10337000B9F84FF6FF73C7F8D4300223C7F8D83036
:103380000023C7F8DC300023C7F8E0300E23C7F86D
:10339000E43007F1D4031946154808F0A3F84FF4B8
:1033A0007043C7F8D4300223C7F8D8300023C7F8D9
:1033B000DC300023C7F8E0300E23C7F8E43007F113
:1033C000D40319460B4808F08DF800220521582037
:1033D00007F0C4FC582007F0DBFC00BFE837BD460F
:1033E00080BD00BF00100050004402580028025861
:1033F000002402580020025880B5B2B000AF7860B7
:1034000007F11003B8220021184622F041FC7B6826
:103410001B68264A934245D14FF000733B61182345
:103420007B614FF48573BB610223FB6102233B6226
:1034300002237B620023BB622023FB6200233B63E9
:103440002023BB6507F1100318460BF0A7FC0346C9
:10345000002B01D0FFF708FE154BD3F83431144A86
:1034600043F40013C2F83431114BD3F8343103F470
:103470000013FB60FB680E4BD3F834310C4A43F465
:103480008043C2F834310A4BD3F8343103F480431B
:10349000BB60BB68002205215C2007F05FFC5C205C
:1034A00007F076FC00BFC837BD4680BD0050005213
:1034B0000044025880B582B000AF78607B681B681A
:1034C0000C4A934212D10C4BD3F834310A4A23F4FC
:1034D0000013C2F83431084BD3F83431064A23F4D0
:1034E0008043C2F834315C2007F060FC00BF08372D
:1034F000BD4680BD005000520044025880B590B0D7
:1035000000AF78607B680F2B27D8002279683620BF
:1035100007F024FC362007F03BFC294A7B68136047
:10352000284BD3F84831274A43F01003C2F84831FA
:10353000244BD3F8483103F01003FB60FB6807F11C
:10354000100207F11403114618460BF0E5FBBB6AA5
:10355000BB63BB6B002B06D101E001232BE00BF01A
:10356000AFFBF86304E00BF0ABFB03465B00FB63CF
:10357000FB6B154AA2FB03239B0C013B7B63134BA4
:10358000134A1A60114B40F2E732DA600F4A7B6B44
:1035900053600E4B00221A610C4B00229A600B48BC
:1035A0000CF06CFC0346002B04D108480CF0C8FC5E
:1035B000034600E0012318464037BD4680BD00BFEA
:1035C000440000240044025883DE1B4328CD00241D
:1035D0000010004080B400AF00BFBD465DF8047B22
:1035E000704780B400AFFEE780B400AFFEE780B460
:1035F00000AFFEE780B400AFFEE780B400AF00BFCD
:10360000BD465DF8047B704780B500AF042008F02C
:1036100056FA00BF80BD000080B500AF02480CF034
:10362000FFFC00BF80BD00BF28CD002480B500AFE7
:10363000024809F0F5F800BF80BD00BF14CC00249B
:1036400080B500AF024807F089FD00BF80BD00BF14
:10365000C0CC002480B500AF024809F013FD00BFC4
:1036600080BD00BF90CB002480B400AF012318467A
:10367000BD465DF8047B704780B582B000AF7860CE
:10368000396022F0ABFA034616221A604FF0FF337E
:1036900018460837BD4680BD80B582B000AF78605F
:1036A0004FF0FF317868FFF7E7FFFEE780B586B09F
:1036B00000AFF860B9607A6000237B610AE0AFF385
:1036C00000800146BB685A1CBA60CAB21A707B6996
:1036D00001337B617A697B689A42F0DB7B6818462C
:1036E0001837BD4680BD80B586B000AFF860B960C0
:1036F0007A6000237B6109E0BB685A1CBA601B78C2
:103700001846AFF300807B6901337B617A697B687F
:103710009A42F1DB7B6818461837BD4680BD80B4FD
:1037200083B000AF78604FF0FF3318460C37BD46CA
:103730005DF8047B704780B483B000AF7860396077
:103740003B684FF400525A60002318460C37BD46C0
:103750005DF8047B704780B483B000AF78600123CC
:1037600018460C37BD465DF8047B704780B485B0C1
:1037700000AFF860B9607A60002318461437BD4680
:103780005DF8047B7047000080B584B000AF7860BE
:10379000114B1B68002B02D10F4B104A1A600E4BC5
:1037A0001B68FB600C4B1A687B6813446A469342A3
:1037B00007D922F013FA03460C221A604FF0FF33A8
:1037C00006E0054B1A687B681344034A1360FB68E4
:1037D00018461037BD4680BD5C30002480CE0024E2
:1037E00080B582B000AF78600B467B807B88032B6E
:1037F0001ED801A252F823F0093800081338000837
:103800001D3800082738000804F084F903461B68B7
:103810000FE004F07FF903465B680AE004F07AF9F0
:1038200003469B6805E004F075F90346DB6800E099
:10383000002318460837BD4680BD00BF80B400AFE6
:10384000024B1846BD465DF8047B70471C81020898
:1038500080B400AF03231846BD465DF8047B704773
:1038600080B483B000AF7860044A7B681A607B68DC
:1038700018460C37BD465DF8047B7047E8850208A2
:1038800080B582B000AF78607868FFF7E9FF10215B
:10389000786822F042F97B6818460837BD4680BD3B
:1038A00090B587B000AF78600B467B807B88002B9B
:1038B00001D1002310E000233B610023FB737B68F0
:1038C0001B6808331C6807F10F0307F110027988A1
:1038D0007868A04778617B6918461C37BD4690BD63
:1038E00080B483B000AF78607B685B8918460C3782
:1038F000BD465DF8047B704780B483B000AF78604C
:103900007B689B8918460C37BD465DF8047B704781
:1039100080B483B000AF78607B689B8818460C3712
:10392000BD465DF8047B704780B483B000AF78601B
:103930007B689A887B689B799BB213449BB218463C
:103940000C37BD465DF8047B704780B483B000AF90
:1039500078607B68DB79C3F30603DBB218460C376B
:10396000BD465DF8047B704780B483B000AF7860DB
:103970007B68DB79C3F3C013DBB218460C37BD4656
:103980005DF8047B7047000080B582B000AF7860BE
:10399000054A7B681A607B681846FFF761FF7B6801
:1039A00018460837BD4680BD4CA4020880B582B0D9
:1039B00000AF78607868FFF7E7FF1821786822F099
:1039C000ACF87B6818460837BD4680BD80B582B02C
:1039D00000AF7860054A7B681A607B681846FFF77D
:1039E000D3FF7B6818460837BD4680BDBC820208FD
:1039F00080B582B000AF78607868FFF7E7FF2821D4
:103A0000786822F08AF87B6818460837BD4680BD82
:103A100080B483B000AF7860044A7B681A607B682A
:103A200018460C37BD465DF8047B7047608102087C
:103A300080B582B000AF78607868FFF7E9FF0821B1
:103A4000786822F06AF87B6818460837BD4680BD62
:103A500080B483B000AF786039603B6818460C379B
:103A6000BD465DF8047B704780B483B000AF7860DA
:103A7000044A7B681A607B6818460C37BD465DF8BF
:103A8000047B7047E8A3020880B582B000AF78607D
:103A90007868FFF7E9FF2821786822F03EF87B6814
:103AA00018460837BD4680BD80B483B000AF78604B
:103AB000002318460C37BD465DF8047B704780B57F
:103AC00084B000AFF860084611461A4603467B8171
:103AD0000B463B811346FB80B7F90820B7F90A3043
:103AE0001946F86800F037F8B7F91820B7F906302A
:103AF0001946F86800F08BF800BF1037BD4680BD4E
:103B000080B483B000AF78607B68B3F904301846A6
:103B10000C37BD465DF8047B704780B483B000AFBE
:103B200078600B467B807B687A889A8000BF0C3770
:103B3000BD465DF8047B704780B483B000AF786009
:103B40000B467B807B687A88DA8000BF0C37BD46E5
:103B50005DF8047B704780B582B000AF78600B469B
:103B60007B8013463B807B681B682C331B68B7F94E
:103B700002201146786898477B681B6830331B68C1
:103B8000B7F9002011467868984700BF0837BD464E
:103B900080BD80B483B000AF78600B467B807B68CB
:103BA0007A881A8100BF0C37BD465DF8047B7047E8
:103BB00080B483B000AF78600B467B807B687A88E6
:103BC0005A8100BF0C37BD465DF8047B704780B456
:103BD00083B000AF786000BF0C37BD465DF8047B52
:103BE000704780B483B000AF7860396000BF0C3795
:103BF000BD465DF8047B704780B483B000AF786049
:103C0000396000BF0C37BD465DF8047B704780B556
:103C100082B000AF78600B467B8013463B807B68A8
:103C20001B6834331B68B7F902201146786898473F
:103C30007B681B6838331B68B7F900201146786829
:103C4000984700BF0837BD4680BD80B483B000AF41
:103C50007860396000BF0C37BD465DF8047B704763
:103C600080B483B000AF786000BF0C37BD465DF80C
:103C7000047B704780B483B000AF78607B6893F8B2
:103C8000253018460C37BD465DF8047B704780B47C
:103C900083B000AF78607B6893F8243018460C3707
:103CA000BD465DF8047B704780B582B000AF786098
:103CB0000B467B8013463B807B681B6850331B6838
:103CC00079887A68B2F9042092B28A1A92B210B254
:103CD00039887A68B2F9062092B28A1A92B212B280
:103CE00001467868984700BF0837BD4680BD80B45C
:103CF00083B000AF78607B684FF6FF729A817B6873
:103D00004FF6FF721A847B684FF6FF725A8400BF29
:103D10000C37BD465DF8047B704780B584B000AFBA
:103D2000F860B9607A60F868FFF7E1FF7B681A68AD
:103D3000FB68DA617B68FA681A6000BF1037BD461D
:103D400080BD000080B400AF0B4B1B6893F8763049
:103D5000002B08D0084B1B68DB6C002B03D0064BF4
:103D60001B68DB6C02E0044B1B689B681846BD4671
:103D70005DF8047B704700BFA4C8002480B483B002
:103D800000AF7860074A7B681A607B6800225A603F
:103D90007B6800221A727B6818460C37BD465DF8B6
:103DA000047B70479882020880B483B000AF7860CB
:103DB000044A7B681A607B6818460C37BD465DF87C
:103DC000047B70479882020880B582B000AF7860AB
:103DD0007868FFF7E9FF0C21786821F09EFE7B6888
:103DE00018460837BD4680BD80B483B000AF786008
:103DF00000BF0C37BD465DF8047B704780B483B0CC
:103E000000AF786000BF0C37BD465DF8047B70479B
:103E100080B483B000AF786000BF0C37BD465DF85A
:103E2000047B704780B582B000AF786014F016FF55
:103E300003461A68303212681846904700BF0837A8
:103E4000BD4680BD80B483B000AF786039607B68C8
:103E50003A685A6000BF0C37BD465DF8047B704776
:103E600080B582B000AF78607B68184614F018FF08
:103E7000094A7B681A607B680022C3F838217B6896
:103E80000022C3F83C217B68044A13607B68184613
:103E90000837BD4680BD00BF507F020810C900240E
:103EA00080B483B000AF786039607B683A681A608C
:103EB00000BF0C37BD465DF8047B704780B483B00B
:103EC00000AF78607B6801221A7200BF0C37BD46D4
:103ED0005DF8047B704780B584B000AFF8607B600C
:103EE0000B467B8113463B81FB681846FFF7C2FEF9
:103EF0000346002B08D0FB681846FFF7C8FE0346B0
:103F0000002B01D0012300E00023002B02D0FA682F
:103F10007B681A6000BF1037BD4680BD80B483B097
:103F200000AF786039607B683A685A6000BF0C3730
:103F3000BD465DF8047B704780B582B000AF786005
:103F4000054A7B681A607B681846FFF78DFD7B6821
:103F500018460837BD4680BD1082020880B582B081
:103F600000AF78607868FFF7E7FF2821786821F0D4
:103F7000D4FD7B6818460837BD4680BD80B584B047
:103F800000AFF860B9607A60FB681846FFF768FF19
:103F9000134AFB681A60FB6803F5A073184600F02B
:103FA0002BF9FB687A68C3F85021FB68BA68C3F83C
:103FB0005421FCF765FF03461A6808321268002195
:103FC00018469047002003F02DFDFFF7BBFE034687
:103FD00018461BF0DAF9FB6818461037BD4680BD5D
:103FE000F47E020880B483B000AF786039607B68EB
:103FF00018460C37BD465DF8047B704780B582B02B
:1040000000AF786039607B683A6811461846FFF760
:10401000E9FF3B685A687B685A607B683A680833F6
:10402000083292E8030083E803007B6818460837EB
:10403000BD4680BD90B589B000AF78607B6803F560
:10404000A074104BBB610023FB6107F1080007F16E
:1040500018030CCB796800F0EBF807F10803194658
:104060002046FFF7CBFF07F108031846FEF70EF8CE
:104070007B6803F5A0727B68C3F83C2100BF24373E
:10408000BD4690BD8940000880B584B002AF78601D
:104090007B6803F59C717B68D3F850311A467B68C6
:1040A000D3F854310093044B044800F0F3F800BFF8
:1040B0000837BD4680BD00BF04C9002400C90024E4
:1040C00090B589B000AF78607B6803F5A074104BA1
:1040D000BB610023FB6107F1080007F118030CCB5B
:1040E000796800F0A5F807F1080319462046FFF7A4
:1040F00085FF07F108031846FDF7C8FF7B6803F545
:10410000A0727B68C3F83C2100BF2437BD4690BD38
:104110001541000880B584B002AF78607B6803F574
:104120009C717B68D3F850311A467B68D3F85431C0
:104130000093044B044800F0CBF900BF0837BD469C
:1041400080BD00BF04C9002400C9002490B589B017
:1041500000AF78607B6803F5A074104BBB6100234F
:10416000FB6107F1080007F118030CCB796800F038
:104170005FF807F1080319462046FFF73FFF07F1F4
:1041800008031846FDF782FF7B6803F5A0727B6881
:10419000C3F83C2100BF2437BD4690BDA1410008B3
:1041A00080B584B002AF78607B6803F59C717B6852
:1041B000D3F850311A467B68D3F854310093044B3E
:1041C000044800F0A3FA00BF0837BD4680BD00BF19
:1041D00004C9002400C9002480B483B000AF786013
:1041E000044A7B681A607B6818460C37BD465DF848
:1041F000047B7047947F020880B582B000AF78607E
:104200007B681846FFF7E8FF084A7B681A607B68FE
:1042100000225A607B6800229A607B680022DA6084
:104220007B6818460837BD4680BD00BF387F02084E
:1042300080B584B000AFF860B960394681E80C0001
:10424000FB681846FFF7C8FF084AFB681A60FB685E
:10425000BA685A60FB6808333A4692E8030083E87C
:104260000300FB6818461037BD4680BD387F020842
:1042700080B582B000AF78607B681846FFF77EFD9E
:10428000034A7B681A607B6818460837BD4680BDC4
:104290007482020890B58FB000AFF860B9607A60A0
:1042A0003B607B689A687B689B681B6820331B684F
:1042B00010469847034642F23702934205D87F4B97
:1042C0007F4AA3217F4821F057FC00BF7B685A68D2
:1042D0007B685B681B6820331B6810469847034661
:1042E0000F2B05D8784B764AA421764821F044FC60
:1042F00000BF7B68DA687B68DB681B6820331B685B
:104300001046984703460B2B05D8704B6C4AA521E5
:104310006C4821F031FC00BFFB68BB62BB687B626C
:104320003B683B6214F09AFC0346184614F09CFC70
:104330003B6A1B68002B08D03B6A1A683B6A1B6803
:104340001B680C331B68104698473B6A1B68002BA0
:1043500007D03B6A1A683B6A1B681B681B681046DB
:104360009847BB6A1B68002B08D0BB6A1A68BB6AF7
:104370001B681B6814331B68104698477B6A1B68D0
:10438000002B08D07B6A1A687B6A1B681B680433A1
:104390001B6810469847BB6A1B68002B07D0BB6A96
:1043A0001A68BB6A1B681B681B68104698477B6AC3
:1043B0001B68002B08D07B6A1A687B6A1B681B6825
:1043C00008331B681046984700BF7B68DB680021F4
:1043D000184600F0B9FA034619460C20FFF738FBDF
:1043E00004462046FFF744FF7C637B689B680021FE
:1043F000184600F0BCFA0346194642F23800FFF7AF
:1044000027FB0446204603F0F1FC3C637B685B68B5
:104410000021184600F0BEFA034619461020FFF7A7
:1044200017FB0446396B204603F088FCFC623B68AE
:104430007A6B1A60BB68FA6A1A60FB683A6B1A609A
:10444000FB6A002B02D0FB6A043300E0002319460C
:10445000B86CFFF725FDFB6A0433B96C1846FFF70B
:104460005DFD3B6BF96A184600F0A7FA3B6BFB61F8
:10447000FB6ABB617B6B7B61FB691B680C331B6850
:10448000F8699847BB691B681B68B86998477969E0
:10449000F86916F057F87B691B6810331B68786958
:1044A00098477B691B6814331B687869984700BF7D
:1044B000FB6A18463C37BD4690BD00BFD870020865
:1044C000687102086C720208B4720208587302081C
:1044D00090B58FB000AFF860B9607A603B607B68E0
:1044E0009A687B689B681B6820331B681046984756
:1044F000034642F23702934205D87F4B7F4AA321FD
:104500007F4821F039FB00BF7B685A687B685B6895
:104510001B6820331B681046984703460F2B05D8AD
:10452000784B764AA421764821F026FB00BF7B68B1
:10453000DA687B68DB681B6820331B681046984785
:104540000346532B05D8704B6C4AA5216C4821F0CB
:1045500013FB00BFFB68BB62BB687B623B683B62CE
:1045600014F07CFB0346184614F07EFB3B6A1B6884
:10457000002B08D03B6A1A683B6A1B681B680C3327
:104580001B68104698473B6A1B68002B07D03B6AA4
:104590001A683B6A1B681B681B6810469847BB6A11
:1045A0001B68002B08D0BB6A1A68BB6A1B681B68B3
:1045B00014331B68104698477B6A1B68002B08D091
:1045C0007B6A1A687B6A1B681B6804331B68104689
:1045D0009847BB6A1B68002B07D0BB6A1A68BB6A86
:1045E0001B681B681B68104698477B6A1B68002B7A
:1045F00008D07B6A1A687B6A1B681B6808331B68D3
:104600001046984700BF7B68DB680021184600F021
:10461000E2F9034619465420FFF71AFA044614211A
:10462000204600F02FFA7C637B689B6800211846C7
:1046300000F09DF90346194642F23800FFF708FAE8
:104640000446204603F0D2FB3C637B685B68002194
:10465000184600F09FF9034619461020FFF7F8F9B5
:104660000446396B204603F069FBFC623B687A6BB9
:104670001A60BB68FA6A1A60FB683A6B1A60FB6AD8
:10468000002B02D0FB6A043300E000231946B86C0B
:10469000FFF706FCFB6A0433B96C1846FFF73EFCD3
:1046A0003B6BF96A184600F088F93B6BFB61FB6ACB
:1046B000BB617B6B7B61FB691B680C331B68F86912
:1046C0009847BB691B681B68B86998477969F8699E
:1046D00015F038FF7B691B6810331B6878699847B1
:1046E0007B691B6814331B687869984700BFFB6AB5
:1046F00018463C37BD4690BDD8700208FC730208CE
:104700006C720208B47202085873020890B58FB038
:1047100000AFF860B9607A603B607B689A687B683C
:104720009B681B6820331B68104698470346B3F507
:104730009E7F05D27F4B804AA321804821F01CFA3E
:1047400000BF7B685A687B685B681B6820331B6806
:104750001046984703460F2B05D8794B764AA4217B
:10476000764821F009FA00BF7B68DA687B68DB686D
:104770001B6820331B68104698470346532B05D807
:10478000704B6D4AA5216D4821F0F6F900BFFB681A
:10479000BB62BB687B623B683B6214F05FFA034616
:1047A000184614F061FA3B6A1B68002B08D03B6A7C
:1047B0001A683B6A1B681B680C331B6810469847D5
:1047C0003B6A1B68002B07D03B6A1A683B6A1B6870
:1047D0001B681B6810469847BB6A1B68002B08D0F3
:1047E000BB6A1A68BB6A1B681B6814331B681046D7
:1047F00098477B6A1B68002B08D07B6A1A687B6A23
:104800001B681B6804331B6810469847BB6A1B680B
:10481000002B07D0BB6A1A68BB6A1B681B681B6841
:10482000104698477B6A1B68002B08D07B6A1A6881
:104830007B6A1B681B6808331B681046984700BFDB
:104840007B68DB680021184600F080F903461946B2
:104850005420FFF7FDF804461421204600F0ACF97F
:104860007C637B689B680021184600F007FA0346CA
:1048700019464FF49E70FFF7EBF80446204603F00C
:104880006BFB3C637B685B680021184600F009FA0B
:10489000034619461020FFF7DBF80446396B204623
:1048A00003F002FBFC623B687A6B1A60BB68FA6A31
:1048B0001A60FB683A6B1A60FB6A002B02D0FB6A35
:1048C000043300E000231946B86CFFF7E9FAFB6AED
:1048D0000433B96C1846FFF721FB3B6BF96A1846A5
:1048E00000F0F2F93B6BFB61FB6ABB617B6B7B61A8
:1048F000FB691B680C331B68F8699847BB691B6828
:104900001B68B86998477969F86915F01BFE7B69DF
:104910001B6810331B68786998477B691B681433E0
:104920001B687869984700BFFB6A18463C37BD464C
:1049300090BD00BFD8700208147502086C7202089E
:10494000B47202085873020880B582B000AF786074
:104950000B467B807B681B6824331B687A88114672
:1049600078689847034618460837BD4680BD80B52D
:1049700082B000AF78600B467B807B681B68243375
:104980001B687A88114678689847034618460837A6
:10499000BD4680BD80B582B000AF78600B467B809D
:1049A0007B681B6824331B687A88114678689847AF
:1049B000034618460837BD4680BD80B483B000AFBB
:1049C000786039607B683A68DA6300BF0C37BD46AF
:1049D0005DF8047B704780B582B000AF78600B460D
:1049E0007B807B681B6824331B687A881146786853
:1049F0009847034618460837BD4680BD80B582B04B
:104A000000AF7860054A7B681A607B681846FFF73C
:104A100093FA7B6818460837BD4680BDE09A0208C5
:104A200080B582B000AF78607868FFF7E7FF2C218F
:104A3000786821F072F87B6818460837BD4680BD5B
:104A400080B582B000AF7860054A7B681A607B68E9
:104A5000184600F091F97B6818460837BD4680BDBE
:104A60009C81020880B582B000AF78607868FFF75B
:104A7000E7FF1021786821F050F87B681846083766
:104A8000BD4680BD90B587B002AF78600B46FB7025
:104A90007B681846FFF772F9274A7B681A607B68C3
:104AA0000C33184611F0A0FE7B6803F10C027B6802
:104AB0009A637B6803F13C04204A07F1080392E8FB
:104AC000030083E8030007F108030CCB7968204654
:104AD00000F032F97B68FA7883F84C207B6800227A
:104AE00083F84D207B680022A3F85020144B1B78DC
:104AF000002B1CD07B6803F10C00124B1B881AB2F0
:104B0000114B1B881BB20093134600220021FEF7B5
:104B1000D6FF7B680C33184611F0EAFD094B1B8861
:104B20005B429BB21AB27B68A3F84E2000BF7B6841
:104B300018461437BD4690BD708102082C760208D5
:104B4000A3C8002498C800249AC8002480B582B065
:104B500000AF78600B467B807B681B6824331B6842
:104B60007A88114678689847034618460837BD4644
:104B700080BD000080B582B000AF7860054A7B68D8
:104B80001A607B68184600F0F7F87B68184608370B
:104B9000BD4680BDE081020880B582B000AF78607C
:104BA0007868FFF7E7FF1021786820F0B6FF7B6890
:104BB00018460837BD4680BD90B587B002AF786013
:104BC0000B46FB707B681846FFF7D8F8264A7B68CF
:104BD0001A607B680C33184611F006FE7B6803F1FF
:104BE0000C027B689A637B6803F13C041F4A07F15F
:104BF000080392E8030083E8030007F108030CCBE5
:104C00007968204600F0F2F87B68FA7883F84C2047
:104C10007B68002283F84D207B680022A3F8502097
:104C2000134B1B78002B1AD07B6803F10C00114B3F
:104C30001B881AB2104B1B881BB20093134600222C
:104C40000021FEF73CFF7B680C33184611F050FD45
:104C5000084B1B881AB27B68A3F84E2000BF7B6804
:104C600018461437BD4690BDB48102083476020858
:104C7000A3C8002498C800249AC8002480B582B034
:104C800000AF78600B467B807B681B6824331B6811
:104C90007A88114678689847034618460837BD4613
:104CA00080BD80B582B000AF78600B467B807B68AA
:104CB0001B6824331B687A88114678689847034636
:104CC00018460837BD4680BD80B483B000AF786019
:104CD00039607B683A68DA6300BF0C37BD465DF81F
:104CE000047B704780B582B000AF786039607B6824
:104CF0009B6B3A689A420AD03B681B6850331B682A
:104D00007A68B2F9501000223868984700E000BF76
:104D10000837BD4680BD000080B483B000AF786026
:104D2000044A7B681A607B6818460C37BD465DF8FC
:104D3000047B7047F881020880B584B000AFF8604A
:104D4000B960394681E80C00FB681846FFF7E4FFBC
:104D5000084AFB681A60FB68BA685A60FB68083347
:104D60003A4692E8030083E80300FB6818461037D0
:104D7000BD4680BD9C81020880B483B000AF7860DE
:104D8000044A7B681A607B6818460C37BD465DF89C
:104D9000047B7047F881020880B582B000AF78606C
:104DA0007868FFF7E9FF0421786820F0B6FE7B6899
:104DB00018460837BD4680BD80B582B000AF786028
:104DC00039607B689B6B3A689A420AD03B681B68E3
:104DD00050331B687A68B2F950100022386898473F
:104DE00000E000BF0837BD4680BD000080B584B03C
:104DF00000AFF860B960394681E80C00FB681846DE
:104E0000FFF78AFF084AFB681A60FB68BA685A60B5
:104E1000FB6808333A4692E8030083E80300FB6826
:104E200018461037BD4680BDE081020880B582B0CB
:104E300000AF78600A4A7B681A607B683C3318468A
:104E4000FFF7FEFD7B680C331846FFF7D7FD7B6844
:104E50001846FEF7A9FF7B6818460837BD4680BD97
:104E60007081020880B582B000AF78607868FFF783
:104E7000DDFF5421786820F050FE7B681846083723
:104E8000BD4680BD80B582B000AF78600A4A7B68BD
:104E90001A607B683C331846FFF76CFE7B680C3366
:104EA0001846FFF7ABFD7B681846FEF77DFF7B6871
:104EB00018460837BD4680BDB481020880B582B06F
:104EC00000AF78607868FFF7DDFF5421786820F044
:104ED00024FE7B6818460837BD4680BD80B582B089
:104EE00000AF7860054A7B681A607B681846FEF759
:104EF0005BFF7B6818460837BD4680BD7482020898
:104F000080B582B000AF78607868FFF7E7FF0C21CA
:104F1000786820F002FE7B6818460837BD4680BDE1
:104F200080B582B000AF7860404B1B7883F00103FE
:104F3000DBB2002B03D07B6801221A7273E07B681E
:104F40001846FEF751FF7B6893F84D300133DAB213
:104F50007B6883F84D207B6893F84D207B6893F83D
:104F60004C309A422FD87B6893F84D3098B27B68CA
:104F7000B3F94E207B6893F84C309BB2002115F0BA
:104F8000E7FA03461A467B68A3F850207B68B3F91A
:104F900050309BB203F001039BB2002B1BD07B6807
:104FA000B3F950309BB27A68B2F95020002A01DD83
:104FB000012201E04FF6FF7213449BB21AB27B68E4
:104FC000A3F8502007E07B6801221A727B68002258
:104FD00083F84D2027E07B680C331846FEF790FDE0
:104FE000034619467B68B3F950309AB28BB2D31A94
:104FF0009BB21AB27B68A3F850207B6803F10C00C7
:105000007B68B3F950300022194614F027FE00BF28
:105010007B6858687B685B681B6878331B687A68B4
:105020003C32114698470837BD4680BDA3C80024CE
:1050300080B582B000AF78600B4B1B78002B0ED090
:105040007B685B68002B0AD07B6858687B685B686C
:105050001B6860331B687A680C321146984700BFA2
:105060000837BD4680BD00BFA3C8002480B588B006
:1050700000AF78601A4B1B78002B2DD07B68184648
:10508000FEF7C6FE174A07F1180392E8030083E80B
:10509000030007F1080007F118030CCB7968FFF74C
:1050A0004BFE7B685A687B685B681B6878331B68BB
:1050B00007F10801104698477B6858687B685B6871
:1050C0001B685C331B687A680C321146984707F1FD
:1050D00008031846FFF7B4FC00BF2037BD4680BD6B
:1050E000A3C800243C76020880B582B000AF786087
:1050F00039603B681B6850331B68054A128811B23F
:1051000000223868984700BF00BF0837BD4680BD01
:1051100098C8002480B582B000AF786039607B68A1
:105120005B687A68D268521098187B68DB6803F075
:105130000103002B02D17B689B680AE07B685B68F7
:105140007A68D268521013441B687A6892681344D4
:105150001B683968984700BF0837BD4680BD80B4DA
:1051600083B000AF78607B685B68002B10D07B68F1
:105170009B68002B07D17B68DB6803F00103002BE1
:1051800001D1012300E00023012B01D0012300E025
:10519000002318460C37BD465DF8047B70470000BD
:1051A00080B582B000AF7860404B1B7883F001037C
:1051B000DBB2002B03D07B6801221A7273E07B689C
:1051C0001846FEF711FE7B6893F84D300133DAB2D2
:1051D0007B6883F84D207B6893F84D207B6893F8BB
:1051E0004C309A422FD87B6893F84D3098B27B6848
:1051F000B3F94E207B6893F84C309BB2002115F038
:10520000A7F903461A467B68A3F850207B68B3F9D8
:1052100050309BB203F001039BB2002B1BD07B6884
:10522000B3F950309BB27A68B2F95020002A01DD00
:10523000012201E04FF6FF7213449BB21AB27B6861
:10524000A3F8502007E07B6801221A727B680022D5
:1052500083F84D2027E07B680C331846FEF750FC9E
:10526000034619467B68B3F950309AB28BB2D31A11
:105270009BB21AB27B68A3F850207B6803F10C0044
:105280007B68B3F950300022194614F0E7FC00BFE8
:105290007B6858687B685B681B6878331B687A6832
:1052A0003C32114698470837BD4680BDA3C800244C
:1052B00080B582B000AF78600B4B1B78002B0ED00E
:1052C0007B685B68002B0AD07B6858687B685B68EA
:1052D0001B6860331B687A680C321146984700BF20
:1052E0000837BD4680BD00BFA3C8002480B588B084
:1052F00000AF78601A4B1B78002B2DD07B681846C6
:10530000FEF786FD174A07F1180392E8030083E8C9
:10531000030007F1080007F118030CCB7968FFF7C9
:1053200065FD7B685A687B685B681B6878331B681F
:1053300007F10801104698477B6858687B685B68EE
:105340001B685C331B687A680C321146984707F17A
:1053500008031846FFF70EFC00BF2037BD4680BD8E
:10536000A3C800244476020880B582B000AF7860FC
:1053700039603B681B6850331B68064A12885242EA
:1053800092B211B200223868984700BF00BF0837B8
:10539000BD4680BD98C8002480B582B000AF78605B
:1053A00039607B685B687A68D268521098187B68AD
:1053B000DB6803F00103002B02D17B689B680AE0E5
:1053C0007B685B687A68D268521013441B687A68FD
:1053D000926813441B683968984700BF0837BD4678
:1053E00080BD80B483B000AF78607B685B68002BC1
:1053F00010D07B689B68002B07D17B68DB6803F0CB
:105400000103002B01D1012300E00023012B01D077
:10541000012300E0002318460C37BD465DF8047BED
:10542000704780B483B000AF78607B681B6A184611
:105430000C37BD465DF8047B704780B483B000AF85
:1054400078607B685B6A18460C37BD465DF8047B64
:105450007047000080B58CB008AFF860B9601146A5
:105460001A460B46FB801346BB80F868B988FA8859
:105470003B8F0693BB8E059397F82830049397F8DB
:105480002430039397F8203002933B7F01933B7EB7
:1054900000930B46B96814F00DFC0A4AFB681A60C9
:1054A000FB68FA6A9A61FB683A6BDA61FB68FA6B2F
:1054B0001A62FB683A6C5A62FB6818461037BD46A0
:1054C00080BD00BFBC82020880B485B000AF7860A8
:1054D00039607B689B69FB603B689B88DB0A9BB2F9
:1054E0009B00FA6813441A683B681B68134418460B
:1054F0001437BD465DF8047B704780B489B000AFB7
:10550000F8600B467A607B817B68002B03D07B6858
:105510001B7B002B01D1002330E0FB68DA697B683C
:105520007B617B695B7B1B021BB203F4E06319B2F6
:105530007B69DB7A1BB20B431BB29BB29B0013440B
:10554000FB617B681B7B7B837B8B002B15D0FB690E
:105550001B887A899A4203D1FB6993F902300DE0E6
:10556000FB691B887A899A4206D37B8B013B7B833C
:10557000FB690433FB61E7E700BF002318462437CB
:10558000BD465DF8047B704780B483B000AF78609F
:1055900039607B683A681A607B6818460C37BD46EC
:1055A0005DF8047B704780B483B000AF78600B4631
:1055B0007B807B687A881A807B6818460C37BD46EA
:1055C0005DF8047B7047000080B582B000AF786062
:1055D000144A7B681A607B6804331846FBF796FF11
:1055E0007B680C331846FBF791FF7B6800225A61F9
:1055F0007B6800229A617B680022DA617B68002266
:105600001A847B6800225A847B68002283F8242055
:105610007B68012283F825207B6818460837BD4641
:1056200080BD00BFE8A3020880B483B000AF7860FB
:105630007B689B6A18460C37BD465DF8047B704753
:1056400080B483B000AF78607B68DB6C18460C37A1
:10565000BD465DF8047B704780B582B000AF7860CE
:10566000064A7B681A607B680433184601F0FEF82E
:105670007B6818460837BD4680BD00BFE0A402081D
:1056800080B582B000AF78607868FFF7E5FF3C2115
:10569000786820F042FA7B6818460837BD4680BD1E
:1056A00080B483B000AF786000BF0C37BD465DF8B2
:1056B000047B704780B483B000AF786000BF0C37C4
:1056C000BD465DF8047B704780B483B000AF78605E
:1056D00000BF0C37BD465DF8047B704780B483B0D3
:1056E00000AF786000BF0C37BD465DF8047B7047A3
:1056F00080B483B000AF78600B46FB7000BF0C37FE
:10570000BD465DF8047B704780B582B000AF78601D
:1057100039607B680433396818460EF07BFB00BFA4
:105720000837BD4680BD000080B582B000AF78600C
:105730007B681846FFF748FF034A7B681A607B685E
:1057400018460837BD4680BD1082020880B582B079
:1057500000AF78607B68184626231A46002120F0A7
:1057600097FA7B681846FFF7DFFF094A7B681A60E3
:105770007B68FF2283F826207B68283300211846A7
:10578000FFF702FF7B6818460837BD4680BD00BFA3
:10579000B49C020880B483B000AF786039607B6845
:1057A0003A689A6200BF0C37BD465DF8047B7047CB
:1057B00080B582B000AF786039607B6818462623D8
:1057C0001A46002120F064FA7B681846FFF7ACFF08
:1057D000094A7B681A607B683A681288DA847B68B9
:1057E000FF2283F828203968786811F0EDFB7B6888
:1057F00018460837BD4680BDC89E020880B483B0F5
:1058000000AF7860094A7B681A607B6800229A8042
:105810007B680022DA807B68FF221A727B68184658
:105820000C37BD465DF8047B704700BF5485020805
:1058300080B483B000AF7860044A7B681A607B68EC
:1058400018460C37BD465DF8047B70475485020846
:1058500080B582B000AF78607868FFF7E9FF0C216F
:10586000786820F05AF97B6818460837BD4680BD35
:1058700080B483B000AF78600B46FB707B68FA7829
:1058800083F82E2000BF0C37BD465DF8047B7047BF
:1058900080B483B000AF78607B6893F82E301846F0
:1058A0000C37BD465DF8047B7047000080B584B0BE
:1058B00000AF78607B681846FFF7A0FF294A7B6835
:1058C0001A607B680022DA607B6800221A6101237B
:1058D000FB73FEF737FA03461A682432126818463B
:1058E000904703461A46FB7B93420CBF01230023DB
:1058F000BB73FBF7C5FA03461846FFF7A1FE034644
:10590000002B14BF01230023DBB2002B1BD0FBF7BD
:10591000B7FA03461846FFF793FE03461A68243287
:1059200012681846904703461A46FB7B93420CBF09
:1059300001230023DAB2BB7B1343DBB2002B14BF7D
:1059400001230023BB73BB7B002B05D1064B074A09
:105950002821074820F010F900BF7B68184610374F
:10596000BD4680BD0C9402084C760208AC76020855
:10597000E876020880B582B000AF7860054A7B689F
:105980001A607B681846FFF753FF7B681846083794
:10599000BD4680BD0C94020880B582B000AF78602F
:1059A0007868FFF7E7FF1421786820F0B6F87B6885
:1059B00018460837BD4680BD80B582B000AF78601C
:1059C00039607B681846FFF771FF0A4A7B681A60E6
:1059D0007B6800221A757B6800225A757B6800225A
:1059E0009A753968786800F007F87B6818460837B8
:1059F000BD4680BD2C94020880B586B000AF7860AB
:105A000039603B687B6107F114031846FBF7AAF97C
:105A100003461B0CDAB27B681A753B683B6107F1E1
:105A200010031846FBF79EF903461B0ADAB27B689F
:105A30005A753B68FB6007F10C031846FBF792F9B7
:105A40000346DAB27B689A7500BF1837BD4680BD41
:105A500080B483B000AF78600B467B80064A7B68D9
:105A60001A607B687A889A807B6818460C37BD4636
:105A70005DF8047B704700BF6081020880B483B08A
:105A800000AF786039607B683A689A6200BF0C3773
:105A9000BD465DF8047B704780B582B000AF78608A
:105AA000054A7B681A607B681846FEF745FA7B68F2
:105AB00018460837BD4680BD749A020880B582B08A
:105AC00000AF78607868FFF7E7FF3021786820F052
:105AD00024F87B6818460837BD4680BD80B483B083
